:100000000C94E7020C9404030C9404030C94040372
:100010000C9404030C9404030C9404030C94040344
:100020000C9404030C9404030C94B3210C948D22BF
:100030000C943E0D0C9404030C9404030C940403E0
:100040000C9404030C9404030C9404030C94040314
:100050000C9404030C94EE1E0C9404030C940403FF
:100060000C9404030C9404030C9404030C940403F4
:100070000C9404030C9404030C9404030C940403E4
:100080000C9404030C9404030C9404030C940403D4
:100090000C9404030C9404030C9404030C940403C4
:1000A0000C9404030C9404030C940403050109024A
:1000B000A10185020901A100050919012905150001
:1000C00025019505750181029501750381010501E1
:1000D000093009311581257F950275088106093897
:1000E0001581257F950175088106050C0A380215D2
:1000F00081257F950175088106C0C005010980A191
:1001000001850319012AB700150126B7009501756D
:10011000108100C0050C0901A101850419012AA064
:1001200002150126A002950175108100C005010984
:1001300006A1018505050719E029E71500250195A8
:1001400008750181020507190029EF1500250195A1
:10015000F0750181020508190129059505750191C0
:1001600002950175039101C005010906A10105076A
:1001700019E029E71500250195087501810295010F
:10018000750881010507190029FF150026FF009554
:100190000675088100050819012905950575019165
:1001A00002950175039101C009023B00020100A004
:1001B000FA090400000103010100092111010001F5
:1001C0002240000705810308000A09040100010319
:1001D00000000009211101000122BC000705820373
:1001E00020000A1201100100000008973274490132
:1001F000000102000116034500720067006F004411
:10020000006F007800200045005A00000028035AC3
:100210000053004100200054006500630068006E38
:10022000006F006C006F006700790020004C0061D7
:1002300000620073000000040309045E743D7962EB
:100240006F636F6E736F6C652E6C6F67282701018B
:1002500029706127293B010129005E79776F636F5F
:100260006E736F6C652E6C6F6728270101297061B2
:1002700027293B0101290069662065727220213D12
:10028000206E696C207B0A090A7D01015200000082
:10029000000000000000000000000000000000005E
:1002A00000007E0F00D4FFFFFFC7000000780000B1
:1002B0000000000000002A2B2800000000000000C1
:1002C00000000000000000000029000000002C1EBB
:1002D0003420212224342627252E362D3738271E78
:1002E0001F202122232425263333362E37381F049E
:1002F00005060708090A0B0C0D0E0F101112131436
:1003000015161718191A1B1C1D2F3130232D3504F3
:1003100005060708090A0B0C0D0E0F101112131415
:1003200015161718191A1B1C1D2F3130354C2900B2
:100330002B00E300E100E00000001E0014000400B8
:10034000640003514D001F001A0016001D000251E9
:100350002A002000080007001B0001512C0021008A
:10036000150009000600E2004A00220017000A00FA
:100370001900000001004C00010000002E000000E8
:1003800001003E003200000033000000AE002300F8
:100390001C000B0005000000AB00240018000D003D
:1003A000110002514B0025000C000E0010002D0220
:1003B0002800260012000F00360056002B002700F0
:1003C0001300330037002E004E002A0001003400D5
:1003D0003800E400000029000100010001000100D4
:1003E00000003A001E02200222022E0001003B0003
:1003F0001F022102230201004C003C002F022602B2
:100400002F00010001003D003002270230000100F2
:1004100001003E00310235003502000001000100FC
:1004200001000000010000000100010001000000C7
:100430000100000001003F00010050002402000004
:1004400001004000010051000100010001004100D5
:1004500001005200010001000100420001004F00B4
:10046000010001000100430025022E02310044007A
:1004700001004C00010001000100450000000100E6
:100480000100010001000100000001000100F20074
:100490000100010001000100F000F1000100010075
:1004A0000100F900FA00F3000100F400010001006E
:1004B000010001000100F500010001000100010040
:1004C0000100000001000100010000000100000027
:1004D0000100010001000000010000000100010016
:1004E00001000100010000000100010024002100C2
:1004F0001E00270001000100250022001F0001004E
:10050000B6000100250023002000010001000100C9
:10051000010001000100010001004C000100010088
:1005200001000100000001000100010001000100C4
:10053000000001002C5D2E5D0100010001000100A2
:100540002F5D0100010001000100010001002D5D8F
:100550000100010001000100010001000100010093
:100560000100010001000100010000000100010084
:100570000100000001000000010001000100000076
:1005800001000000005C010001000100010000000A
:100590000100010001000100010001000100010053
:1005A0000100010001000100010001000100010043
:1005B0000100010001000100010001000100010033
:1005C00001000100010001000100010000001124F0
:1005D0001FBECFEFDAE0DEBFCDBF11E0A0E0B1E09B
:1005E000E4E3F4E502C005900D92AE3EB107D9F701
:1005F00023E0AEEEB1E001C01D92AE33B207E1F7E9
:100600000E94121F0C94D8290C9400008098889A9C
:100610008198899A84988C9A85988D9A86988E9AD2
:1006200087988F9A08952098289821982998229839
:100630002A9823982B9852985A9853985B983E98EA
:1006400046980895259A2D9A0895269A2E9A0895E7
:10065000279A2F9A089556985E98089525982D9870
:10066000089526982E98089527982F980895CF9347
:10067000DF9300D000D00F92CDB7DEB769837A83C5
:100680008B839C8329813A814B815C81CA01AA2793
:10069000BB270097A105B10509F453C030E13D83A4
:1006A000492F5A2F6B2F7727411551056105710589
:1006B00029F08D81885F8D83DB01CA01AC01BD010A
:1006C000E4E07695679557954795EA95D1F74115FA
:1006D00051056105710529F02D812C5F2D83DB010A
:1006E000CA01AC01BD0132E07695679557954795F3
:1006F0003A95D1F7411551056105710529F03D8104
:100700003E5F3D83DB01CA01B695A7959795879516
:10071000892B8A2B8B2B19F04D814F5F4D830E94C3
:100720002B030E942E030E9431030E9434035D813B
:100730005150573070F4E52FF0E0E652F64D0C942E
:10074000D12389819A81AB81BC811D82A9CF0E946E
:10075000220369817A818B819C810F900F900F9089
:100760000F900F90DF91CF9108950E9422030E9475
:100770002503EFCF0E9422030E942803EACF0E94A4
:1007800022030E942503F8CFCF93DF939C01FB0146
:100790009A9581159F4160F5E901CC27D170D90167
:1007A000AA27B270B90166277470A901442758704E
:1007B00034FF10C080E1CD2B09F480E0AB2B09F0B1
:1007C0008062672B09F08064452B09F08068DF9117
:1007D000CF91099481E0CD2B09F480E0AB2B09F097
:1007E0008260672B09F08460452B89F38860EFCF26
:1007F000DF91CF91089590913B0392FF06C0282F7F
:1008000028712830F9F4877F846093FF06C0282F71
:1008100028712831F1F4877E846120913C0320FF08
:1008200006C0382F38713830D9F4877F816021FFB6
:1008300006C0282F28712831D1F4877E816194FD6C
:10084000877E0895282F24712430F9F68B7F8860E5
:10085000DCCF282F2471243101F78B7E8861DDCF16
:10086000382F3171313019F78E7F8860E0CF282F13
:100870002171213121F78E7E8861E1CFCF93DF9303
:10088000972F70E026E0929F600D711D1124FB01EF
:1008900034E5839FE00DF11D1124EE0FFF1FE25D93
:1008A000FC4FC591D491CE01C03ED10509F46DC075
:1008B00060F5C133D10509F4B2C088F4C932D1055D
:1008C00009F4A6C0CA32D10509F4B0C0C130D105BF
:1008D00049F12497C13AD10508F063C023C0C93358
:1008E000D10509F44BC0C238D10509F447C0C5335E
:1008F000D10509F486C0C83AD10508F09EC0C53AB2
:10090000D10520F3849790640DC0C43ED10509F44D
:100910005BC058F4C23ED10509F446C0C33ED105C0
:1009200009F447C0DF91CF910895C63ED10509F47F
:1009300056C0C73ED10509F459C0C11542E5D407D8
:1009400008F0AEC0C11521E5D20708F014C1C83EB9
:10095000D10540F3C11530E5D30708F086C0C115B5
:1009600040E4D40708F004C1CF3FD10511F008F0EE
:1009700076C09065C03FD105A8F613C020913B0317
:10098000237081F280EE90E0CDCF20913B0320FDDB
:1009900009C130913C0330FFC5CF83EE90E024FFC6
:1009A000C1CF90E080E0BECF20913B0322FDF5CF88
:1009B000B9CF20913B0322FDF8C030913C0330FDBC
:1009C000E1CF24FFAFCFEDCF20913C0321FFAACF91
:1009D00080913B0384FDE5CF87EE90E0A3CF20918B
:1009E0003B0323FF9FCF24FDDCCFF6CF20913B03B9
:1009F00023FDDEC030913C0331FFE3CF84EE90E075
:100A000091CF20913B0325FF8DCF89E290E08ACFE3
:100A100020913B0325FF86CF85E390E083CF209193
:100A20003B0326FF7FCF8AE290E07CCF20913B03FF
:100A300026FF78CF81E390E075CF9E01285A3109D7
:100A40002731310508F0ADCF885AE82FF0E0EE0FDE
:100A5000FF1FE054FE4F80819181946463CFDA954B
:100A6000C115DF4108F45ECF9CCF9E01B4E03695FE
:100A70002795BA95E1F7237086958695837030E2C5
:100A8000839FC0011124922BC37021E030E002C08B
:100A9000220F331FCA95E2F7822B932B9C6842CF1B
:100AA000C11549E5D407B8F5C11528E5D20708F006
:100AB00070C0C11535E5D307F0F4C11544E5D4077E
:100AC00008F062C09C2F96959695AE01437055270D
:100AD00021E030E002C0220F331F4A95E2F740E2E6
:100AE000C115D34508F44CC0949FC0011124822B3A
:100AF000932B9A6817CF95558F3F910511F008F009
:100B000050CF8C2F0E94FB0390E0982F88278827D6
:100B10009F71906207CFC1158CE5D807C0F4C1154D
:100B20009BE5D907D8F5CE0199558F3F910511F076
:100B300008F037CF8C2F8F700E94FB0334E0D695DE
:100B4000C7953A95E1F7CF709C2F9069EBCECE0117
:100B500090568115904208F024CF8D2F8F710E94FE
:100B6000FB0390E0982F882788279F718C2BD1CF8B
:100B70009F70906AD7CE9C2F8827816F906AD2CEC3
:100B8000949FC001112488CF9C2F8827846F906A7E
:100B9000C9CE9C2F8827806F906AC4CECE0199273A
:100BA0009066C0CE89E390E0BDCE82EE90E0BACEF2
:100BB00086EE90E0B7CEE0913903F0913A0330979A
:100BC00021F00190F081E02D099480E008952091BA
:100BD0003703309138032817390771F090933803A1
:100BE00080933703E0913903F0913A03309721F075
:100BF0000680F781E02D0994089520913503309106
:100C000036032817390771F0909336038093350324
:100C1000E0913903F0913A03309721F00084F18597
:100C2000E02D099408958091FE029091FD029813A1
:100C300001C008958F5F8770FACF292F220FE22F0E
:100C4000E90FEE0FE80F8E2F877041E001C0440FCF
:100C50008A95EAF7E695E695E69585E0E89FF00146
:100C60001124E058FD4F30E020E070E05191DF01A9
:100C70001197CB01022E02C0969587950A94E2F750
:100C8000817081958527842385278C932F5F3F4F23
:100C90002530310559F70895292F220FE22FE90F4A
:100CA000EE0FE80F9E2F9770E695E695E69585E0A6
:100CB000E89FF0011124E058FD4F50E040E080E053
:100CC000219130E0092E02C0369527950A94E2F76B
:100CD00021703327042E01C0220F0A94EAF7822BD9
:100CE0004F5F5F4F4530510559F70895BF92CF923E
:100CF000DF92EF92FF920F931F93CF93DF938C01BC
:100D0000C090E702D090E802E090E902F090EA0299
:100D10008091E3029091E402A091E502B091E60295
:100D2000C82AD92AEA2AFB2ACFE1D0E0BC2ED70173
:100D3000C6010C2E04C0B695A795979587950A9481
:100D4000D2F780FD0EC0219788F7B12C8B2DDF9153
:100D5000CF911F910F91FF90EF90DF90CF90BF90B8
:100D60000895B8018C2F0E943E04019761F3EECFE5
:100D7000FF920F931F93CF93DF93FC018281008139
:100D80001181C081F180882311F1662301F1C8012E
:100D90000E947606D82F682FC8010E941D06EC2FEE
:100DA000F0E086E0F89EE00DF11D112484E5D89F67
:100DB000E00DF11D1124EE0FFF1FE25DFC4F859148
:100DC0009491DF91CF911F910F91FF900895C801E9
:100DD0000E944C06D82FE3CFCF93DF93D82FC92F93
:100DE0000E9476066D2F7C2FDF91CF910C943E04EC
:100DF0000E94EC06282F892F8F70392F32953F7073
:100E0000903C80F43A30B0F4343020F4323090F436
:100E100080E008953630E1F781E0283E88F0213FF8
:100E2000B9F70EC03C3011F03F3091F786958695AA
:100E30008695089581E0203F39F018F4283E40F768
:100E40000895243F29F7FCCF08959091100199232C
:100E5000C1F090913B0397FF14C0E82FE695E6950B
:100E6000E695803FF8F4F0E0EE50FE4F877021E009
:100E700030E001C0220F8A95EAF78281822B8283BB
:100E80000895A4EFB1E0EFEF90E02D91821751F0BB
:100E9000EF3F19F4211101C0E92F9F5F9630A9F7A8
:100EA000EF3F09F408950E2E000CFF0BEE50FE4F9D
:100EB000E6CF909110019923E1F090913B0397FFC9
:100EC00018C0E82FE695E695E695803FF0F4F0E04F
:100ED000EE50FE4F877021E030E0A90102C0440FC0
:100EE000551F8A95E2F7CA018095928189238283F2
:100EF0000895E4EFF1E09191891303C0DF011197A8
:100F00001C9251E0EA3FF507B1F708958091E202A3
:100F100081111092E20208958091E0029091E10225
:100F2000892B9091B702892B8093F2019091E20274
:100F30009923A1F0892B8093F201809110018823DD
:100F400041F180913B0387FF24C08EE1E4EFF1E0A3
:100F500090E0815000F591110E948607E0913903DD
:100F6000F0913A033097E1F080911001882359F015
:100F700080913B0387FF07C08091F2018093F301CA
:100F800085E08093F2010280F381E02D82EF91E011
:100F9000099486E0DBCF21912223D9F29F5FD9CF3C
:100FA0000895882339F09091E002892B8093E00224
:100FB0000C948C070895882339F09091E102892BD5
:100FC0008093E1020C948C070895882341F080956A
:100FD0009091E00289238093E0020C948C0708959D
:100FE000882341F080959091E10289238093E1026A
:100FF0000C948C0708959C014FB7F89480917B0264
:1010000090917C02A0917D02B0917E024FBF821B25
:10101000930B08958091B80280FD16C081FD16C023
:1010200082FD18C08091BA02882391F08C3390F42D
:1010300023E2829FC00111246CE370E00E949E2392
:10104000862F672B49F0089588E0089581E108957F
:1010500085E0089583E2089581E008958091B802C3
:1010600080FD16C081FD16C082FD16C08091B902B8
:101070008823A1F0883280F428E0829FC0011124E7
:1010800068E270E00E949E23862F672B39F0089556
:1010900082E0089584E0089588E0089581E008954D
:1010A000803F31F40E940A0881958093BE02089522
:1010B000813F19F40E940A08F8CF823F31F40E9460
:1010C0000A0881958093BD020895833F19F40E9418
:1010D0000A08F8CF893F29F40E942E088093BF02A6
:1010E00008958A3F21F40E942E088195F7CF8B3F07
:1010F00031F40E942E0881958093C00208958C3FA0
:1011000019F40E942E08F8CF843F31F48091BC027C
:1011100081608093BC020895853F21F48091BC02D8
:101120008260F7CF863F21F48091BC028460F1CFCA
:10113000873F21F48091BC028860EBCF883F21F487
:101140008091BC028061E5CF8D3F31F48091B8027F
:1011500081608093B80208958E3F21F48091B80297
:101160008260F7CF8F3FB9F78091B8028460F1CFEA
:101170009091BD02803F59F48091BE0287FF0DC05F
:101180001092BE0291110BC01092BA0208C0813FAA
:1011900081F48091BE0218169CF3992381F080910E
:1011A000BF029091C002892B09F064C01092B9026D
:1011B0000895823F49F497FFF0CF1092BD028091CD
:1011C000BE028111ECCFE0CF833F19F41916ACF3C6
:1011D000E4CF2091BF02893F29F41216F4F6109251
:1011E000BF02DBCF8A3F19F427FFD7CFF8CF20917A
:1011F000C0028B3F29F427FFD0CF1092C002CDCF81
:101200008C3F19F41216CCF3C8CF843F31F480918F
:10121000BC028E7F8093BC02C0CF853F21F48091B9
:10122000BC028D7FF7CF863F21F48091BC028B7F7B
:10123000F1CF873F21F48091BC02877FEBCF883FBD
:1012400021F48091BC028F7EE5CF8D3F31F48091F7
:10125000B8028E7F8093B802A0CF8E3F21F4809198
:10126000B8028D7FF7CF8F3F09F097CF8091B802FA
:101270008B7FF0CF0895809176020895FC01CB0119
:1012800020912402309125022617370790F000970D
:1012900029F42091E8002E772093E80040E00097A1
:1012A00051F4411108C08091E80082FF31C080E014
:1012B0000895C901F3CF209155022223A9F12530C9
:1012C000A9F12091E80023FD2DC02091E80022FD26
:1012D000EACF2091E80020FFE2CF3091F300209187
:1012E000F200009719F02830310558F041E028301D
:1012F000310509F040E02091E8002E772093E800C6
:10130000CECF41914093F10001972F5F3F4FE9CF3E
:1013100080915502882341F0853041F08091E800AA
:1013200083FFC1CF81E0089582E0089583E00895AE
:1013300080911E0287FF13C08091E80082FF06C0E3
:101340008091E8008B778093E80004C0809155027B
:101350008111F2CF0895809155028823D9F38091AD
:10136000E80080FFF8CF8091E8008E77ECCF2091E5
:10137000E4003091E50095E6A9012091EC00822F70
:10138000817020FF06C08091E80080FF06C080E0E9
:1013900008952091E80022FD1AC08091550288230B
:1013A00089F0853089F08091EB0085FD0FC0209198
:1013B000E4003091E50042175307F9F29150E1F64D
:1013C00084E0089582E0089583E0089581E008951F
:1013D000E8EDF0E080818E7F80831092E200109231
:1013E000DA001092E100A0EEB0E08C9181608C9365
:1013F00080818F77808319BCA7EDB0E08C918E7FC0
:101400008C9380818F7E808310921D020895EF92CD
:10141000FF920F931F93CF937C018B010E94B7091A
:10142000C82F811117C08091E80085FD0BC0809105
:10143000E8008E778093E8000E94B709882399F32B
:10144000C82F08C0F70181917F018093F1000150FE
:10145000110949F78C2FCF911F910F91FF90EF90B9
:101460000895982F9093E900242F762F50E0891744
:1014700031F07091EC002091ED005091F00021FDD1
:1014800006C09F5F973071F78093E900089530910F
:10149000EB003E7F3093EB003091ED003D7F3093C9
:1014A000ED003091EB0031603093EB007093EC0075
:1014B0002093ED005093F0002091EE0027FDE1CF46
:1014C0000895CF92DF92EF92FF920F931F93CF93E5
:1014D000DF93C8EDD0E088818F7E8883E7EDF0E070
:1014E00080818160808384E082BF81E080931D02DF
:1014F00088818E7F888302EE10E0F80110821092BE
:10150000DA0081EEC82ED12CF601108288818F7707
:10151000888388818068888388818F7D888319BCCF
:101520001092550210921C021092540210921B024B
:1015300090EEE92EF12CF70180818B7F80838881EA
:101540008160888342E060E080E00E94310AF60119
:1015500080818E7F8083F80180818160808380819B
:1015600088608083F70180818E7F8083888180619D
:101570008883DF91CF911F910F91FF90EF90DF90C3
:10158000CF900895CF93DF93873058F58091110164
:1015900090911201C0E0892B71F464E670E081E45F
:1015A0000E94D7229093120180931101892B39F068
:1015B000C0E00E9486238C2FDF91CF91089584E6AE
:1015C00090E00E946223EC0197FF05C09093120106
:1015D00080931101EDCFC09510921201109211016C
:1015E000E8CFCFB12FB1269526952C73C3702C2B45
:1015F000C22FC095E0CFCF93C82F873070F5809170
:10160000110190911201892B99F564E670E080E454
:101610000E94D7229093120180931101892BD1F45B
:1016200064E670E082E10E9433239093120180937C
:101630001101892B79F481E090E001C0880FCA95EF
:10164000EAF764E670E080950E94332390931201DC
:1016500080931101CF910C9486238B30C9F050F404
:10166000893081F08A3089F0883049F0209A2898B2
:10167000CF9108958C3079F4539A5B98F9CF219AE1
:101680002998F6CF229A2A98F3CF239A2B98F0CF55
:10169000529A5A98EDCF3E9A4698EACF0E942B0371
:1016A0000E942E030E9431030E9434038FEF90E0CA
:1016B000909389008093880090938B0080938A0098
:1016C00090938D0080938C000E9422032FEF80E77F
:1016D00092E0215080409040E1F700C000000E945D
:1016E00025032FEF80E792E0215080409040E1F702
:1016F00000C000000E9428032FEF80E792E02150F5
:1017000080409040E1F700C000000E942E032FEFC0
:1017100080E792E0215080409040E1F700C0000057
:101720000E9431032FEF80E792E0215080409040EB
:10173000E1F700C000000E9434030E942B030E94C6
:101740002E030E9431030C943403CF93DF93D82FE0
:10175000C92F809110018823C1F180913B0387FF3D
:1017600034C060E282E08093E9008FEF9091E8005E
:10177000815095FD06C095ED9A95F1F70000811115
:10178000F5CF8091E80085FF1DC08091100170E0C9
:1017900050E040E0811104C050E040E068E070E0BB
:1017A0008D2F9C2F0E94070A8091E8008E778093EE
:1017B000E80080E2ED2FFC2FA6E5B2E001900D924B
:1017C0008A95E1F7DF91CF91089568E081E0CBCF72
:1017D00022E02093E9002FEF3091E800215035FD01
:1017E00006C035ED3A95F1F700002111F5CF2091B3
:1017F000E80025FF0BC050E040E066E070E00E948A
:10180000070A8091E8008E778093E8000895CF93CF
:10181000DF9300D00F92CDB7DEB790915502943090
:1018200019F589836A837B8382E08093E9008FEFD7
:101830009091E800815095FD06C095ED9A95F1F7DD
:1018400000008111F5CF8091E80085FF0DC050E0C8
:1018500040E063E070E0CE0101960E94070A8091AB
:10186000E8008E778093E8000F900F900F90DF9143
:10187000CF910895BC0183E00C94070CBC0184E077
:101880000C94070C80E290E0909312018093110178
:1018900080913D0381110EC00E94D12281E080938E
:1018A0003D032FEF83ED90E3215080409040E1F71E
:1018B00000C0000064E670E080E40E94D7229093AC
:1018C000120180931101892B09F04EC064E670E08B
:1018D00080E00E9433239093120180931101892BA1
:1018E00009F042C064E670E080E00E9433239093E8
:1018F000120180931101892BB9F564E670E08FE342
:101900000E9433239093120180931101892B61F57A
:101910000E94862364E670E080E40E94D7229093C0
:10192000120180931101892BF9F464E670E08CE0D8
:101930000E9433239093120180931101892BA1F40B
:1019400064E670E080E00E9433239093120180935C
:101950001101892B49F464E670E08FE30E94332380
:1019600090931201809311010E94862380911101AE
:1019700008956CEE7EEF90E080E00E94622460E0CB
:1019800082E090E00E94442460E083E090E00E94C6
:1019900044241092E3021092E4021092E5021092A5
:1019A000E60260E084E090E00E94442460E081E28E
:1019B00090E00E94442460E085E090E00E9444248E
:1019C00060E086E090E00E9444246FEF87E090E0C2
:1019D0000E94442440E050E0BA0188E090E00E9478
:1019E000562460E08DE090E00E94442440E050E006
:1019F000BA0188E190E00E94562460E087E190E01F
:101A00000E94442440E050E0BA018CE190E00E9442
:101A1000562460E080E290E00E94442440E050E0E0
:101A2000BA0188E190E00E9456241092D4021092EC
:101A3000D5021092D6021092D70284E08061809382
:101A4000D40244E150E060E070E08FE090E00E945A
:101A5000562440E050E0BA0183E190E00C94562413
:101A6000CF9384E090E00E943024C82F81E290E080
:101A70000E943024982F8C2FCF9108951F921FB66B
:101A80001F9211248F939F93AF93BF9380917F02F6
:101A9000811113C080917B0290917C02A0917D0204
:101AA000B0917E024196A11DB11D80937B0290935F
:101AB0007C02A0937D02B0937E02BF91AF919F9173
:101AC0008F911F901FBE1F9018952FB7F89480918B
:101AD0007B0290917C02A0917D02B0917E022FBF8B
:101AE00008950E94650D2091BD023091BE02232B06
:101AF00021F08093790290937A022091BF02309175
:101B0000C002232B21F08093770290937802E0911A
:101B10003903F0913A03309749F082E08093BB0299
:101B20000480F581E02D8BEB92E009940895CF932A
:101B3000C82F882309F4AEC08238C1F40E94DB05A7
:101B400081FDA8C089E30E9425070E948C072FEF22
:101B500031EE84E0215030408040E1F700C00000C9
:101B600089E30E945907CF910C948C078338A1F424
:101B70000E94DB0580FD8EC083E50E9425070E9440
:101B80008C079FEF21EE34E0915020403040E1F788
:101B900000C0000083E5E5CF8438A1F40E94DB0596
:101BA00082FD78C087E40E9425070E948C078FEF92
:101BB00091EE24E0815090402040E1F700C0000009
:101BC00087E4CFCF8CEF8C0F813A90F58091100194
:101BD000882301F180913B0387FF1CC0EC2FE69521
:101BE000E695E695F0E0EE50FE4F828190E04C2FB6
:101BF000477021E030E002C0220F331F4A95E2F720
:101C000082239323892B81F08C2F0E9459070E94F5
:101C10008C070AC0E4EFF1E08AEF91E02191C2174E
:101C200099F38E179F07D1F78C2F0E9425079BCF22
:101C300080E28C0F883068F4C77021E030E001C08A
:101C4000220FCA95EAF78091E002822B8093E0028E
:101C50008ACF8BE58C0F833038F42C2F2452330B32
:101C6000C901CF910C94E705E8E5EC0FE73150F49A
:101C7000F0E0EE0FFF1FE054FE4F80819181CF9185
:101C80000C94FD05C03F30F08C2F0E945008CF917E
:101C90000C94710DCF910895CF93DF93EC01805E8A
:101CA0009109089720F06BED77E0209711F461ED32
:101CB00077E0CE010E94C4038C2FDF91CF910C946A
:101CC000970D882309F459C0823871F40E94DB050E
:101CD00081FF53C089E30E9425070E948C0789E396
:101CE0000E9459070C948C07833859F40E94DB0535
:101CF00080FF43C083E50E9425070E948C0783E58F
:101D0000EFCF843859F40E94DB0582FF36C087E4A8
:101D10000E9425070E948C0787E4E2CF9CEF980F72
:101D2000913AF0F290E2980F983088F4877021E0B1
:101D300030E0A90102C0440F551F8A95E2F7CA019D
:101D400080959091E00289238093E002CBCF9BE5C0
:101D5000980F933020F490E080E00C94E70598E52C
:101D6000980F973120F490E080E00C94FD05803FBF
:101D700020F00E94B8080C94710D0895CF93DF9362
:101D8000EC010E94610ECE01805E9109089720F05F
:101D900060EF77E0209711F465EE77E0CE01DF91F8
:101DA000CF910C94C403CF93C82F0E94970DC933D1
:101DB00049F42FEF87EE93E0215080409040E1F707
:101DC00000C000008C2FCF910C94610EFF920F93F6
:101DD0001F93CF93DF93E82FF0E0E255FD4FF4908F
:101DE000C82FC695C695C695D0E0FE01E256FD4FB8
:101DF0000491877010E0082E02C0159507950A948B
:101E0000E2F701701127C257DD4FFE01C491D0E007
:101E100002C0D595C7958A95E2F7C170DD270115F7
:101E2000110519F081EE0E94970D209719F086EEAA
:101E30000E94970D8F2D0E94D30ECD2B19F086EEA8
:101E40000E94610E012B41F081EEDF91CF911F9135
:101E50000F91FF900C94610EDF91CF911F910F9124
:101E6000FF900895FF920F931F93CF93DF938C0100
:101E70008AE0F82EF8018491882309F44CC081305F
:101E800009F045C0E8012196FE018491813049F4B2
:101E90002196FE0184910E94D30E8E010F5F1F4F89
:101EA000E9CF823039F4E8012296FE0184910E9444
:101EB000970DF3CF833039F4E8012296FE01849127
:101EC0000E94610EEACF843041F7E8012296FE01BC
:101ED000249180E090E0FE0131962053330B2A30AC
:101EE000310550F00097C9F2EFE9FFE03197F1F7C3
:101EF00000C000000197F6CFF89EA001F99E500D9A
:101F00001124C901840F951F2491EF01E4CF0E9491
:101F1000E60EE801C2CFDF91CF911F910F91FF90A4
:101F200008951092E1021092B7020E948C0786E099
:101F3000EBEBF2E0DF011D928A95E9F71092BA020D
:101F40001092B9021092B8020E94710D90E080E0E8
:101F50000E94E70590E080E00C94FD051092E002FD
:101F600080911001E4EFF1E0882359F080913B0368
:101F700087FF07C08EE1DF011D928A95E9F70C9477
:101F8000910F86E0F8CF1F93CF93DF93CDB7DEB7E5
:101F9000AA970FB6F894DEBF0FBECDBF8EE192E0D8
:101FA000FC0101962091F100208322E08632920705
:101FB000B9F780911F02893009F456C0C8F4823005
:101FC00009F4B1C0833009F480C0813071F180918F
:101FD000E80083FF78C280911E0290911F029A3020
:101FE00008F071C2E92FF0E0EF51F64D0C94D123C7
:101FF0008A3009F487C08B3051F780911E028132FC
:1020000031F78091220290912302892B01F7809170
:10201000E800877F8093E8000E9498098091200261
:10202000809310010E94AE0FD2CF80911E02813AA0
:1020300071F68091E800877F8093E800809122020A
:1020400090912302892B61F460E286E592E070E0D2
:102050000E943E098091E8008B778093E800B7CF1B
:1020600060E090E080E0F3CF80911E02813209F0C1
:10207000AECF8091220290912302029708F0A7CF61
:102080008091E800877F8093E8008091E80082FFDC
:1020900017C09091F3008091F200029729F480918B
:1020A000F1008B7F813021F48091F10080937602E2
:1020B0008091E8008B778093E8000E94980987CF91
:1020C000809155028111E1CF82CF80911E02813A29
:1020D00009F07DCF8091220290912302892B09F093
:1020E00076CF8091E800877F8093E8008091E800B8
:1020F00080FFFCCF809110018093F1008091E80077
:102100008E77D9CF80911E02813209F060CF809105
:10211000E800877F8093E8000E949809809121025F
:1021200080931A0254CF80911E02813A09F04FCF5A
:102130008091E800877F8093E8008091E80080FF2D
:10214000FCCF80911A02D8CF803899F0823809F0FC
:10215000BAC1809122028F70873008F0B4C1809399
:10216000E9008091EB0085FB882780F91092E90057
:1021700006C080911B02909154029111826090914F
:10218000E800977F9093E8008093F1001092F100AF
:102190008091E8008E7793C1882309F481C1823051
:1021A00009F091C180912002811184C180912202A5
:1021B0008F702FEF280F263008F085C18093E9003B
:1021C0002091EB0020FF76C1933031F48091EB0039
:1021D00080628093EB006EC19091EB0090619093D0
:1021E000EB0021E030E001C0220F8A95EAF720934E
:1021F000EA001092EA008091EB008860EACF81113A
:1022000062C1109120021F778091E3008078812BBA
:102210008093E3008091E800877F8093E8000E942C
:1022200098098091E80080FFFCCF8091E3008068EE
:102230008093E30082E0111183E08093550243C153
:102240008058823008F03FC1409120025091210215
:102250004C3D83E0580799F583E08A838AE28983BD
:102260004FB7F894DE01139620E03EE051E2E32FF1
:10227000F0E050935700849120FF03C082958F7047
:102280003F5F8F708A30C8F0895C90E08D939D939A
:102290002F5F243161F74FBF8091E800877F8093E3
:1022A000E8006AE270E0CE0101960E943E0980914A
:1022B000E8008B778093E80006C1805DE6CF20912F
:1022C000220230912302852F99278330910509F14D
:1022D00060F48130910509F472C0029709F0F3C0EF
:1022E0008BE390E0E8EAF1E029C08132910509F43E
:1022F0005AC0829709F0E7C02115310509F469C079
:102300002130310509F0DFC08CEB90E0ECEAF0E021
:1023100015C0CA0199274130B1F18230910509F405
:102320003AC0892B09F0CFC0E7E3F2E0E4918E2FA9
:1023300090E0E7E3F2E0009709F4C5C02091E800DF
:10234000277F2093E80020912402309125028217F4
:10235000930708F49C0140E02115310509F03EC0C7
:1023600041113CC08091E80082FDA1CF80915502CF
:10237000882309F49CCF853009F499CF8091E80037
:1023800083FFF0CF94CFEDE0F2E0E4918E2F90E068
:10239000EDE0F2E0D0CFE5EFF1E0E4918E2F90E0B8
:1023A000E5EFF1E0C8CF2115310571F0213031059D
:1023B00009F089C089E090E0E3EDF1E0BFCF82E170
:1023C00090E0E3EEF1E0BACF89E090E0EAEBF1E0F3
:1023D000B5CF80E490E0E8E6F1E0B0CF809155021F
:1023E000882309F464CF853009F461CF8091E80037
:1023F00083FD5DCF8091E80082FDB4CF8091E8003D
:1024000080FFAACF9091F3008091F2002115310551
:1024100019F08830910550F041E0089709F040E04C
:102420008091E8008E778093E80096CF44914093A6
:10243000F1003196215031090196E8CF803809F03A
:1024400042C08091E800877F8093E80080911C0261
:102450008093F1009DCE811136C010912002123080
:1024600090F58091E800877F8093E80010931C022C
:102470000E949809112311F084E005C08091E300C7
:1024800087FDFACF81E08093550242E061EC81E064
:102490000E94310A42E261EC82E00E94310A13C0DC
:1024A00080912002813079F481E0933009F080E05E
:1024B000809354021092E9008091E800877F809316
:1024C000E8000E9498098091E80083FF0AC080918B
:1024D000E800877F8093E8008091EB008062809322
:1024E000EB00AA960FB6F894DEBF0FBECDBFDF910A
:1024F000CF911F9108956093E3027093E40280935B
:10250000E5029093E6020C94910F0E9437036093CA
:10251000E7027093E8028093E9029093EA020C9438
:10252000910F0F931F93CF93DF9300D000D0CDB7BF
:10253000DEB741E050E060E070E004C0440F551F9A
:10254000661F771F8A95D2F78091E7029091E80283
:10255000A091E902B091EA028A019B01082B192B94
:102560002A2B3B2B09831A832B833C83C901B80197
:102570000F900F900F900F90DF91CF911F910F91BF
:102580000C9485120F931F93CF93DF9300D000D04C
:10259000CDB7DEB741E050E060E070E004C0440F2A
:1025A000551F661F771F8A95D2F740955095609505
:1025B00070958091E7029091E802A091E902B091B4
:1025C000EA028A019B01082319232A233B2309835A
:1025D0001A832B833C83C901B8010F900F900F9091
:1025E0000F90DF91CF911F910F910C9485129091D4
:1025F000EC02809589238093EC02282F277071F4D8
:10260000282F082E000C330B9217130639F08595EE
:10261000859585950E94C2121092EC020895FF9252
:102620000F931F93CF93DF93C62FD42F122F88239E
:10263000A9F06093DE020E94650D909319028093C9
:102640001802C77081E001C0880FCA95EAF7DF91D0
:10265000CF911F910F91FF900C94D1078091DE02D2
:10266000681334C080911802909119020E94FB07F0
:10267000883C910558F500E20D0FCD17A9F0C77001
:10268000FF24F3948F2D01C0880FCA95EAF70E94AA
:10269000E507083048F48D2F877001C0FF0C8A953C
:1026A000EAF78F2D0E94D107812F0E94D30E0830A8
:1026B000A0F4D77081E001C0880FDA95EAF7DF91C6
:1026C000CF911F910F91FF900C94E507C77081E0A7
:1026D00001C0880FCA95EAF7F2CFDF91CF911F9121
:1026E0000F91FF9008954F925F926F927F928F9219
:1026F0009F92AF92BF92CF92DF92EF92FF920F9391
:102700001F93CF93DF9300D000D000D00F92CDB7AE
:10271000DEB77C01DC0113968D919C911497892B77
:1027200041F011968C9111979C9189238F3F09F06C
:102730003DC627960FB6F894DEBF0FBECDBFDF9122
:10274000CF911F910F91FF90EF90DF90CF90BF90AE
:10275000AF909F908F907F906F905F904F90089573
:102760002D813E8190E080E02F3F310511F008F08F
:102770003EC68D819E813BC66D807E802DE26216B5
:102780002DE5720609F44DC070F44CE264164DE577
:10279000740609F0E9C6882309F4E6C687E792E0E3
:1027A0000E94320FE1C66D807E802EE262162DE51A
:1027B0007206E9F13FE263163DE5730609F0D4C6FF
:1027C000882309F4D1C68091C3021F928F9383E1BD
:1027D00091E09F938F9384EC92E09F938F930E945C
:1027E0003E270F900F900F900F900F900F9004ECDA
:1027F00012E02AE0D22ED8018C91882309F4B4C6C5
:10280000813009F051C011969C91119712968C91CC
:10281000913099F40E5F1F4F0E94D30E0F5F1F4F30
:10282000EACF882309F4A0C68AE592E0B9CF8823CD
:1028300009F49AC68BE392E0B3CF923029F40E5F8D
:102840001F4F0E94970DEACF933029F40E5F1F4F60
:102850000E94610EE3CF943019F00F5F1F4FDECF5F
:102860000E5F1F4F20E030E0A8014F5F5F4F8053A5
:10287000990B8A30910560F02115310579F28FE9C5
:102880009FE00197F1F700C0000021503109F4CF1B
:10289000D29EB001D39E700D11249C01260F371FCC
:1028A000F80181818A01E0CF0E94E60EB7CF843023
:1028B00059F18FE39CE90197F1F700C00000CD804A
:1028C000DE80E894D7F89CE0A92EB12C86010A2C72
:1028D00002C0169507950A94E2F70F70A9F10A3025
:1028E000C0F4035E10E017C088E193E00E944C0E34
:1028F00088E193E00E94BE0EDCCF82EE0E94970D2D
:1029000087E50E94D30ED5CF86EE0E94D30E88E1D4
:10291000F8CF0650110BC8010E944C0EC8010E944E
:10292000BE0E94E0A91AB108ACEFAA16AFEFBA0632
:1029300069F68091DA02823019F040F4811148C0C2
:1029400082EE0E94610E05C007E2CCCF843009F40C
:102950004BC08091D8028093E002D70112968C91EF
:10296000882309F448C61092DE026D807E8026E13D
:1029700062162CE5720608F0A3C032E063163CE54F
:10298000730608F46DC10E94300D90933C03809350
:102990003B036D807E8026E162162CE5720608F00E
:1029A000BDC032E063163CE5730608F0A9C0609133
:1029B0003B0360903C03698284E090E00E944424E1
:1029C000698181E290E00E9444240E94AE0F30C0F1
:1029D0008CE20E94D30E8091D902882309F4B9CFEA
:1029E00089E30E94D30EB5CF88E2FBCF6D807E8055
:1029F00024EF62162CE5720609F45AC0E0F549EDA1
:102A000064164CE5740609F44FC028E241E05AED23
:102A100065165CE5750609F449C026E241EE61EEF3
:102A200098ED69169CE5790609F097CF0E940F137F
:102A30008091EC02877009F47CCEF70182818823B3
:102A400009F477CE82E027960FB6F894DEBF0FBE6A
:102A5000CDBFDF91CF911F910F91FF90EF90DF904D
:102A6000CF90BF90AF909F908F907F906F905F902E
:102A70004F900C94F7126D807E8026EF62162CE545
:102A80007206D1F027E245EE66EE37EF63163CE5BD
:102A9000730661F245EF64164CE5740609F05DCFEC
:102AA00027E245EE64EEC2CF27E245EE65EEBECFEB
:102AB00026E241EE60EEBACF26E241EE62EEB6CFFC
:102AC0002D813E812B5F3C452930310508F45BCFD9
:102AD0006D807E8026E162162CE5720609F0C0C08A
:102AE0008091E0028A7A91E009F490E09093DF020D
:102AF0008111B2C089E20E9425070E948C0798CFFD
:102B0000ED81FE81E350FC4580913B038160E33120
:102B1000F105D0F4E551F64D0C94D1232D813E8181
:102B20002B5F3C453A8329832930310508F03FCF9C
:102B300049815A814250564D5A834983FA010C9477
:102B4000D12380913B03826080933B0330CF8091FF
:102B50003B038460F9CF80913B038860F5CF80917F
:102B60003C03816080933C0322CF80913C038260D0
:102B7000F9CF80913B038061E7CF80913B03806276
:102B8000E3CF80913B038064DFCF0E94AE0F809142
:102B90003B038068D9CF80913B038C60D5CF809177
:102BA0003C038360DFCF80913B038E7FCDCF80914C
:102BB0003B038D7FC9CF80913B038B7FC5CF809135
:102BC0003B03877FC1CF80913C038E7FCBCF809129
:102BD0003C038D7FC7CF80913B038F7EB5CF809123
:102BE0003B038F7DB1CF80913B038F7BADCF0E94A4
:102BF000AE0F80913B038F77A7CF80913B03837FFC
:102C0000A3CF80913C038C7FADCF80913B0382FBAF
:102C1000992790F921E0922790FB82F990FB83F9A4
:102C200093CF80913C03982F909591708E7F892B44
:102C300090FB81F997CF0E94AE0F90913B03892FB3
:102C400097FB87F9805880CF61E08EE090E00E948A
:102C50004424ADCE60E0F9CF85E34DCF85E3D8C401
:102C60008D809E8081142CE5920609F44EC03FEDC4
:102C700083163CE5930609F485C0D7010D911C919C
:102C8000882309F482C0C8010E9476068983682FD0
:102C9000C8010E941D06B80189810E943E048D83EF
:102CA000192FF701058102950F7062806F82611004
:102CB0001092E1028091EC028770C9F07F8077204A
:102CC000B1F0812F807F803449F09D81905E9830F3
:102CD00070F0803619F42D81263F49F082E00E9481
:102CE000F7128091EC028770BB24B3948111B12C50
:102CF000812F82958F70C82ED12C8C3008F082C025
:102D0000F601E95FF54D0C94D1230E94AE0F4FEF11
:102D100054E38CE0415050408040E1F700C0000097
:102D2000F89481E08093E00080E28093D8001092D4
:102D3000C900AFE1BEE41197F1F700C000001DBA71
:102D4000109268001CBC10BE1FBA10927A0010923C
:102D50006E0010926F00109271001092720010922B
:102D6000C9001092BC0014B817B81AB81DB810BA30
:102D70001092BC0015B818B81BB81EB811BA0C9444
:102D8000003F56CE0E94B90C53CEC8010E944C069B
:102D9000898381CF012F0F70812F807F11F00295E1
:102DA000007F6F806620D1F0002371F08D81805EFE
:102DB000883018F07D8071100BC08091E002082BE4
:102DC0000093E0020E948C078D810E94970D1AC02B
:102DD0008091E102082B0093E102F4CF8D810E94E3
:102DE000610E002379F000958D81805E883018F0A7
:102DF0008D80811053C08091E00208230093E0028F
:102E00000E948C0728E0C21AD10834E0C316D1040E
:102E100010F40E94DB056F80662071F0107F103681
:102E200019F42D81263F41F08091EB02823009F0A8
:102E3000B5C283E08093EB02BB20B1F08091EC023D
:102E400080FD12C0D70112961C92859585958595B7
:102E50000E949112C7010E9473138091EC02859524
:102E6000859585950E94C21260E0C70127960FB62E
:102E7000F894DEBF0FBECDBFDF91CF911F910F91B0
:102E8000FF90EF90DF90CF90BF90AF909F908F908A
:102E90007F906F905F904F900C94B8068091E10204
:102EA00008230093E102ACCF212F2F70A22E812F97
:102EB000807F803219F0A29480EFA8226D80662076
:102EC00049F0262D213031F18F80882071F10023C7
:102ED00039F17ACF6F80662089F09091E2028A2DD5
:102EE000892B011103C00E94D1078CCF0130D9F783
:102EF000891709F487CF8093E20284CF011106C0BD
:102F00000E9486078A2D0E94E5077CCF013009F4D4
:102F100079CFF6CF7F80772029F0023008F072CF8A
:102F20008A2DE1CF01116ECFEDCF002359F32D8112
:102F3000293349F43FEF47EE53E0315040405040D1
:102F4000E1F700C000008D810E94610E5BCF812FF0
:102F500086958695837071F0813009F053CF7F801C
:102F60008D81912F9370711002C090E080E00E94DB
:102F7000FD0548CF6F808D81912F9370611002C045
:102F800090E080E00E94E7053DCF8F808D81882012
:102F900029F00E9450080E94710D34CF0E94B80899
:102FA000FACF812F837009F07EC09F8091102ACFC5
:102FB0009D81929596959770292F220F220F8D81D2
:102FC0008F7090E0B0E0A0E02C013D01022E04C023
:102FD000440C551C661C771C0A94D2F78D8080E047
:102FE00090E0DC0184FE0FC08FE090E0A0E0B0E054
:102FF00004C0880F991FAA1FBB1F2A95D2F780957E
:103000009095A095B095212F269526952370223076
:1030100051F12330D9F14091E3025091E4026091E3
:10302000E5027091E602213099F084299529A629BC
:10303000B7293C014D0164227522862297226982BC
:103040007A828B829C82C401B3010E947B12DACE09
:1030500044295529662977293A014B01682A792A9A
:103060008A2A9B2AECCF84299529A629B729409141
:10307000E3025091E4026091E5027091E6023C01A6
:103080004D016426752686269726D9CFA301920185
:10309000282B392B4A2B5B2B29833A834B835C8368
:1030A000CA01B901D2CF6F80662009F452C010FF67
:1030B000A9CE9D81929596959770292F220F220F68
:1030C0008D818F7090E0B0E0A0E02C013D01022ED8
:1030D00004C0440C551C661C771C0A94D2F78D80E2
:1030E00080E090E0DC0184FE0FC08FE090E0A0E083
:1030F000B0E004C0880F991FAA1FBB1F2A95D2F702
:1031000080959095A095B095212F269526952370B2
:10311000223069F12330F1F14091E7025091E80249
:103120006091E9027091EA022130B1F08429952979
:10313000A629B7293C014D016422752286229722D7
:1031400069827A828B829C82C401B3010E948512BB
:1031500059CE11FF57CEADCF44295529662977297D
:103160003A014B01682A792A8A2A9B2AE9CF8429C5
:103170009529A629B7294091E7025091E80260916C
:10318000E9027091EA023C014D016426752686260B
:103190009726D6CFA3019201282B392B4A2B5B2BE4
:1031A00029833A834B835C83CA01B901CFCF012FB6
:1031B0000F706F80662029F0802F0E9491128D8100
:1031C00092CE8D810E94E507802F0E94C2121ACEF6
:1031D0002D81223F09F445C068F4203F11F1213FC1
:1031E000B9F16F80662009F463C00111EDCD812F24
:1031F0008F7134C03D81333FD1F1343F91F77F80EF
:10320000772009F44BC0012F0F71802F0E9491127B
:1032100028E0029FC001112483608093EC02802F7C
:103220001DC06F80662081F00111ECCD212F2F7120
:1032300081E090E0A0E0B0E004C0880F991FAA1FD1
:10324000BB1F2A95D2F797CF023008F0DBCDEECF27
:10325000812F8F717F80772009F4B7CF0E94911260
:10326000D1CD812F8F718F808820C1F3AECF9F8009
:1032700060E070E0CB01992009F468CF812F8F7155
:1032800041E050E060E070E03A014B0104C0660CA0
:10329000771C881C991C8A95D2F752CF81E00E9436
:1032A000F712023008F4AECD82E00E94F712AACDE8
:1032B00001113DCE812F8F7188CFED81E05FE73026
:1032C00008F045C0F0E0ED5EF54D0C94D1236F8021
:1032D000662009F497CD8091FC0291E089278093C4
:1032E000FC0290CD7F807092FC028CCD81E08F80BB
:1032F0008825F5CF9F80911085CD81E0F0CF6F803C
:10330000611080CD1092FC027DCD7F80772021F06E
:1033100082E08093EB02F1CF8091EB02823021F4C6
:1033200081E08093EB026ECD833009F06BCD10927B
:10333000EB02E8CF8F80882039F08091ED0288235E
:1033400051F21092ED025ECD002329F25BCD809107
:10335000ED020023B1F0882341F08091FC0291E05E
:1033600089278093FC021092ED029F808D8191103D
:103370002CCD0E94610E86E0D7011D928A95E9F757
:1033800041CD882309F43ECD6F8061103BCD809103
:10339000FC0291E089278093FC02D3CF813009F0B1
:1033A0004BCD1092EB021092FC0246CD61E0C701BA
:1033B0000E94B8068D839E83F7018281882309F4D9
:1033C00086C08D819E8190568115904268F08D81D6
:1033D0009E8190548115904138F08D819E819A95FF
:1033E00081159F4108F0BCC98D819E8199279C0160
:1033F000245031092432310520F08B970E9708F0C4
:1034000066C08091C1029091C202009709F459C030
:103410000E94FB070091C30210E09C0150E040E0D5
:1034200060E67AEE80E090E00E94B223CA01B90122
:1034300025E030E040E050E00E94B22330E0201B65
:10344000310BC901330FAA0BBB0B89839A83AB8362
:10345000BC83BC01CD010E94162527EA39E747E469
:103460005DE369837A838B839C8369817A818B8115
:103470009C810E94A2255B016C013801110F880814
:10348000990869827A828B829C82C401B3010E946E
:1034900016259B01AC01A982BA82CB82DC826981AC
:1034A0007A818B819C810E94792469837A838B83C2
:1034B0009C8369817A818B819C810E94E524609341
:1034C000C3020E94650D9093C2028093C102D7018E
:1034D00012968C916D807E8029E262162DE572062F
:1034E00009F04AC9882309F43FC08091D40291E0D1
:1034F000980F9770887F953008F4892B8093D402B9
:103500008091D40287703FEF839FC001112495956D
:103510008795959587959927909389008093880042
:1035200090938B0080938A0090938D0080938C0001
:103530004091D4025091D5026091D6027091D70289
:103540008FE090E00E9456248091E7029091E8027B
:10355000A091E902B091EA0289839A83AB83BC838C
:10356000BC01CD010E943703D70112968C918823AC
:1035700071F08D819E81825E9C45059740F46D813E
:10358000625E6093DA028CE090E00E944424F701CE
:1035900082816D807E8077FE29CA882309F4DDC987
:1035A000E0913903F0913A0380E0309721F00190E7
:1035B000F081E02D0995869581708093D9029091D4
:1035C000DA02913029F4882319F089E30E94D30E9E
:1035D0008091E0028093D8021092E0028091DA029A
:1035E000823009F48AC908F062C981117DC982EE6E
:1035F0000E94970D5EC96D807E8026E162162CE5E3
:10360000720609F03ACB8091DF02811127CB89E263
:103610000E94590772CA1F93CF93DF93809134039E
:10362000807FA9F480913103882389F08091FE0284
:10363000C091FD0270912F0360913003A09132037D
:10364000B0913303D62FD72316E0C81304C0DF91FF
:10365000CF911F91089590E0109711F0DF3F19F47A
:1036600001968770F2CF189F9001199F300D112499
:10367000F901E150FD4F41816413F2CF40814713BE
:10368000EFCF42814111ECCF438154814A1B5B0B48
:10369000483C510528F7809134038F7080618093F6
:1036A0003403F901EC5FFC4F80818F70806180836F
:1036B0008FE293E00E947313DF91CF911F910C94DE
:1036C0001306AF92BF92CF92DF92EF92FF920F93C9
:1036D0001F93CF93DF93CDB7DEB72B970FB6F89438
:1036E000DEBF0FBECDBF8C0185E0F801DE0117966D
:1036F00001900D928A95E1F7F80180819181E28035
:103700002FE2A22E23E0B22E609132037091330398
:103710006115710549F030912F0340913003232F3B
:1037200024232F3F09F034C1EE2009F441C18F83D7
:1037300098878F8198850E94F806F82E882309F4CF
:1037400037C186E0F801AFE2B3E001900D928A95AF
:10375000E1F780912F03909130030E94EC0692953F
:103760009F70963051F4863F41F08091FC0291E0C9
:1037700089278093FC029093ED020E940B1B1DC0D1
:1037800020913403522F507F683C710508F0A5C08A
:103790005111C3C0FE2C491322C0381320C0E110C0
:1037A0001EC02F702061209334038FE293E00E94AB
:1037B000731380913403F80185838F2D2B960FB6F8
:1037C000F894DEBF0FBECDBFDF91CF911F910F9157
:1037D000FF90EF90DF90CF90BF90AF900895CD28ED
:1037E00029F0282F29232F3F09F094C020E0F22F41
:1037F000F170DF2EE091FE024091FD0256E020FDC7
:103800001CC0EE20D1F28091340381608093340398
:10381000F12CD3CF2E2F30E05E9FF0011124E15028
:10382000FD4F6181691306C06081681303C0628126
:103830006E11E7CFF9013196E770E413EBCF8F8378
:1038400098878F8198850E94EC06292F22952F70EA
:10385000903260F0225F2F70223078F49F7051F028
:10386000F8019581907F31F4D12C0AC09F7011F03E
:103870008823D1F3805E8830B8F3C8010E947313A7
:10388000FD2C9BCF8F8398878F8198850E94F806A7
:10389000882309F48DC0EE2009F48AC08091340396
:1038A000803270F020912F03309130033A832983C6
:1038B0001B82DD82CC828E83CE0101960E9473131F
:1038C00086E0F801AFE2B3E001900D928A95E1F74E
:1038D0000E940B1BFF24F39470CF511132C08FE272
:1038E00093E00E94731386E0F50111928A95E9F73F
:1038F0008FCF8F8398878F8198850E94F8068111DA
:10390000DFCF80913403816080933403C8010E942B
:10391000731353CF21E02E256ACF4913B3CF381349
:10392000B1CFE110AFCFF8012583C8010E94731316
:1039300086E0F801AFE2B3E001900D928A95E1F7DD
:103940003CCF49139FCF38139DCFE1109BCFF80197
:103950002583C8010E94731386E0F50111928A95B0
:10396000E9F72BCF4913C5CF3813C3CF8091340368
:1039700080FDDECF982F907FD9F2F8018583903FAC
:10398000A1F2982F907F905F8F70892B8583CDCF88
:10399000C380D480F0903103F601E61BF70BBF0122
:1039A000F110EECE683C7105B8F6FE2CE110DACFCE
:1039B000C8010E9473138ECFEF92FF920F931F9353
:1039C000CF93DF93CDB7DEB767970FB6F894DEBF1E
:1039D0000FBECDBF4B8B5C8B362F6D8B7E8B8F8B51
:1039E0000E891F8901151105E1F0842F85238F3F72
:1039F00009F096C05FEF4FEF14C0E091FC02EE2398
:103A0000C9F196E0969FF001979FF00D1124EE0DFD
:103A1000FF1DEE0FFF1FE85EFE4F40815181822B9C
:103A20008C931A8A4D875E873F87198B088B86E0B7
:103A3000FE013D96DE01179601900D928A95E1F701
:103A4000CE0107960E94611B8823C1F016E0809189
:103A5000FE029091FD02891350C067960FB6F8944C
:103A6000DEBF0FBECDBFDF91CF911F910F91FF90B1
:103A7000EF900895809528232C93D3CF86E0FE0104
:103A80003796DE01119601900D928A95E1F78A85AD
:103A90009B85892BD9F288859F8189238F3FB1F23D
:103AA0002091FD0230E0C90101968770992740916D
:103AB000FE024817190671F40E94AE0F1092FD0223
:103AC0001092FE0286E0EFE2F3E0DF011D928A959C
:103AD000E9F7BCCF96E0929FD001939FB00D1124DF
:103AE000A150BD4FFE01319601900D929A95E1F7DC
:103AF0008093FD020E941306A9CF819FC00111246B
:103B000081509D4F0E94611B882309F4A6CF8091AC
:103B1000FE0290E00196877099278093FE0297CF6E
:103B2000E42EF12C81E090E0042E01C0880F0A946D
:103B3000EAF7652F70E0DB01A251BD4F2C913111E6
:103B40005CCFE22FE8235BCF8F929F92BF92CF9200
:103B5000DF92EF92FF920F931F93CF93DF9300D0EA
:103B600000D000D0CDB7DEB7809111019091120145
:103B7000892B91F0809117028F5F8093170281113A
:103B80000BC00E94420C90E09093120180931101AF
:103B9000892B11F40E944E0B28E2822E22E0922EF5
:103BA000740110E000E097E0C92EC00E802F0E9443
:103BB000FB0A8C2D0E94FB0A802F0E94C20AD701AB
:103BC0009D917D01D12C891729F0FD0131978083CA
:103BD000DD24D3948C2D0E94C20AF70196818917A7
:103BE00009F47CC0868381E08D29182B0E94130381
:103BF0000F5F0730C1F60E94650D9C0140911302D2
:103C00005091140290931402809313028091120237
:103C100090E0841B950B820F931F6BEF70E00E9466
:103C20008A23E82E392F082F80931202F090160273
:103C3000FF2009F45FC0E0912602F0912702AF0156
:103C4000425F5F4F20E08BEFB82E6BEF70E0A191E9
:103C5000AB3FA1F0CA2ED12C8E2D932F0A1708F45A
:103C60003FC08C199D09092E000CAA0BBB0B4E9767
:103C7000A105B105D8F1DF011197BC92E417F50752
:103C800031F720931602111102C0211135C0109294
:103C90001502A0912602B09127029091160266E3C8
:103CA00072E080E0FB013191BF01F40121914F01ED
:103CB000321751F03C913B3FD9F40C93AB0141508A
:103CC0005109FA01208391E01196F2E064347F07F4
:103CD00049F7909316028093150212C080E084CFBA
:103CE000DB01AC19BD098A0F9B1FBDCF2F2DC6CF9D
:103CF00081E0EACF1111CBCF809115028111C7CF9E
:103D00008091C1029091C2020E94FB07893E9340BC
:103D100008F452C03091C302432F50E05E834D83BC
:103D2000CA019195819591099C01990F440B550BFE
:103D300029833A834B835C83CA01B9010E9416250B
:103D400027EA39E747E45DE369837A838B839C83C1
:103D500069817A818B819C810E94A2257B018C01E3
:103D60008D819E81092E000CAA0BBB0B89839A833F
:103D7000AB83BC83BC01CD010E9416259B01AC0125
:103D8000E982FA820B831C8369817A818B819C8111
:103D90000E94792469837A838B839C8369817A81E9
:103DA0008B819C810E94E5246093C3020E94650D73
:103DB0009093C2028093C10226960FB6F894DEBF9C
:103DC0000FBECDBFDF91CF911F910F91FF90EF906C
:103DD000DF90CF90BF909F908F90089578941F921E
:103DE0001FB61F9211248F939F93AF93BF9380911F
:103DF0007B0290917C02A0917D02B0917E0201969F
:103E0000A11DB11D80937B0290937C02A0937D0243
:103E1000B0937E02BF91AF919F918F911F901FBE73
:103E20001F901895CDB7DEB72F970FB6F894DEBF69
:103E30000FBECDBF84B7877F84BF0FB6F894A89517
:103E400080916000886180936000109260000FBED6
:103E500080E890E00FB6F894809361009093610041
:103E60000FBE85B7806885BF85B7806885BF0E9413
:103E7000E8090E94610A8091E20084608093E20078
:103E80007894809155028823A1F01091E9001F7069
:103E90009091EC00892F817090FD80E8182B109292
:103EA000E9008091E80083FD0E94C30F1F7010930A
:103EB000E90082E084BD93E095BD9AEF97BD8093C1
:103EC0006E000E94420C90E09093120180931101C9
:103ED0000E9413030E9406038EE0E8E2F2E0DF0195
:103EE000282F1D922A95E9F7E6E3F2E0DF011D9203
:103EF0008A95E9F78EE090E00E940F2680932602D3
:103F0000909327024EE050E06BEF70E00E9437275D
:103F100090E080E00E943E248C3E9E4F11F00E9473
:103F2000B90C8CE090E00E94302490E0B0E0A0E07A
:103F30008093DA029093DB02A093DC02B093DD025F
:103F400089EA8093800089E08093810024982C98EE
:103F50003F988AB18F7C8AB96E98479A8BB18063FB
:103F60008BB9769A8FE090E00E9438246093D40257
:103F70007093D5028093D6029093D7026770EFEFCB
:103F80006E9FB00111247595679575956795772794
:103F9000709389006093880070938B0060938A000F
:103FA00070938D0060938C000E944E0B90E080E037
:103FB0000E943E248C3E9E4F11F00E94B90C82E07C
:103FC00090E00E943024809345020E94300D90932F
:103FD0003C0380933B0383E090E00E943024282F31
:103FE00030E050E040E0CA01B9010E947B128091AC
:103FF000E7029091E802A091E902B091EA028C8771
:104000009D87AE87BF87BC01CD010E94370386E044
:1040100091E090933A0380933903DE0111966D018C
:10402000FF24F39466246A9486E3A82E82E0B82ED7
:1040300092E1292E28E1822E912C30E4532E80919A
:104040005502853009F405C10E94A41DE6E3F2E0A3
:10405000A6E4B2E010E000E0302F81919D91981726
:1040600009F442C1292F282790E0EE24E3944E2D35
:10407000422309F434C199833A838E2191E009F4F3
:1040800090E09B830E94650D8160782F9D838C83D7
:1040900049815A816B818D810E94DC1CF801EA5BA9
:1040A000FD4F8081E826E08286E0EBEBF2E0D6016E
:1040B00001900D928A95E1F7E090BD027090BE02EA
:1040C0001091BF020091C0021092BD021092BE0278
:1040D0001092BF021092C0028E2D87294C2C3D2CCD
:1040E00009F448C08091790290917A020E94FB07FE
:1040F0009C018091BA02882309F431C12531310530
:10410000C8F18F3F19F08F5F8093BA02EE2059F00B
:104110000E940A089FEF1E140CF491E0899F802DE5
:1041200011248093BD02772059F00E940A089FEF66
:1041300017140CF491E0899F802D11248093BE0206
:104140003091BD023323B1F02091BE02222391F0C1
:1041500045EB3403C0011124992309F4DBC090938B
:10416000BD0255EB250390011124332309F4D5C07A
:104170003093BE02812F802B09F448C080917702D2
:10418000909178020E94FB079C018091B9028823DC
:1041900009F4E1C025363105C8F18F3F19F08F5F72
:1041A0008093B902112359F00E942E089FEF111637
:1041B0000CF491E0899F802D11248093BF0200238D
:1041C00059F00E942E089FEF10160CF491E0899F81
:1041D000802D11248093C0023091BF023323B1F0AF
:1041E0002091C002222391F045EB3403C001112439
:1041F000992309F495C09093BF0255EB25039001D4
:104200001124332309F48FC03093C0028091BD0282
:104210009091BE02892B9091BF02892B9091C00290
:10422000892B11F00E94710D86E0E42DF32DABEB8C
:10423000B2E001900D928A95E1F70E94DB05909122
:104240004402891709F4FBCE0E94DB0580934402E7
:10425000F6CE80915502843009F110927F020FB69C
:10426000F894A895809260000FBE5092600083B7CA
:10427000817F846083BF83B7816083BF7894889592
:1042800083B78E7F83BF0FB6F894A89580916000A6
:10429000886180936000109260000FBE809154028C
:1042A000882309F4CCCE0E94420C90E09093120136
:1042B000809311010E9413030E940603F5012EE072
:1042C00011922A95E9F70E94A41DE6E3F2E081919C
:1042D00081112CC032E0E434F307C9F7B0CE9F5F00
:1042E000EE0C963009F0C3CE0F5F1F4F0E30110554
:1042F00009F0B2CE6F82688619860E94650D8160D2
:10430000782F9B878A874F81588569858B850E9486
:10431000DC1CCACEF092BD0224CFF092BE022ACF9E
:10432000F092BF026ACFF092C00270CF80E189BDE7
:1043300029BC09B400FEFDCF8091D8008F7D809309
:10434000D8008091E00082608093E0008091E000DE
:1043500081FDFCCF74CE232B09F021CF57CF232B27
:1043600009F0D1CE07CF1F920F920FB60F921124F2
:104370002F933F934F935F936F937F938F939F936D
:10438000AF93BF93EF93FF938091E10082FF09C049
:104390008091E20082FF05C08091E1008B7F8093D5
:1043A000E1008091DA0080FF24C08091D80080FF76
:1043B00020C08091DA008E7F8093DA008091D9004E
:1043C00080FF9DC080E189BD82E189BD09B400FE06
:1043D000FDCF81E08093550280911D02811109C0BB
:1043E0000E94E8090E94610A8091E2008460809343
:1043F000E2008091E10080FF17C08091E20080FF21
:1044000013C08091E2008E7F8093E2008091E200F1
:1044100080618093E2008091D80080628093D80010
:1044200019BC85E0809355028091E10084FF2BC088
:104430008091E20084FF27C080E189BD82E189BDCF
:1044400009B400FEFDCF8091D8008F7D8093D80005
:104450008091E1008F7E8093E1008091E2008F7E69
:104460008093E2008091E20081608093E20080917D
:104470001C02882309F449C084E0809355020E94FD
:10448000AE0F0E94DB058091E10083FF27C0809181
:10449000E20083FF23C08091E100877F8093E100E9
:1044A00082E08093550210921C028091E1008E7F81
:1044B0008093E1008091E2008E7F8093E200809102
:1044C000E20080618093E20042E060E080E00E94D0
:1044D000310A8091F00088608093F000FF91EF91A5
:1044E000BF91AF919F918F917F916F915F914F910C
:1044F0003F912F910F900FBE0F901F90189519BCF0
:104500001092550210921D0274CF8091E30087FD36
:1045100002C081E0B2CF83E0B0CF1F920F920FB6FE
:104520000F9211242F933F934F935F936F937F9339
:104530008F939F93AF93BF93CF93DF93EF93FF93AB
:10454000D091E900DF708091EC00C82FC17080FD30
:10455000C0E81092E9008091F000877F8093F0001E
:1045600078940E94C30F1092E9008091F000886057
:104570008093F000CD2BCF70C093E900FF91EF91B5
:10458000DF91CF91BF91AF919F918F917F916F916B
:104590005F914F913F912F910F900FBE0F901F9001
:1045A00018951092B9008CE08093B8000895EF92AE
:1045B000FF920F931F93CF93DF93182FEB0110926D
:1045C000BC0084EA8093BC000E94650D7C01809150
:1045D000BC0087FF27C08091B900887F883029F010
:1045E0008091B900887F8031D9F51093BB0084E8B1
:1045F0008093BC000E94650D8C018091BC0087FFF8
:1046000024C02091B900287F90E080E02831B1F0EB
:1046100081E090E0203411F490E080E09195819564
:1046200091090CC0CF3FDC0791F20E94650D8E19F5
:104630009F098C179D0758F28EEF9FEFDF91CF9166
:104640001F910F91FF90EF900895CF3FDC07A9F2E3
:104650000E94650D801B910B8C179D0770F2ECCFAB
:104660008FEF9FEFEBCF0F931F93CF93DF93EB0170
:104670008093BB0084E88093BC000E94650D8C0190
:104680008091BC0087FF11C02091B900287F81E094
:1046900090E0283211F490E080E0919581959109A5
:1046A000DF91CF911F910F910895CF3FDC0741F328
:1046B0000E94650D801B910B8C179D0708F38EEFF0
:1046C0009FEFEECF0F931F93CF93DF93EC0184E81E
:1046D0008093BC000E94650D8C018091BC0087FF17
:1046E00008C08091BB0090E0DF91CF911F910F91A6
:1046F0000895CF3FDC0789F30E94650D801B910B65
:104700008C179D0750F38EEF9FEFEECF84E98093D7
:10471000BC000895AA1BBB1B51E107C0AA1FBB1F09
:10472000A617B70710F0A61BB70B881F991F5A953D
:10473000A9F780959095BC01CD01089597FB072EB0
:1047400016F4009407D077FD09D00E948A2307FC55
:1047500005D03EF4909581959F4F08957095619591
:104760007F4F0895052E97FB1EF400940E94C923E5
:1047700057FD07D00E94D72307FC03D04EF40C94BA
:10478000C92350954095309521953F4F4F4F5F4F2E
:10479000089590958095709561957F4F8F4F9F4FAD
:1047A0000895EE0FFF1F0590F491E02D0994A1E20A
:1047B0001A2EAA1BBB1BFD010DC0AA1FBB1FEE1F9B
:1047C000FF1FA217B307E407F50720F0A21BB30BE6
:1047D000E40BF50B661F771F881F991F1A9469F762
:1047E00060957095809590959B01AC01BD01CF01BE
:1047F00008952F923F924F925F926F927F928F9285
:104800009F92AF92BF92CF92DF92EF92FF920F935F
:104810001F93CF93DF93CDB7DEB7CA1BDB0B0FB669
:10482000F894DEBF0FBECDBF09942A883988488826
:104830005F846E847D848C849B84AA84B984C884BC
:10484000DF80EE80FD800C811B81AA81B981CE0FB3
:10485000D11D0FB6F894DEBF0FBECDBFED01089598
:10486000F999FECF92BD81BDF89A992780B5089538
:10487000A6E1B0E044E050E00C946A24A8E1B0E086
:1048800042E050E00C946A24262FF999FECF92BDA5
:1048900081BDF89A019700B4021639F01FBA20BD05
:1048A0000FB6F894FA9AF99A0FBE08950396272F37
:1048B0000E9445240E944424252F0E944524242F31
:1048C0000C9445240196272F0E9445240C944424DF
:1048D000DC01CB01FC01F999FECF06C0F2BDE1BDC0
:1048E000F89A319600B40D9241505040B8F70895AF
:1048F0005058BB27AA270E9490240C9468250E9438
:104900005A2538F00E94612520F039F49F3F19F4B0
:1049100026F40C9457250EF4E095E7FB0C945125F2
:10492000E92F0E94792558F3BA17620773078407A5
:10493000950720F079F4A6F50C949B250EF4E095EC
:104940000B2EBA2FA02D0B01B90190010C01CA0149
:10495000A0011124FF27591B99F0593F50F4503EF4
:1049600068F11A16F040A22F232F342F4427585FE6
:10497000F3CF469537952795A795F0405395C9F7FE
:104980007EF41F16BA0B620B730B840BBAF09150B6
:10499000A1F0FF0FBB1F661F771F881FC2F70EC055
:1049A000BA0F621F731F841F48F487957795679528
:1049B000B795F7959E3F08F0B0CF9395880F08F014
:1049C0009927EE0F9795879508950E94812588F085
:1049D0009F5798F0B92F9927B751B0F0E1F0660FC3
:1049E000771F881F991F1AF0BA95C9F714C0B13004
:1049F00091F00E949B25B1E008950C949B25672FB0
:104A0000782F8827B85F39F0B93FCCF38695779532
:104A10006795B395D9F73EF490958095709561951B
:104A20007F4F8F4F9F4F0895E89409C097FB3EF446
:104A300090958095709561957F4F8F4F9F4F9923EB
:104A4000A9F0F92F96E9BB279395F6958795779569
:104A50006795B795F111F8CFFAF4BB0F11F460FF29
:104A60001BC06F5F7F4F8F4F9F4F16C0882311F081
:104A700096E911C0772321F09EE8872F762F05C095
:104A8000662371F096E8862F70E060E02AF09A9530
:104A9000660F771F881FDAF7880F9695879597F925
:104AA000089597F99F6780E870E060E008959FEFB0
:104AB00080EC089500240A941616170618060906B5
:104AC000089500240A941216130614060506089584
:104AD000092E0394000C11F4882352F0BB0F40F40C
:104AE000BF2B11F460FF04C06F5F7F4F8F4F9F4F4C
:104AF000089557FD9058440F551F59F05F3F71F0CE
:104B00004795880F97FB991F61F09F3F79F0879534
:104B10000895121613061406551FF2CF4695F1DFBD
:104B200008C0161617061806991FF1CF869571054D
:104B3000610508940895E894BB2766277727CB0181
:104B400097F908950E94B5250C9468250E945A256E
:104B500038F00E94612520F0952311F00C94512526
:104B60000C94572511240C949C250E94792570F3F0
:104B7000959FC1F3950F50E0551F629FF001729F02
:104B8000BB27F00DB11D639FAA27F00DB11DAA1F11
:104B9000649F6627B00DA11D661F829F2227B00D5E
:104BA000A11D621F739FB00DA11D621F839FA00DE9
:104BB000611D221F749F3327A00D611D231F849F39
:104BC000600D211D822F762F6A2F11249F57504090
:104BD0009AF0F1F088234AF0EE0FFF1FBB1F661F0B
:104BE000771F881F91505040A9F79E3F510580F0D4
:104BF0000C9451250C949C255F3FE4F3983ED4F32C
:104C0000869577956795B795F795E7959F5FC1F777
:104C1000FE2B880F911D9695879597F908950F9310
:104C20001F93CF93DF939C01029710F422E030E0B2
:104C3000E091EE01F091EF0190E080E0B0E0A0E0C3
:104C4000309791F4009709F445C0821B930B843090
:104C50009105B8F58A819B816115710569F1FB01A8
:104C600093838283FE0111C04081518102811381AF
:104C700042175307F0F04217530799F4109761F069
:104C800012960C93129713961C933296CF01DF91D4
:104C9000CF911F910F9108950093EE011093EF01B2
:104CA000F4CF009719F04817590718F4CA01BD014D
:104CB000EF01DF01F801C4CF9093EF018093EE0183
:104CC000D1CFFE01E80FF91F219331930297998309
:104CD0008883DCCF8091F0019091F101892B41F420
:104CE00080910201909103019093F1018093F00172
:104CF0008091000190910101009741F48DB79EB71A
:104D00004091040150910501841B950B4091F001E5
:104D10005091F1014817590708F0B8CF841B950B43
:104D20008217930708F4B2CFB9016E5F7F4F8617E1
:104D3000970708F4ABCF640F751F7093F101609370
:104D4000F001FA0121933193A1CFCF93DF939C011E
:104D50000097E9F0FC01329713821282C091EE01B4
:104D6000D091EF01DE0190E080E02097A1F48081F6
:104D70009181280F391F8091F0019091F1018217E4
:104D8000930709F067C0F093F101E093F001DF9120
:104D9000CF910895DA01AE17BF0708F041C012960F
:104DA0004D915C911397CD014115510599F7DC01A7
:104DB0001396FC93EE9312974D915D91A40FB51F3E
:104DC000EA17FB0781F4208131812E5F3F4F240FCA
:104DD000351FDC0111963C932E932281338113966B
:104DE0003C932E931297B0E0A0E08A819B810097BC
:104DF000B1F5FE0181919191E80FF91F8091F001C9
:104E00009091F1018E179F0711F6109759F51092A6
:104E1000EF011092EE01D093F101C093F001B7CFF2
:104E2000B383A28340815181240F351FA217B3079A
:104E300071F44E5F5F4F2D913C911197420F531FBC
:104E40005183408312962D913C91338322830097A6
:104E500009F0ADCFF093EF01E093EE0198CFDE01C2
:104E6000EC01C3CF13961C921E921297D4CFDC0193
:104E700001C06D9341505040E0F70895AEE0B0E0BE
:104E8000E4E4F7E20C9407240D891E8986E08C8304
:104E90001A8309838FEF9FE79E838D83AE01475E60
:104EA0005F4F6F89788DCE0101960E9461272F8117
:104EB0003885020F131FF80110822E96E4E00C943F
:104EC0002324AFE0B0E0E7E6F7E20C94F9237C019D
:104ED0003B018A01DC0117961C921E9216971396CD
:104EE0008C9181FFBEC19AE0292EFE0131964F01BF
:104EF000D70113969C91F30193FD859193FF8191C6
:104F00003F01882309F444C1853239F493FD85912A
:104F100093FF81913F01853229F4B70190E00E940F
:104F20004A29E6CFB12C412C512CBFE1B51538F000
:104F30008B3209F188F4803201F1833221F157FC80
:104F40003AC020ED280F2A3040F556FE1FC0B29C13
:104F5000200D1124B22E06C08D3291F0803379F7E6
:104F6000689450F8F30193FD859193FF81913F017F
:104F70008111DBCF20C0689451F8689452F8F2CFC9
:104F8000689453F8EFCF689454F8ECCF429C200D0E
:104F90001124422E689455F8E5CF8E3229F456FC40
:104FA000F7C0689456F8DECF8C3619F4689457F839
:104FB000D9CF8836B9F2982F9F7D95549330C0F0A1
:104FC0008336A1F18337C1F1833509F05BC0D80185
:104FD000CD90DD908D016B2D70E056FC02C06FEF1F
:104FE0007FEFC6010E9434295C01689457F80AC01B
:104FF0000C5F1F4FEFE3E983AA24A394B12C640153
:10500000E89457F853FC04C04A141B0409F018F53F
:10501000342CA114B10431F5332009F469CFB70160
:1050200080E290E00E944A293A94F6CFD8018C9110
:1050300089830E5F1F4FE0CFF801C190D1908F019F
:105040006B2D70E056FC02C06FEF7FEFC6010E942F
:105050003F295C01D5CFB70180E290E00E944A2948
:105060004A94D2CFF60157FC859157FE81916F018A
:10507000B70190E00E944A2931103A94B1E0AB1A8E
:10508000B108C7CF843619F0893609F071C0F8012C
:1050900057FE67C061917191819191918F01E52DCA
:1050A000EF76DE2E97FF09C09095809570956195FB
:1050B0007F4F8F4F9F4F6894D7F82AE030E0A401CC
:1050C0000E947A29C82EC818AC2C5D2CD6FE0CC0C4
:1050D000E89450F8CB1440F4D4FE05C0D2FC03C0D1
:1050E0005D2D5E7E552EAB2C54FE93C0FE01EC0D63
:1050F000F11D8081803309F085C0652D697E562EB3
:10510000752D7870372E53FC93C050FE8DC0BC2C8B
:10511000A41410F4B40CBA1854FE90C0B70180E384
:1051200090E00E944A2952FE07C088E751FC88E5BA
:1051300090E0B7010E944A29CB1408F48BC0CA94AE
:10514000D12C8FEFC81AD80AC80CD91CD6018E9161
:105150006D01B70190E00E944A298C149D04B1F7BB
:105160005BCF61917191072E000C880B990B96CF44
:10517000D52CE894D4F82AE0853729F1F52DF97F6C
:10518000DF2E8037A1F058F48835A1F08F36D1F0AA
:10519000F701868197812F96E2E10C9415248837D8
:1051A000B9F7D4FE02C06894D2F820E10CC068942C
:1051B000D4F8F7CF54FE03C02F2F2660D22E20E163
:1051C00032E002C028E030E0F801D7FE15C041917E
:1051D0005191619171914C875D876E877F878F01B7
:1051E000A4016C857D858E859F850E947A29C82EB5
:1051F000C818E894D7F868CF81919191AC0170E01C
:1052000060E0E9CF52FC02C0A3947ACFA394A394A8
:1052100077CF852D867809F473CFF6CFB70180E27A
:1052200090E00E944A29A394A414C0F3312C74CFB7
:10523000342C3A18A41408F46FCFF8CF852D867853
:1052400009F47ACF8BE251FE80E257FC8DE2B70180
:1052500090E070CFB70180E390E00E944A29BA94B1
:105260006BCF8FEF9FEF97CFFC010590615070409F
:105270000110D8F7809590958E0F9F1F0895FC011F
:105280006150704001900110D8F7809590958E0F75
:105290009F1F08950F931F93CF93DF93182F092F0C
:1052A000EB018B8181FD09C01FEF0FEF812F902F44
:1052B000DF91CF911F910F91089582FF14C02E812D
:1052C0003F818C819D81281739073CF4E881F98161
:1052D000CF0101969983888310838E819F810196E7
:1052E0009F838E83E3CFE885F985812F0995892BEC
:1052F000A1F3DACFFA01AA27283051F1203181F148
:10530000E8946F936E7F6E5F7F4F8F4F9F4FAF4FCD
:10531000B1E03ED0B4E03CD0670F781F891F9A1FE0
:10532000A11D680F791F8A1F911DA11D6A0F711D94
:10533000811D911DA11D20D009F468943F912AE0A0
:10534000269F11243019305D3193DEF6CF01089588
:10535000462F4770405D4193B3E00FD0C9F7F6CFB9
:10536000462F4F70405D4A3318F0495D31FD405281
:10537000419302D0A9F7EACFB4E0A6959795879517
:1053800077956795BA95C9F70097610571050895F6
:105390009B01AC010A2E06945795479537952795A2
:1053A000BA95C9F7620F731F841F951FA01D08953A
:1053B000F894FFCFA703B703BC03B503BA03C10337
:1053C000BF03A410CC106312CC106312FF10201185
:1053D00063121E122B12A115A715AB15B915BD1519
:1053E000C115C515CB15D315D715DB15DF15EB1575
:1053F000EF15F315F715FD151B160516AF15B515A9
:10540000E315E715CF150116111624162A16CA162C
:10541000CA1654175417A717C5175D190217D117C5
:10542000D718E818E81867199A19721976197F19A8
:045430007A19851947
:1054340000003E0320003B09A50BE80B3A0C3E0C90
:105444000120002530336400000D010D020D030D11
:10545400040D050D000C010C020C030C040C050CCE
:10546400000B010B020B030B040B050B000A010AD2
:10547400020A030A040A050A0009010902090309C8
:1054840004090509000801080208030804080508BE
:1054940000070107020703070407050700060106C2
:1054A40002060306040605060005010502050305B8
:1054B40004050505000401040204030404040504AE
:1054C40000030103020303030403050300020102B2
:1054D40002020302040205020001010102010301A8
:1054E400040105010000010002000300040005009E
:1054F400E200E900EA00B500B600B700CD00830180
:10550400CC008A0192019401210223022402250283
:0E551400260227022A02B300B4006F007000C6
:00000001FF
