:100000000C9411030C942E030C942E030C942E03C9
:100010000C942E030C942E030C942E030C942E039C
:100020000C942E030C942E030C94031F0C943F1E6F
:100030000C94DB140C942E030C942E030C942E03BE
:100040000C942E030C942E030C942E030C942E036C
:100050000C942E030C9470140C942E030C942E0309
:100060000C942E030C942E030C942E030C942E034C
:100070000C942E030C942E030C942E030C942E033C
:100080000C942E030C942E030C942E030C942E032C
:100090000C942E030C942E030C942E030C942E031C
:1000A0000C942E030C942E030C942E03AD07AD0775
:1000B000E907E9073B085D08250A960A6A08480926
:1000C0005B095B09320A610A3A0A3D0A480A420A98
:1000D0004B0ADF0BE20BE50BE80BEB0BEE0BF10B26
:1000E00023102810321026102B1030102E10DC1781
:1000F000DC17EF17EF17E517EF17EF17EF17DC1700
:10010000DC17EA17EF17EF17EA175A1C811C171EA6
:10011000811C171EC91CEC1C171EDB1DEE1D5E7911
:10012000776F636F6E736F6C652E6C6F6728270136
:100130000129706127293B01012900696620657248
:100140007220213D206E696C207B0A090A7D010125
:10015000520029002B00E300E100E00000001E0037
:1001600014000400640003514D001F001A00160023
:100170001D0002512A002000080007001B00015149
:100180002C002100150009000600E2004A002200B0
:1001900017000A001900000001004C0001000000D7
:1001A0000100000001003E002002000033000000BA
:1001B000AE0023001C000B0005000000AB00240073
:1001C00018000D00110002514B0025000C000E001C
:1001D000100001512800260012000F0036002F00E9
:1001E0002B00270013003300370030004E002A0098
:1001F000010034003800E400000029000100010083
:100200000100010000003A001E02200222022E001E
:1002100001003B001F0221022302010001003C00FB
:100220002F0226022F00010001003D0030022702AC
:100230003000010001003E003102350035020000AF
:1002400001000100010000000100000001000100A8
:10025000010000000100000001003F00010050000B
:100260002402000001004000240051001E00010093
:1002700001004100250052001F00010001002D0077
:1002800026004F002000270001002E0025022E022C
:1002900031002E0001004C0045000100010001006A
:1002A0000000010001000100010001000000010048
:1002B0000100F2000100010001000100F000F10066
:1002C000010001000100F900FA00F3000100F40050
:1002D00001000100010001000100F5000100010022
:1002E000010001000100000001000100005C0000AD
:1002F00001000000010001000100000001000000F9
:1003000001000100010001000100000001000100E6
:1003100001000100010001000100010001000100D5
:10032000AC00AA00B600010001000100AB00A8006B
:10033000010001002E020100010001000100010086
:100340000100AE00010001000000010001000100F9
:1003500001000100000001002C5D0100010001000E
:10036000010001002E5D01000100010001000100FB
:1003700001002D5D010001000100010001000100EC
:100380000100010001000100010001000100000066
:100390000100010001000000010000000100010057
:1003A0000100000001000000005C010001000100EC
:1003B0000100000001000100010001000100010036
:1003C0000100010001000100010001000100010025
:1003D0000100010001000100010001000100010015
:1003E0000100010001000100010001000100010005
:1003F00000000000000000000000000000000000FD
:100400000000000000007E0F00D4FFFFFFC70000C7
:10041000007800000000000000002A2B28000000E7
:1004200000000000000000000000000000290000A3
:1004300000002C1E3420212224342627252E362D80
:100440003738271E1F202122232425263333362E1A
:1004500037381F0405060708090A0B0C0D0E0F108C
:100460001112131415161718191A1B1C1D2F3130D1
:10047000232D350405060708090A0B0C0D0E0F1075
:100480001112131415161718191A1B1C1D2F3130B1
:10049000354C05010902A10185020901A1000509E8
:1004A00019012905150025019505750181029501A0
:1004B000750381010501093009311581257F9502F8
:1004C0007508810609381581257F95017508810613
:1004D000050C0A38021581257F950175088106C033
:1004E000C005010980A101850319012AB700150182
:1004F00026B700950175108100C0050C0901A10106
:10050000850419012AA002150126A0029501751083
:100510008100C005010906A1018505050719E0292B
:10052000E7150025019508750181020507190029C5
:10053000EF1500250195F0750181020508190129C3
:1005400005950575019102950175039101C005019D
:100550000906A101050719E029E7150025019508FD
:10056000750181029501750881010507190029FFB0
:10057000150026FF00950675088100050819012958
:1005800005950575019102950175039101C0090258
:100590003B00020100A0FA09040000010301010070
:1005A0000921110100012240000705810308000A0A
:1005B00009040100010300000009211101000122CA
:1005C000BC000705820320000A1201100100000090
:1005D00008973274490100010200011603450072B8
:1005E0000067006F0044006F007800200045005A4B
:1005F00000000028035A0053004100200054006509
:1006000000630068006E006F006C006F0067007987
:100610000020004C00610062007300000004030928
:10062000040011241FBECFEFDAE0DEBFCDBF11E022
:10063000A0E0B1E0E6EEF4E502C005900D92A23F25
:10064000B107D9F723E0A2EFB1E001C01D92A234B7
:10065000B207E1F70E94C9200C94712A0C940000A3
:100660004F925F926F927F928F929F92AF92BF92C2
:10067000CF92DF92EF92FF920F931F93CF93DF936E
:10068000CDB7DEB72A970FB6F894DEBF0FBECDBF49
:10069000FC010081D18083819481892B41F0442425
:1006A0004A94D41006C091E00F3F19F403C091E0C2
:1006B00001C090E090FDBEC77F0185E0DE01169687
:1006C00001900D928A95E1F7F70122818E819F8139
:1006D000222349F00E943916182F682F8E819F819E
:1006E0000E94B31603C00E948616182F24E5129F9D
:1006F000F001112486E0D89EE00DF11D1124E00FD9
:10070000F11DEE0FFF1FEE5AFE4F05911491F701F8
:100710008281882309F442C1C80190568115F0E214
:100720009F0748F0905E811520E1920720F0915CD0
:1007300081159F4118F4C801992708C00F3F110582
:1007400009F010F4C80102C080E090E09C01245040
:1007500031092432310520F08B970E9708F083C0C1
:100760008091F2019091F301009781F10E9496141B
:10077000C090F401D12C9C0140E050E060EE7EE29C
:1007800080E090E00E941F26622F70E06C197D09C6
:10079000072E000C880B990B0E94FE2427EA39E7EC
:1007A00047E45DE30E948A254B015C01B601DD0C44
:1007B000880B990B0E94FE249B01AC01C501B4017A
:1007C0000E9461240E94CD246093F4010E94A5142C
:1007D0009093F3018093F2010932FDE51F0709F0C0
:1007E00047C0F7018281882309F4DDC09091F902A6
:1007F00081E0890F8770987F853020F4892B809362
:10080000F90202C09093F9028091F9028770FFEF1C
:100810008F9FC00111249595879595958795992768
:10082000909389008093880090938B0080938A0036
:1008300090938D0080938C004091F9025091FA02C0
:100840006091FB027091FC028FE090E00E943E24D8
:1008500060910B0370910C0380910D0390910E0336
:100860000E94C40FA0C00932FDE51F0709F4BECFE6
:10087000F70182810D32FDE51F0779F00E322DE57B
:10088000120799F00C329DE5190709F08CC08823F6
:1008900009F489C08BE391E005C0882309F483C083
:1008A0008EE191E00E94390F7EC0882309F47BC05D
:1008B0008091F4011F928F9383E191E09F938F9336
:1008C00085EF91E09F938F930E9487270F900F9061
:1008D0000F900F900F900F9095EFC92E91E0D92EA9
:1008E0002AE0B22EF6018081882309F45CC08130B1
:1008F00009F04EC08181813049F44601F2E08F0E4B
:10090000911CF60182810E94371B0AC0823051F48B
:100910004601F2E08F0E911CF60182810E94731A4B
:10092000640138C0833049F44601F2E08F0E911C17
:10093000F60182810E940C1AF3CF843021F0FFEF80
:10094000CF1ADF0A27C0F6012281C60102966C0188
:1009500080E090E030E0205331092A30310570F416
:10096000B89EA001B99E500D1124C901840F951F96
:10097000EFEFCE1ADE0AF6012081ECCF009751F09E
:10098000EFE9FFE03197F1F700C000000197F6CFE3
:100990000E94ED0EFFEFCF1ADF0AA4CF09322DE53A
:1009A000120709F065CFF7018281882369F0C80139
:1009B000825E9C45059740F46EE1600F6093F502FE
:1009C0008CE090E00E942C2417FF95C0F7018281F3
:1009D000882309F490C0E0911103F091120330973D
:1009E00029F00190F081E02D099501C080E0869505
:1009F0008170809306029091F502913029F488234A
:100A000019F089E30E94371B8091B7028093050299
:100A10001092B7028091F502813071F048F0823077
:100A2000A1F08430C1F486EE0E94371B88E111C02A
:100A300082EE0E94731A0FC088E193E00E94AE0F0D
:100A400088E193E00E94980F06C082EE0E94731A1C
:100A500087E50E94371B8FE39CE90197F1F700C0FF
:100A600000004801E89497F88CE0A82EB12CC4014E
:100A70000A2C02C0969587950A94E2F78F7061F070
:100A8000C82ED12C8A3020F49DE1C90ED11C07C09C
:100A9000E6E0CE1AD10803C0B7E2CB2ED12CC601B6
:100AA0000E94AE0FC6010E94980FF4E0AF1AB10881
:100AB0002CEFA2162FEFB206D1F68091F50281300D
:100AC00039F078F0823069F0843089F488E20DC022
:100AD0008CE20E94371B80910602882341F089E353
:100AE00004C082EE0E940C1A02C00E94371B809143
:100AF00005028093B702043F8CE5180741F190F49A
:100B0000093DECE51E07E9F00A3DFCE51F0789F108
:100B1000083D2CE51207B1F506E221EE41EE68ED45
:100B20007CE52CC0063F8CE51807E9F0B0F0073FE4
:100B3000ECE51E0739F507E225EE46EE67EF7CE5AA
:100B40001DC007E225EE45EE69ED7CE517C006E223
:100B500021EE40EE64EF7CE511C007E225EE44EEA5
:100B600065EF7CE50BC006E221EE42EE66EF7CE528
:100B700005C008E221E045EE6AED7CE5C7010E9470
:100B8000261129C5F7018281882309F43FC11092FB
:100B900007020230FCE51F0708F422C106312CE5EC
:100BA000120738F098012B5F3C452930310508F0D9
:100BB00017C10E9461159093100380930F030031B9
:100BC0008CE5180709F4C3C008F041C00830ECE513
:100BD0001E0709F49AC0F0F404302CE5120709F45A
:100BE00087C068F402309CE5190709F477C0033028
:100BF0001C4509F0E5C080910F03826076C0063085
:100C0000FCE51F0709F46EC008F07BC080910F035C
:100C100088606BC00C308CE5180709F485C068F457
:100C20000A30ECE51E0709F474C008F079C00E9490
:100C3000F71980910F03806858C00E302CE5120719
:100C400009F476C008F07FC080910F038BC00C3F81
:100C50009CE5190709F44FC018F50331FCE51F079F
:100C600009F47DC078F401318CE5180709F473C0EC
:100C700002311C4509F0A4C00E94F71980910F03AE
:100C80008F7733C00531ECE51E0709F472C008F414
:100C900086C00B3F1C4509F093C0809110033EC0F5
:100CA00001158DE5180709F45FC058F40E3FECE517
:100CB0001E0709F444C008F43FC08091100382600D
:100CC0002DC002302DE5120709F475C008F45DC08F
:100CD00003301D4509F074C060E06EC080910F03C1
:100CE000816003C080910F03806180930F0368C00F
:100CF00080910F0311C080911003826080931003D4
:100D00005FC080910F038062F0CF80910F038064F9
:100D1000ECCF80910F0388608460E7CF8160EECFD5
:100D200080910F038E7FE1CF80910F038D7FDDCF08
:100D300080910F03877FD9CF8091100318C08091D5
:100D400010038D7FDBCF80910F038F7ECECF8091FC
:100D50000F038F7DCACF80910F038F7BC6CF809109
:100D60000F03877F8B7FC1CF809110038D7F8E7F94
:100D7000C5CF80910F0382FB222720F991E09227B3
:100D800090FB82F990FB83F9B0CF80911003982FEC
:100D9000909591708E7F892B90FB81F9AFCF0E9447
:100DA000F71980910F0387FB222720F991E0922702
:100DB00090FB87F99ACF61E08EE090E00E942C24AE
:100DC00060910F031091100384E090E00E942C24A6
:100DD000612F81E290E00E942C240E94F719FBC34E
:100DE00006319CE5190719F58091B7028A7A91E0DE
:100DF00009F490E090930802882311F065E301C0A4
:100E000069E285E292E00E942C150EC006311C4575
:100E100009F055C080910802882309F409C465E3EC
:100E200085E292E00E9404150E94F315D4C30115D7
:100E3000ECE51E0739F00F3D1C4509F040C00E944B
:100E40007215C9C30E94F7192FEF84E39CE021506B
:100E500080409040E1F700C00000F89481E080936A
:100E6000E00080E28093D8001092C900EFE1FEE438
:100E70003197F1F700C000001DBA109268001CBC49
:100E800010BE1FBA10927A0010926E0010926F007E
:100E900010927100109272001092C9001092BC0062
:100EA00014B817B81AB81DB810BA1092BC0015B80B
:100EB00018B81BB81EB811BA0C94003F8CC3F701C8
:100EC00000811181882349F0C8010E943916D82E6B
:100ED000682FC8010E94B31604C0C8010E9486167C
:100EE000D82EB8018D2D0E943F0D082FD92EB82E77
:100EF000F701C580C294AFE0CA221281111110928D
:100F0000B6028091B4028770C1F01123B1F08D2D2B
:100F1000807F803449F090E2900F983070F08036F6
:100F200019F4F6EFBF1649F082E00E941017809185
:100F3000B4028770AA24A3948111A12C9D2C9294B1
:100F40007FE09722892D90E08C30910508F0EEC269
:100F5000FC01EA5AFF4F0C943E269D2D9F708D2D6B
:100F6000807FC92E19F0C29460EFC6221123B9F018
:100F7000CC2009F457C280E2800F883010F0B11005
:100F800006C08091B702C82AC092B70205C08091FE
:100F9000B602C82AC092B6020E94F31543C2802F3F
:100FA0000E940C1ACC2009F437C3005EC0940830AC
:100FB00010F0B11006C08091B702C822C092B702EB
:100FC00005C08091B602C822C092B6020E94F315F5
:100FD00023C39D2D9F708D2D807F892E803219F027
:100FE000829450EF8522BB2029F044244394B4140A
:100FF000F1F028C0112389F08091B802CC2059F07B
:1010000055245394C51007C0882A881609F40AC3CA
:101010008092B80207C388291AC0CC2029F0662420
:101020006394C61409F4F8C20E94ED1520C0112380
:1010300031F0772473947C1408F4F4C207C0C11013
:10104000EBC215C0112331F0C110ECC1882D0E94F4
:101050001318E8C2CC2059F029E3B212F2C18FEF85
:1010600097EEE3E081509040E040E1F7E8C1882D41
:101070000E940818D1C28D2D86958695837019F02F
:10108000813071F053C2112331F0802F9D2D937068
:101090000E941D0D53C280E090E00E941D0D64C2AD
:1010A000112331F0802F9D2D93700E94070D46C2B1
:1010B00080E090E00E94070D57C2802F112329F095
:1010C0000E9408140E94B11439C20E943E130E946B
:1010D000B1144AC28D2D837009F069C011112AC262
:1010E000902F929596959770990F990F802F8F70EA
:1010F000482E512C612C712C092E04C0440C551C17
:10110000661C771C0A94D2F704FF12C04FE050E02F
:1011100060E070E004C0440F551F661F771F9A956A
:10112000D2F7DB01CA0180959095A095B09503C0D8
:1011300080E090E0DC016D2D66956695637062300D
:1011400019F1C8F42091B9023091BA024091BB0262
:101150005091BC02613059F084299529A629B729FC
:10116000BC01CD0162237323842395230AC0422A44
:10117000532A642A752ABC01CD0164297529862960
:1011800097290E944A17D6C184299529A629B729EB
:101190004090B9025090BA026090BB027090BC02BD
:1011A000BC01CD016425752586259725EACF11233D
:1011B00019F08D2D817001C08695882309F4BAC17C
:1011C000902F929596959770990F990F802F8F7009
:1011D000482E512C612C712C092E04C0440C551C36
:1011E000661C771C0A94D2F704FF12C04FE050E04F
:1011F00060E070E004C0440F551F661F771F9A958A
:10120000D2F7DB01CA0180959095A095B09503C0F7
:1012100080E090E0DC016D2D66956695637062302C
:10122000D9F068F520910B0330910C0340910D0328
:1012300050910E03613059F084299529A629B729C8
:10124000BC01CD0162237323842395231EC0422A4F
:10125000532A642A752A13C084299529A629B729F7
:1012600040900B0350900C0360900D0370900E03A0
:10127000BC01CD01642575258625972506C0BC01D6
:10128000CD0164297529862997290E94DF1652C14C
:10129000FD2DFF70CF2E112339F08F2F0E942917BB
:1012A000802F0E94131846C1802F0E9408188C2D91
:1012B0000E94EB163FC1802F42EF442EB41409F474
:1012C0006DC04B1450F030EF532EB51481F021EF68
:1012D000622EB61409F454C058C093EF792EB71497
:1012E00009F466C024EFB21609F47CC04EC0112385
:1012F00011F1C11097C12D2D2F7181E090E0A0E078
:10130000B0E0AC01BD0104C0440F551F661F771F3C
:101310002A95D2F780910B0390910C03A0910D03B5
:10132000B0910E032A013B01482659266A267B26E6
:10133000C301B2014EC0552453945C1408F46CC12F
:101340002D2D2F7181E090E0A0E0B0E0AC01BD0157
:1013500004C0440F551F661F771F2A95D2F780914E
:101360000B0390910C03A0910D03B0910E032A0181
:101370003B01482659266A267B26C301B2012FC0AD
:10138000112339F08D2D8F713CC0111148C0C1104F
:101390004DC08D2D8F710E94EB163EC18D2D8F712A
:1013A000112319F00E94EB163DC10E94291734C188
:1013B000112391F02D2D2F7181E090E0A0E0B0E09D
:1013C000BC01CD0104C0660F771F881F991F2A95A5
:1013D000D2F70E94DF1626C160E070E0CB010E94C8
:1013E000DF161AC1112381F00D2D0F71802F0E947D
:1013F000291728E0029FC001112483608093B40262
:10140000802F0E9429170EC181E00E94101781E0F1
:101410008C1508F001C182E00E941017FDC0CC209D
:1014200009F4B0CF802F0E94731AFCC0893349F4AD
:101430009FEFE7EEF3E09150E040F040E1F700C0AD
:101440000000802F0E940C1AE7C08B2D90E0FC0159
:10145000E05FF109E730F10508F03FC0EE59FF4FBA
:101460000C943E26112309F47FC09091C30281E0C1
:10147000892705C01093C3025FC081E08127809354
:10148000C3025AC0111158C081E08093C3026CC0DE
:10149000111152C067C0112339F082E08093090214
:1014A00081E08093C3024AC080910902823019F41E
:1014B00081E08093090280910902833009F054C0D1
:1014C0004FC0112339F08091C202882371F210922B
:1014D000C20234C0CC2049F247C08091C202CC2065
:1014E000C1F0882341F09091C30281E08927809365
:1014F000C3021092C202802F112319F00E94731AA6
:101500001DC00E940C1A86E0F70111928A95E9F736
:101510002BC0882389F011110FC09091C30281E084
:1015200089278093C3021092C2021EC088EF890DE2
:10153000843010F40E94330D1123B1F08D2D807F83
:10154000803619F4F6EFBF1679F0809109028230E7
:1015500019F483E08093090280910902813021F41B
:10156000109209021092C302AA20A9F08091B4023D
:1015700080FD11C0F70112828595859585950E94A1
:101580002917C7010E9430038091B4028595859583
:1015900085950E94EB1685E0F701DE01119601901A
:1015A0000D928A95E1F789819A810E9486169A8127
:1015B00024E5829FF001112486E0989FE00DF11D43
:1015C00011248981E80FF11DEE0FFF1FEE5AFE4F27
:1015D000859194912FC08091B402877059F1F701E1
:1015E0008281882339F182E02A960FB6F894DEBF13
:1015F0000FBECDBFDF91CF911F910F91FF90EF9064
:10160000DF90CF90BF90AF909F908F907F906F9022
:101610005F904F900C94101788EF890D843008F07C
:10162000A3CF88CF88EF890D843008F087CF82CF91
:1016300069E2F6CB2A960FB6F894DEBF0FBECDBF97
:10164000DF91CF911F910F91FF90EF90DF90CF909E
:10165000BF90AF909F908F907F906F905F904F90D2
:10166000089590910F0392FF0DC0282F2871283004
:1016700019F4877F846006C0282F2471243011F468
:101680008B7F886093FF0DC0282F2871283119F4B3
:10169000877E846106C0282F2471243111F48B7E4B
:1016A00088612091100320FF0DC0382F3871383029
:1016B00019F4877F816006C0382F3171313011F401
:1016C0008E7F886021FF0DC0282F2871283119F4E2
:1016D000877E816106C0282F2171213111F48E7E11
:1016E000886194FD877E08959C013A9521153F41BC
:1016F00038F5DC01AA27B270AC01442754709C0174
:101700002227387094FF0FC090FF02C080E101C013
:1017100080E0AB2B09F08062452B09F08064232B1D
:1017200069F080680BC0892F8170AB2B09F0826053
:10173000452B09F08460232B09F08860FB01099494
:101740000895CF93E82F873080F58091070190911D
:101750000801892B09F047C0CE2F64E670E080E4D1
:101760000E9468239093080180930701892BD1F48C
:1017700064E670E082E10E94BF23909308018093A9
:101780000701892B79F481E090E001C0880FCA95A8
:10179000EAF764E670E080950E94BF239093080109
:1017A00080930701CF910C94142490E0FC013797AB
:1017B000E730F105C0F4E759FF4F0C943E26209A1C
:1017C000289811C0219A29980EC0229A2A980BC0F5
:1017D000239A2B9808C0529A5A9805C0539A5B983E
:1017E00002C03E9A4698CF910895CF93873040F536
:1017F0008091070190910801892B59F564E670E00A
:1018000081E40E9468239093080180930701892B4B
:1018100011F0C0E011C084E690E00E94EF2397FF32
:1018200005C09093080180930701F3CFC82FC0959E
:1018300010920801109207010E9414248C2F0AC0F4
:101840009FB18FB1807F869586959370892B809507
:1018500001C080E0CF9108950F931F93CF93DF9342
:10186000CDB7DEB767970FB6F894DEBF0FBECDBF1A
:101870004B8B5C8B6D8B7E8B8F8B0E891F8901153B
:10188000110531F05F3F31F481E04F3F19F403C09F
:1018900081E001C080E080FD32C0242F30E0A1E073
:1018A000B0E0042E01C0AA0F0A94EAF7852F90E059
:1018B000662319F07091C30205C0FC01E95EFD4F7B
:1018C00070817A237723A1F046E0489FF001499F79
:1018D000F00D1124E20FF31FEE0FFF1FE85EFE4F25
:1018E00040815181FC01E95EFD4F9081A92B06C02A
:1018F000FC01E95EFD4FA0958081A823A08386E0CE
:10190000FE013D96DF01982F1D929A95E9F74D87CC
:101910005E876F87198B088BDE01179601900D92F9
:101920008A95E1F7CE0107960E941D1881113EC0ED
:1019300086E0FE013796DE01119601900D928A95A0
:10194000E1F7FF81E8856A857B856115710531F0D6
:10195000EF3F31F481E0FF3F19F403C081E001C0A3
:1019600080E080FD23C020914B0230E0C901019648
:101970008770992740917C0250E08417950779F190
:10198000F983EA837D836C8396E0929FD001939FD5
:10199000B00D1124A45BBD4FFE01319601900D9254
:1019A0009A95E1F780934B020E94541716E08091BC
:1019B0007C0290914B028917F9F0189FC001112405
:1019C000845B9D4F0E941D188823B1F080917C029A
:1019D00090E001968770992780937C02E8CF0E945F
:1019E000F71910924B0210927C02E5E4F2E086E0D7
:1019F000DF011D928A95E9F767960FB6F894DEBF6E
:101A00000FBECDBFDF91CF911F910F91089520910F
:101A10001502309116022817390771F090931602BB
:101A200080931502E0911103F0911203309721F099
:101A30000084F185E02D09940895209113023091DE
:101A400014022817390771F090931402809313023F
:101A5000E0911103F0911203309721F00680F78195
:101A6000E02D09940895E0911103F091120330974D
:101A700021F00190F081E02D099480E00895CF934A
:101A8000DF9324E5829FC0011124FC0146E0749F8E
:101A9000E00DF11D1124E60FF11DEE0FFF1FEE5AB0
:101AA000FE4FC591D491CE01C238D10569F1B0F491
:101AB000C133D10509F475C048F4C932D10509F420
:101AC00069C0CA32D10509F473C085C0C533D105D8
:101AD00009F459C0C933D105B9F07DC0C33ED10561
:101AE00071F138F4C03ED105B1F0C23ED10511F11B
:101AF00072C0C63ED105B9F1C73ED105C9F1C43E99
:101B0000D10509F068C024C020910F0320FD5DC0FD
:101B100021FD5BC060C020910F0320FD50C02091CB
:101B2000100320FF57C180910F0384FD51C183EE44
:101B300090E050C120910F0322FF4CC1F4CF80915F
:101B40000F0382FD3FC08091100380FD3EC0EBCFAC
:101B50002091100321FF3EC180910F0384FD38C105
:101B600087EE90E037C120910F0323FF33C1F4CFFC
:101B700080910F0383FD2CC08091100381FFECCF77
:101B800084EE90E027C120910F0325FF23C189E255
:101B900090E020C120910F0325FF1CC185E390E058
:101BA00019C120910F0326FF15C18AE290E012C1EE
:101BB00020910F0326FF0EC181E390E00BC189E362
:101BC00090E008C182EE90E005C180EE90E002C195
:101BD00086EE90E0FFC0C11552E5D50708F075C04C
:101BE000C11521E5D20728F09C2F8827816F906AC4
:101BF000F1C0C83ED10570F5C03ED10508F0EAC07D
:101C0000C83AD105B8F4C53AD10550F08C2F855AA1
:101C1000C82FD0E0C054DE4F888190E09064DAC0D5
:101C2000C130D10509F4D6C008F4D2C0249708F415
:101C3000CFC0D0C0CF3BD10508F0CAC08C2F885A86
:101C4000C82FD0E0CC0FDD1FCD53DE4F88819981A6
:101C50009464C0C0C11540E2D40760F4C11551E0DE
:101C6000D50708F0B7C0C03FD10508F4B1C0CE0118
:101C70009065B0C0C11580E4D80708F4A9C0C115AB
:101C800020E5D20720F4CE019F70906AA3C0CE0158
:101C9000F4E096958795FA95E1F7282F23703C2F6D
:101CA000337081E090E002C0880F991F3A95E2F707
:101CB0009C68922B2C2F2F702695269550E2259FFD
:101CC00090011124822B932B85C0C11546E5D407C2
:101CD00008F03FC0C11555E5D50748F08C2F0E948C
:101CE000310B8F7190E0982F8827906273C0C115D7
:101CF00084E5D80728F09C2F8827846F906A6AC0F3
:101D00009E01237033279C2F96959695C115D34538
:101D100080F441E050E002C0440F551F2A95E2F7DD
:101D200080E2989F90011124CA01822B932B9C681A
:101D300051C041E050E002C0440F551F2A95E2F720
:101D400080E2989F90011124CA01822B932B9A68FC
:101D500041C0C1155AE5D50778F5C11589E5D80701
:101D600010F18C2F8F700E94310B9E0194E03695FC
:101D700027959A95E1F72F7030E0322F22273069AE
:101D8000A901482B0EC090568115904208F58D2F61
:101D90008F710E94310B9E01332730628F71A90130
:101DA000582BCA0117C0C11528E5D20788F09C2F0F
:101DB0008827806F906A0EC0C1154BE5D40740F0AC
:101DC000CE01C1155CE5D507F0F69927906602C0F3
:101DD00080E090E0DF91CF910895FF920F931F93E1
:101DE000CF93DF93E82FF0E0EE5EFB4FF490C82F27
:101DF000C695C695C695D0E0FE01EE5FFB4F0491F7
:101E0000877010E0082E02C0159507950A94E2F736
:101E100001701127FE01EE50FC4FC491D0E002C0CA
:101E2000D595C7958A95E2F7C170DD270115110593
:101E300019F081EE0E94731A209719F086EE0E9425
:101E4000731A8F2D0E94371BCD2B19F086EE0E943E
:101E50000C1A012B41F081EEDF91CF911F910F9170
:101E6000FF900C940C1ADF91CF911F910F91FF906E
:101E70000895FF920F931F93CF93DF938C018AE015
:101E8000F82EF8018491882309F44CC0813009F0C0
:101E900042C0E8012196FE018491813031F42196FF
:101EA000FE0184910E94371B39C0823039F4E80169
:101EB0002296FE0184910E94731A30C0833039F457
:101EC000E8012296FE0184910E940C1A27C08430FA
:101ED00029F5E8012296FE01249180E090E030E0AF
:101EE000205331092A30310560F4F89EA001F99E93
:101EF000500D1124C901840F951F2196FE012491D4
:101F0000EECF009759F0EFE9FFE03197F1F700C00D
:101F100000000197F6CF0E94ED0EE8018E010F5FE1
:101F20001F4FAFCFDF91CF911F910F91FF90089579
:101F3000CF93DF93EC010E940C1ACE01805E9109D1
:101F4000089710F0209719F468E078E102C063EF79
:101F500077E1CE01DF91CF910C94740BCF93DF9397
:101F6000EC01805E9109089710F0209719F463E165
:101F700078E102C06EEF77E1CE010E94740B8C2FE6
:101F8000DF91CF910C94731ACF92DF92EF92FF9270
:101F90000F931F936C01EE24FF24C114D104E104BC
:101FA000F10411F0E0E103C06B017C01E0E03327B4
:101FB0002F2D1E2D0D2D011511052105310519F0AF
:101FC000E85F6801790197018601F4E0369527956D
:101FD00017950795FA95D1F70115110521053105DA
:101FE00019F0EC5F680179019701860152E036959E
:101FF0002795179507955A95D1F7011511052105D4
:10200000310519F0EE5F6801790197018601369577
:10201000279517950795012B022B032B09F0EF5FEE
:1020200056985E9825982D9826982E9827982F9840
:102030000E2F10E0F8013197E730F105A8F4E059D0
:10204000FF4F0C943E26259A2D9A0EC0259A2D9A64
:10205000269A2E9A09C0259A2D9A04C0259A2D9A5F
:10206000269A2E9A279A2F9A1F910F91FF90EF9000
:10207000DF90CF90089580E290E0909308018093E4
:10208000070180910A0281110EC00E94622381E043
:1020900080930A022FEF83ED90E32150804090401F
:1020A000E1F700C0000064E670E080E40E9468236D
:1020B0009093080180930701892B09F04EC064E6D4
:1020C00070E080E00E94BF23909308018093070195
:1020D000892B09F042C064E670E080E00E94BF23D3
:1020E0009093080180930701892BB9F564E670E0AD
:1020F0008FE30E94BF239093080180930701892BEF
:1021000061F50E94142464E670E080E40E94682374
:102110009093080180930701892BF9F464E670E03D
:102120008CE00E94BF239093080180930701892BC4
:10213000A1F464E670E080E00E94BF239093080160
:1021400080930701892B49F464E670E08FE30E94D5
:10215000BF2390930801809307010E94142480916B
:102160000701089556985E9825982D9826982E98E0
:1021700027982F988FEF90E09093890080938800A4
:1021800090938B0080938A0090938D0080938C00B5
:10219000259A2D9A2FEF80E792E0215080409040C1
:1021A000E1F700C00000269A2E9A2FEF80E792E018
:1021B000215080409040E1F700C00000279A2F9AFC
:1021C0002FEF80E792E0215080409040E1F700C07F
:1021D000000025982D982FEF80E792E02150804055
:1021E0009040E1F700C0000026982E982FEF80E77E
:1021F00092E0215080409040E1F700C00000279815
:102200002F9856985E9825982D9826982E9827985E
:102210002F980895209828982198299822982A98EC
:1022200023982B9852985A9853985B983E984698C2
:1022300008958098889A8198899A84988C9A85982C
:102240008D9A86988E9A87988F9A08950F931F93E8
:10225000CF93DF93C42FD22FFC0182818823C9F052
:10226000409307020E94A5149093120280931102DA
:1022700080E28C0F883008F057C0C77081E001C041
:10228000880FCA95EAF7DF91CF911F910F910C94B7
:10229000131880910702481330C080911102909169
:1022A00012020E949614883C910538F510E21D0F29
:1022B000CD17B9F080E28C0F883040F4C77081E010
:1022C00001C0880FCA95EAF70E940818183028F54F
:1022D00081E09D2F977001C0880F9A95EAF70E94C0
:1022E0001318802F0E94371B1830F0F4D77081E04C
:1022F00001C0880FDA95EAF70AC080E28C0F8830B7
:1023000098F4C77081E001C0880FCA95EAF7DF91A1
:10231000CF911F910F910C940818802FDF91CF91CE
:102320001F910F910C94371BDF91CF911F910F914B
:102330000895CF92DF92EF92FF920F931F93CF9366
:10234000DF938091070190910801892B91F0809192
:102350000B028F5F80930B0281110BC00E943B1018
:1023600090E09093080180930701892B11F40E945B
:10237000B210CDEFD2E07E0100E010E057E0C52EB4
:10238000C10E812F0E94A10B8C2D0E94A10B812FC9
:102390000E94F50BF7019081891721F08083DD24DD
:1023A000D39401C0D12C8C2D0E94F50BF70197819D
:1023B000891719F0878381E001C080E0D82A0D29B0
:1023C0000E940A111F5FFFEFEF1AFF0A1730B1F6E4
:1023D0000E94A514AC0160910D0270910E029093C1
:1023E0000E0280930D0290910C02292F30E0261BE3
:1023F000370BC901840F951F6BEF70E00E94F72522
:10240000F82E80930C0220911002222309F443C07D
:1024100010921002E091F302F091F4029F01225F0A
:102420003F4F10E04BEFE42EABEFB0E040814B3F6D
:10243000C9F0642F70E0F41620F0AC01461B570B76
:1024400005C0AD01461B570B480F591F052E000C48
:10245000660B770B4E3151056105710510F0E08276
:1024600001C011E03196E217F30701F71093100253
:10247000011102C0111111C010920F02E091F3027C
:10248000F091F40290911002A4E1B3E0AF01425F39
:102490005F4F80E03DC00111EFCF80910F028111AD
:1024A000EBCF8091F2019091F3010E949614893E46
:1024B000934008F443C06091F401C62FD0E0662732
:1024C00077276C1B7D0B072E000C880B990B0E9445
:1024D000FE2427EA39E747E45DE30E948A256B0181
:1024E0007C01BE01DD0F880B990B0E94FE249B012D
:1024F000AC01C701B6010E9461240E94CD24609303
:10250000F4010E94A5149093F3018093F20116C088
:1025100029913C91321741F030813B3F21F4F08208
:102520002C9391E001C081E031961196E417F507F4
:1025300079F79093100280930F02B3CF802FDF9131
:10254000CF911F910F91FF90EF90DF90CF90089562
:102550008091C602089522E02093E9002FEF309188
:10256000E800215035FD06C035ED3A95F1F7000041
:102570002111F5CF2091E80025FF0BC040E050E08D
:1025800066E070E00E944A1B8091E8008E7780939D
:10259000E8000895CF93DF9320910601222339F0BC
:1025A00020910F0327FF03C060E222E002C068E031
:1025B00021E02093E9002FEF3091E800215035FD14
:1025C00006C035ED3A95F1F700002111F5CF2091C5
:1025D000E80025FF1DC0EC0180910601811105C0B6
:1025E00040E050E068E070E003C070E040E050E0A0
:1025F000CE010E944A1B8091E8008E778093E8000C
:1026000080E2FE01A7ECB2E001900D928A95E1F71D
:10261000DF91CF910895CF93DF9300D01F92CDB774
:10262000DEB79091E902943019F589837B836A8340
:1026300082E08093E9008FEF9091E800815095FD52
:1026400006C095ED9A95F1F700008111F5CF8091C4
:10265000E80085FF0DC040E050E063E070E0CE018F
:1026600001960E944A1B8091E8008E778093E800D3
:102670000F900F900F90DF91CF910895803F39F424
:1026800080912B0387FF6AC010922B0367C0813FA4
:1026900029F480912B031816BCF360C090912A0393
:1026A000823F29F497FF5AC010922A0357C0833FF4
:1026B00019F41916CCF352C090912C03893F31F4D0
:1026C00019160CF04BC010922C0348C08A3F19F425
:1026D00097FF44C0F8CF8B3F39F480912D0387FFDB
:1026E0003DC010922D033AC08C3F29F480912D03F8
:1026F0001816BCF333C0843F21F4809129038E7FE8
:1027000017C0853F21F4809129038D7F11C0863F3A
:1027100021F4809129038B7F0BC0873F21F48091A6
:102720002903877F05C0883F31F4809129038F7E7C
:102730008093290313C08D3F21F48091C1028E7FC5
:102740000BC08E3F21F48091C1028D7F05C08F3F69
:1027500029F48091C1028B7F8093C10280912A036A
:10276000811106C080912B03811102C010922503B4
:1027700080912C03811106C080912D03811102C02C
:102780001092220308958091C10280FD16C081FD40
:1027900016C082FD18C080912203882391F08832F0
:1027A00090F428E0829FC001112468E270E00E944A
:1027B0000B26862F672B29F007C082E0089584E05E
:1027C000089581E0089588E008958091C10280FD18
:1027D00017C081FD17C082FD19C080912503882391
:1027E00099F08C3398F423E2829FC00111246CE3AA
:1027F00070E00E940B26862F672B49F481E0089534
:1028000088E0089581E1089585E0089583E20895C0
:10281000803F21F40E94E513819504C0813F29F493
:102820000E94E51380932B030895823F21F40E94B8
:10283000E513819504C0833F29F40E94E51380933A
:102840002A030895893F19F40E94C31305C08A3FE3
:1028500031F40E94C313819580932C0308958B3F1C
:1028600021F40E94C313819504C08C3F29F40E9477
:10287000C31380932D030895843F21F4809129038D
:10288000816017C0853F21F480912903826011C0C7
:10289000863F21F48091290384600BC0873F21F497
:1028A00080912903886005C0883F31F48091290315
:1028B00080618093290308958D3F21F48091C102A6
:1028C00081600BC08E3F21F48091C102826005C0FF
:1028D0008F3F29F48091C10284608093C1020895E2
:1028E00078941F920F920FB60F9211248F939F939B
:1028F000AF93BF938091BD029091BE02A091BF02A1
:10290000B091C0020196A11DB11D8093BD029093AC
:10291000BE02A093BF02B093C002BF91AF919F913E
:102920008F910F900FBE0F901F9018959C014FB77D
:10293000F8948091BD029091BE02A091BF02B09127
:10294000C0024FBF821B930B08952FB7F89480915C
:10295000BD029091BE02A091BF02B091C0022FBFF4
:1029600008950E94A51420912A03211104C02091EA
:102970002B03222321F09093270380932603209199
:102980002C03211104C020912D03222321F09093C8
:10299000240380932303E0911103F09112033097F5
:1029A00049F082E0809328030480F581E02D88E2DD
:1029B00093E0099408951F920F920FB60F9211247D
:1029C0008F939F93AF93BF9380911303811113C093
:1029D0008091BD029091BE02A091BF02B091C00251
:1029E0004196A11DB11D8093BD029093BE02A0939C
:1029F000BF02B093C002BF91AF919F918F910F9092
:102A00000FBE0F901F901895209106012223C9F048
:102A100020910F0327FF15C0262F26952695269572
:102A20002E31C8F4FC01E20FF11D677081E090E0E7
:102A300001C0880F6A95EAF7809592818923828385
:102A40000895FC0106962281621301C0128231961C
:102A5000E817F907C1F70895209106012223C1F074
:102A600020910F0327FF14C0262F26952695269523
:102A70002E3130F5FC01E20FF11D677081E090E02E
:102A800001C0880F6A95EAF79281892B82830895A5
:102A9000FC0132962FEF30E04191641789F02F3F0F
:102AA00019F4411101C0232F3F5F3630A9F72F3FA2
:102AB00039F0FC01E20FF11D27FDFA9562830895BC
:102AC0000895CF9384E090E00E941824C82F81E2FB
:102AD00090E00E9418242C2F30E0A901582BCA0145
:102AE000CF9108956CEE7EEF80E090E00E944A2442
:102AF00060E082E090E00E942C2460E083E090E0BF
:102B00000E942C241092B9021092BA021092BB02B9
:102B10001092BC0260E084E090E00E942C2460E00F
:102B200081E290E00E942C2460E085E090E00E9429
:102B30002C2460E086E090E00E942C246FEF87E078
:102B400090E00E942C2440E050E0BA0188E090E040
:102B50000E943E2460E08DE090E00E942C2440E042
:102B600050E0BA0188E190E00E943E2460E087E1F5
:102B700090E00E942C2440E050E0BA018CE190E00B
:102B80000E943E2460E080E290E00E942C2440E01D
:102B900050E0BA0188E190E00E943E241092F902D0
:102BA0001092FA021092FB021092FC0284E0806103
:102BB0008093F9024091F9025091FA026091FB0270
:102BC0007091FC028FE090E00E943E2440E050E0D3
:102BD000BA0183E190E00C943E248091B802811107
:102BE0001092B80208959091B7028091B602892B95
:102BF0002091B502982F922B909325028091B802D4
:102C00008823D9F0892B809325028091060188239F
:102C100031F080910F0387FF02C08EE101C086E092
:102C2000E7E2F2E090E0815028F021912223D9F3ED
:102C30009F5FF9CF91110E94ED15E0911103F09182
:102C400012033097A9F080910601882359F08091F2
:102C50000F0387FF07C0809125028093260285E03D
:102C6000809325020280F381E02D85E292E00994B1
:102C70000895BF92CF92DF92EF92FF920F931F932E
:102C8000CF93DF938C01C0900B03D0900C03E090A6
:102C90000D03F0900E038091B9029091BA02A091B9
:102CA000BB02B091BC02C82AD92AEA2AFB2ACFE18A
:102CB000D0E0D701C6010C2E04C0B695A795979514
:102CC00087950A94D2F780FD04C0219790F7B12C24
:102CD00007C0BC2EB8018C2F0E943F0D0197A9F3AD
:102CE0008B2DDF91CF911F910F91FF90EF90DF908F
:102CF000CF90BF900895CF93DF93EC010E943916D7
:102D0000BE010E943F0DDF91CF910895292F220F20
:102D1000920F990F890F682F669566956695982F83
:102D2000977085E0689FB001112440E050E080E09A
:102D3000FB01E40FF51FE358FD4F208130E0092E21
:102D400002C0369527950A94E2F721703327042EA6
:102D500001C0220F0A94EAF7822B4F5F5F4F453084
:102D6000510531F70895292F220F920F990F890FDE
:102D7000E82FE695E695E695877051E001C0550F7E
:102D80008A95EAF785E0E89FF0011124E358FD4FAA
:102D900020E030E070E04081CB01022E02C0969529
:102DA00087950A94E2F7817081958427852384278B
:102DB00081932F5F3F4F2530310569F708950E94B9
:102DC000C40F60930B0370930C0380930D039093D7
:102DD0000E030C94DA190F931F9341E050E060E06A
:102DE00070E004C0440F551F661F771F8A95D2F705
:102DF000409550956095709580910B0390910C03D0
:102E0000A0910D03B0910E038A019B0108231923A1
:102E10002A233B23C901B8011F910F910C94DF169F
:102E20002091B402809582238093B402982F9770EA
:102E300079F430E0482F082E000C550B2417350785
:102E400039F08595859585950E94EB161092B40210
:102E500008950F931F9341E050E060E070E004C0DC
:102E6000440F551F661F771F8A95D2F780910B0379
:102E700090910C03A0910D03B0910E038A019B0168
:102E8000082B192B2A2B3B2BC901B8011F910F913D
:102E90000C94DF166093B9027093BA028093BB0260
:102EA0009093BC020C94DA1980917C0290914B02B1
:102EB000891719F08F5F8770FBCF08950F931F93C9
:102EC000CF93DF9380914A0282958F7009F05DC0A5
:102ED00080914702882309F458C080917C021091A8
:102EE0004B026091450270914602C0914802D09118
:102EF000490291E06F3F09F090E0292F06E0811729
:102F000009F443C0209721F07F3F21F030E003C057
:102F100031E001C0322F90E030FD34C0089FF00155
:102F2000099FF00D1124DF01A45BBD4F11963C9168
:102F30001197371327C03C91361324C012963C9149
:102F4000129731111FC013964D915C9114974C1B31
:102F50005D0B483C5105B0F480914A028F7080614E
:102F600080934A02EF5AFD4F80818F708061808389
:102F700085E492E00E943003DF91CF911F910F9181
:102F80000C94541701968770BACFDF91CF911F919F
:102F90000F9108950E947B16292F2F70E92FE2953B
:102FA000EF704E2F50E0FA013297EE30F105B8F491
:102FB000E958FF4F0C943E26803F99F018F4883E64
:102FC00070F40FC0843F59F40CC0883E50F0813F2C
:102FD00031F407C0822F869586958695089580E006
:102FE000089581E00895882341F080959091B6027C
:102FF00089238093B6020C94F3150895882339F041
:103000009091B602892B8093B6020C94F315089523
:10301000882341F080959091B70289238093B7026D
:103020000C94F3150895882339F09091B702892BF9
:103030008093B7020C94F31508959F92AF92BF92BC
:10304000CF92DF92EF92FF920F931F93CF93DF9374
:10305000CDB7DEB761970FB6F894DEBF0FBECDBF18
:103060008C0185E0F801DE011D9601900D928A9594
:10307000E1F7F80190818181E28030914502609111
:10308000460240914802509149024115510531F0E4
:103090006F3F31F421E03F3F19F403C021E001C04C
:1030A00020E0F22FF1709F2E20FD23C1F801C38094
:1030B000D48025E4A22E22E0B22EF0904702F60141
:1030C000E41BF50BFF2009F4CEC020914A02E83C36
:1030D000F10508F099C0422F407F09F051C06813F4
:1030E00011C039130FC0FE2CE1100CC02F702061ED
:1030F00020934A02C5010E94300380914A02F801E0
:10310000858345C1CD2831F08F3F31F421E09F3FC9
:1031100019F403C021E001C020E020FD03C021E03C
:103120002E2502C020E030E0F22FF170FF2E20FFAC
:103130001DC020917C0240914B0256E0241709F4F7
:1031400004C130E0529FF001539FF00D1124E45B65
:10315000FD4F6181861306C06081961303C06281B2
:10316000E61204C02F5F3F4F2770E8CFFE2CEE2001
:1031700009F40DC180914A02816080934A0250C0D7
:10318000681307C0391305C0E11003C0F801258397
:103190008DC09D878E878D859E850E94CA17882346
:1031A00069F1EE2059F120914A02822F82958F70A9
:1031B00090E0029774F080914502909146029887C2
:1031C0008F831986DB86CA862C87CE0107960E94DC
:1031D000300386E0F801A5E4B2E001900D928A95F3
:1031E000E1F70E945E170DC06817E1F09D878E879A
:1031F0008D859E850E94CA1781111EC0C8010E943C
:103200003003FF24F394C3C0422F407F69F785E465
:1032100092E00E94300386E0F50111928A95E9F769
:10322000F12CB5C03913E2CFE110E0CFF8012583CE
:10323000C8010E94300357C0EE2001F320914A02DA
:10324000822F82958F7090E002971CF28091450248
:10325000909146029A8389831B82DD82CC822E83E1
:10326000CE010196B4CFE83CF105E8F5FE2CEE2046
:1032700029F2681327C0391325C020914A0220FD86
:1032800018C0822F82958F70482F50E0411551054C
:1032900081F0F80125834F30510541F08F5F982F61
:1032A0009295907F822F8F70892B8583C8010E9411
:1032B000300386E0F801A5E4B2E001900D928A9512
:1032C000E1F765C09D878E878D859E850E94CA1710
:1032D00081117FCF80914A02816080934A02C801A8
:1032E0000E94300354C086E0F50111928A95E9F7F7
:1032F0004EC0EE2009F482CF9D878E878D859E85F6
:103300000E94CA17F82E882309F478CF86E0F801C6
:10331000A5E4B2E001900D928A95E1F78091450213
:10332000909146020E947B1692959F70963051F4C0
:10333000863F41F08091C30291E089278093C302C8
:103340009093C2020E945E1722C09D878E878D8552
:103350009E850E947B16292F22952F70223028F4FB
:103360009F7039F0811105C00BC0243028F49F7084
:1033700049F4805E883020F0C8010E9430039F2C01
:10338000F92C05C0F8019581907F99F7F9CF8F2D21
:1033900061960FB6F894DEBF0FBECDBFDF91CF911F
:1033A0001F910F91FF90EF90DF90CF90BF90AF9063
:1033B0009F9008951092B6021092B5020E94F315E4
:1033C000E8E2F3E086E0DF011D928A95E9F71092CA
:1033D0002503109222031092C1020E94B11480E0D2
:1033E00090E00E941D0D80E090E00C94070D10927B
:1033F000B70280910601882331F080910F0387FF87
:1034000002C08EE101C086E0E7E2F2E0DF011D923A
:103410008A95E9F70C94DA19882309F463C0823895
:1034200069F40E94330D81FF5DC069E385E292E09B
:103430000E942C150E94F31569E30EC0833891F4A5
:103440000E94330D80FF4EC063E585E292E00E944A
:103450002C150E94F31563E585E292E00E940415A5
:103460000C94F315843869F40E94330D82FF3AC03E
:1034700067E485E292E00E942C150E94F31567E450
:10348000EBCF9CEF980F913A10F4682FE5CF90E2C4
:10349000980F983088F4877021E030E0A90102C0CD
:1034A000440F551F8A95E2F7CA0180959091B702A3
:1034B00089238093B702D4CF9BE5980F933020F4F3
:1034C00080E090E00C941D0D98E5980F973120F462
:1034D00080E090E00C94070D803F20F00E943E13A6
:1034E0000C94B1140895CF93882309F4BEC0C82F5B
:1034F0008238B1F40E94330D81FDB7C069E385E2E3
:1035000092E00E942C150E94F3152FEF81EE94E0BB
:10351000215080409040E1F700C0000069E317C0EF
:103520008338E1F40E94330D80FD9FC063E585E29E
:1035300092E00E942C150E94F3152FEF81EE94E08B
:10354000215080409040E1F700C0000063E585E233
:1035500092E00E940415CF910C94F3158438B1F4D5
:103560000E94330D82FD81C067E485E292E00E94F3
:103570002C150E94F3152FEF81EE94E0215080402E
:103580009040E1F700C0000067E4E1CF8CEF8C0FC2
:10359000813AC0F5809106018823E1F080910F0304
:1035A00087FF18C0EC2FE695E695E695F0E0EB5D19
:1035B000FD4F8281282F30E04C2F477081E090E052
:1035C00002C0880F991F4A95E2F782239323892B23
:1035D00061F412C0E7E2F2E08DE292E02191C217BD
:1035E00021F08E179F07D1F707C06C2F85E292E07C
:1035F0000E9404150E94F3156C2F85E292E00E9450
:103600002C15A9CF80E28C0F883068F4C77081E058
:1036100090E001C0880FCA95EAF79091B702892B14
:103620008093B70298CFEBE5EC0FE33040F4F0E085
:10363000E054FE4F808190E0CF910C941D0DE8E5A1
:10364000EC0FE73150F4F0E0EE0FFF1FED53FE4FAB
:1036500080819181CF910C94070DC03F30F08C2F69
:103660000E940814CF910C94B114CF910895CF9378
:10367000C82F0E94731AC93349F42FEF87EE93E0E5
:10368000215080409040E1F700C000008C2FCF9186
:103690000C940C1AEF92FF920F931F93CF93DF932A
:1036A0007C018B010E94E41F811119C0E701011503
:1036B0001105A1F08091E80085FD0AC08091E80025
:1036C0008E778093E8000E94E41F882381F307C06F
:1036D00089918093F10001501109E9CF80E0DF91D9
:1036E000CF911F910F91FF90EF9008951F93CF936B
:1036F000DF93CDB7DEB7AA970FB6F894DEBF0FBE43
:10370000CDBFEBEEF2E08091F100819322E0E33F48
:10371000F207C9F78091EC02833009F460C030F4FD
:10372000813071F0823009F49AC0B1C08A3009F456
:1037300086C08B3009F46BC0893009F0A8C020C066
:103740008091EB02813A09F0A2C08091E800877F66
:103750008093E8008091EF029091F002892B21F490
:1037600060E287EC92E003C060E080E090E070E00F
:103770000E946B208091E8008B778093E80087C0DF
:103780008091EB02813209F082C08091EF0290912A
:10379000F002029708F07BC08091E800877F809359
:1037A000E8008091E80082FD05C08091E902811166
:1037B000F8CF6DC02091F3008091F20090E0922B41
:1037C000029729F48091F1008B7F813021F4809160
:1037D000F1008093C6028091E8008B7754C08091FD
:1037E000EB02813A09F053C08091EF029091F00210
:1037F000892B09F04CC08091E800877F8093E80016
:103800008091E80080FFFCCF8091060137C0809155
:10381000EB028132E1F58091EF029091F002892B69
:10382000B1F58091E800877F8093E8000E9417201F
:103830008091ED02809306010E94F71928C08091C3
:10384000EB02813221F58091E800877F8093E800C8
:103850000E9417208091EE028093C50218C08091CB
:10386000EB02813AA1F48091E800877F8093E80021
:103870008091E80080FFFCCF8091C5028093F10029
:103880008091E8008E778093E8000E941720809155
:10389000E80083FFCCC18091EB029091EC02492FAC
:1038A00050E04A30510508F0C2C1FA01EB57FF4F12
:1038B0000C943E26803821F0823809F0B8C108C047
:1038C0008091E7029091E802992389F082600FC00D
:1038D0008091EF028F70873008F0A9C18093E900D2
:1038E0008091EB0085FB882780F91092E900909188
:1038F000E800977F9093E8008093F1001092F10028
:1039000065C1282F2D7F09F092C1882319F08230DC
:1039100061F08DC18091ED02813009F088C1933052
:1039200009F080E08093E8022EC08091ED028111C1
:103930002AC08091EF028F702FEF280F263008F0F9
:1039400076C18093E9002091EB0020FF1CC09330EA
:1039500021F48091EB00806214C09091EB009061A3
:103960009093EB0021E030E0A90102C0440F551F05
:103970008A95E2F74093EA001092EA008091EB000A
:1039800088608093EB001092E9008091E800877FC7
:1039900020C181114CC11091ED021F778091E3008D
:1039A0008078812B8093E3008091E800877F80936B
:1039B000E8000E9417208091E80080FFFCCF8091F2
:1039C000E30080688093E300111102C082E001C02F
:1039D00083E08093E9022BC18058823008F027C130
:1039E0008091ED029091EE028C3D53E0950779F5C0
:1039F00083E08A838AE289834FB7F894DE011396C5
:103A000020E03EE051E2E32FF0E050935700E491D4
:103A100020FF03C0E295EF703F5FEF708E2F90E0C4
:103A2000EA3010F0C79601C0C0968D939D932F5F2A
:103A3000243149F74FBF8091E800877F8093E800E9
:103A40006AE270E0CE0101960E946B20AEC0409108
:103A5000EF025091F002292F332723303105A9F0CE
:103A600068F42130310509F4F1C02230310509F044
:103A7000DEC08BE390E0EEE8F5E044C02132310592
:103A800021F12232310571F1D2C09927813091059F
:103A9000A1F058F0029709F0CAC0EBEDF5E0E4910F
:103AA0008E2F90E0EBEDF5E02AC0EDE1F6E0E49139
:103AB0008E2F90E0EDE1F6E022C0E3EFF5E0E49137
:103AC0008E2F90E0E3EFF5E01AC04115510509F49F
:103AD000C2C04130510509F0AAC089E090E0E9EB8D
:103AE000F5E010C04115510509F4BAC04130510547
:103AF00009F09DC08CEB90E0E2E9F4E003C0009790
:103B000009F495C02091E800277F2093E8002091D8
:103B1000F1023091F2028217930708F49C0140E011
:103B20002115310589F18091E902882309F43DC00E
:103B30008530D9F18091E80083FD37C08091E8009D
:103B400082FD2FC08091E80080FFEACF4091F30012
:103B50008091F20090E0942B2115310559F08830C6
:103B6000910540F444914093F10031962150310980
:103B70000196F2CF41E0089709F040E08091E8001B
:103B80008E778093E800CCCF4111CDCF0AC08091D1
:103B9000E902882351F0853041F08091E80083FDEF
:103BA00004C08091E80082FFF2CF8091E8008B771B
:103BB0008093E8003CC08038D1F58091E800877F91
:103BC0008093E8008091EA028093F1008091E80000
:103BD0008E778093E8000E94172029C0811127C0AA
:103BE0008091ED029091EE029927029704F5809161
:103BF000E800877F8093E8001091ED021093EA02BD
:103C00000E941720111106C08091E30087FD02C0B9
:103C100081E001C084E08093E90242E061EC81E050
:103C20000E94362042E261EC82E00E9436208091C0
:103C3000E80083FF1AC08091E800877F8093E80046
:103C40008091EB0080628093EB000FC082E190E0F6
:103C5000E9ECF5E057CF89E090E0E0EAF5E052CFFB
:103C600080E490E0EEE4F5E04DCFAA960FB6F8942C
:103C7000DEBF0FBECDBFDF91CF911F9108951F9280
:103C80000F920FB60F9211242F933F934F935F9390
:103C90006F937F938F939F93AF93BF93CF93DF9354
:103CA000EF93FF93C091E900CF708091EC00D82F83
:103CB000D17080FDD0E81092E9008091F000877FFC
:103CC0008093F00078940E94761B1092E900809116
:103CD000F00088608093F000CD2BCF70C093E90096
:103CE000FF91EF91DF91CF91BF91AF919F918F9114
:103CF0007F916F915F914F913F912F910F900FBEE8
:103D00000F901F901895E8EDF0E080818E7F808302
:103D10001092E2001092DA001092E100A0EEB0E002
:103D20008C9181608C9380818F77808319BCA7ED03
:103D3000B0E08C918E7F8C9380818F7E80831092F7
:103D4000C4020895CF92DF92EF92FF920F931F93D8
:103D5000CF93DF93C8EDD0E088818F7E8883E7ED35
:103D6000F0E080818160808384E082BF81E0809385
:103D7000C40288818E7F888302EE10E0F8011082F1
:103D80001092DA0081EEC82ED12CF60110828881C3
:103D90008F77888388818068888388818F7D8883F6
:103DA00019BC1092E9021092EA021092E8021092F5
:103DB000E70290EEE92EF12CF70180818B7F808362
:103DC00088818160888342E060E080E00E94362044
:103DD000F60180818E7F8083F801808181608083FD
:103DE000808188608083F70180818E7F80838881D5
:103DF00080618883DF91CF911F910F91FF90EF90A9
:103E0000DF90CF9008951F920F920FB60F9211245A
:103E10002F933F934F935F936F937F938F939F93D2
:103E2000AF93BF93EF93FF938091E10082FF09C0AE
:103E30008091E20082FF05C08091E1008B7F80933A
:103E4000E1008091DA0080FF2AC08091D80080FFD5
:103E500026C08091DA008E7F8093DA008091D900AD
:103E600080FF18C080E189BD82E189BD09B400FEF0
:103E7000FDCF81E08093E9028091C40281110FC0DF
:103E80000E94831E0E94A21E8091E20084608093A3
:103E9000E20005C019BC1092E9021092C4028091A0
:103EA000E10080FF17C08091E20080FF13C0809185
:103EB000E2008E7F8093E2008091E2008061809337
:103EC000E2008091D80080628093D80019BC85E020
:103ED0008093E9028091E10084FF32C08091E2008A
:103EE00084FF2EC080E189BD82E189BD09B400FE56
:103EF000FDCF8091D8008F7D8093D8008091E10024
:103F00008F7E8093E1008091E2008F7E8093E200BB
:103F10008091E20081608093E2008091EA02882330
:103F200011F084E007C08091E30087FD02C081E0CA
:103F300001C083E08093E9020E94F7190E94330DCB
:103F40008091E10083FF27C08091E20083FF23C0BE
:103F50008091E100877F8093E10082E08093E90215
:103F60001092EA028091E1008E7F8093E1008091BF
:103F7000E2008E7F8093E2008091E2008061809376
:103F8000E20042E060E080E00E9436208091F00094
:103F900088608093F000FF91EF91BF91AF919F9166
:103FA0008F917F916F915F914F913F912F910F90E2
:103FB0000FBE0F901F901895BC0184E00C940B135A
:103FC000BC0183E00C940B132091E4003091E500D8
:103FD00095E64091EC00842F817040FF23C08091D2
:103FE000E80080FD1DC08091E902882399F08530AA
:103FF00099F08091EB0085FD11C04091E400509153
:10400000E5002417350729F3915011F09A01E1CF0B
:1040100084E0089582E0089583E0089581E00895A2
:1040200080E008954091E80042FFDDCF089580913F
:10403000EB0287FF11C08091E80082FD05C08091EE
:10404000E9028111F8CF11C08091E8008B770BC095
:104050008091E902882349F08091E80080FFF8CF41
:104060008091E8008E778093E8000895982F97302C
:1040700068F59093E900981739F07091EC00209161
:10408000ED005091F00003C0242F762F50E021FD69
:1040900002C09F5FECCF3091EB003E7F3093EB008E
:1040A0003091ED003D7F3093ED003091EB003160B9
:1040B0003093EB007093EC002093ED005093F000F0
:1040C0002091EE0027FDE5CF80E008958F7080936A
:1040D000E90081E008952091F1023091F202261763
:1040E000370748F06115710539F42091E8002E7703
:1040F0002093E80001C0B901FC0120E061157105C1
:1041000079F18091E9028823F1F18530F1F1809114
:10411000E80083FD3CC08091E80082FD2EC08091C4
:10412000E80080FFEBCF2091F3008091F20090E057
:10413000922B6115710551F08830910538F4219169
:104140002093F100615071090196F3CF21E00897A7
:1041500009F020E08091E8008E778093E800CECFD0
:104160002111CFCF0AC08091E902882361F0853008
:1041700061F08091E80083FD0AC08091E80082FF31
:10418000F2CF80E0089582E0089583E0089581E011
:104190000895CF93DF93CDB7DEB760970FB6F8944D
:1041A000DEBF0FBECDBF84B7877F84BF0FB6F89444
:1041B000A8958091600088618093600010926000F3
:1041C0000FBE90E080E80FB6F89480936100909362
:1041D00061000FBE85B7806885BF85B7806885BFE1
:1041E0000E94831E0E94A21E8091E2008460809340
:1041F000E20078948091E9028823A1F01091E9000F
:104200001F709091EC00892F817090FD80E8182B31
:104210001092E9008091E80083FD0E94761B1F70D8
:104220001093E90082E084BD93E095BD9AEF97BDBD
:1042300080936E000E943B1090E090930801809361
:1042400007010E940A110E941911EDEFF2E0A4E1AA
:10425000B3E011921D9223E0EB30F207D1F78EE02C
:1042600090E00E9466268093F3029093F402FC0192
:104270000E962BEF2193E817F907E1F780E090E025
:104280000E9426248C3E9E4F11F00E9472158CE0F5
:1042900090E00E94182490E0A0E0B0E08093F50246
:1042A0009093F602A093F702B093F80289EA809304
:1042B000800089E08093810024982C983F988AB1EF
:1042C0008F7C8AB96E98479A8BB180638BB9769A46
:1042D0008FE090E00E9420246093F9027093FA022C
:1042E0008093FB029093FC0267704FEF649FB001D4
:1042F0001124759567957595679577277093890053
:104300006093880070938B0060938A0070938D0097
:1043100060938C000E94B21080E090E00E942624FE
:104320008C3E9E4F11F00E94721582E090E00E9438
:10433000182480932F030E9461159093100380939B
:104340000F0383E090E00E941824682F70E080E063
:1043500090E00E944A1760910B0370910C038091CA
:104360000D0390910E030E94C40F89E091E0909399
:10437000120380931103BB24B394AA24AA9482E26B
:10438000E82E83E0F82E90E1992E22E1822E38E18A
:10439000C32ED12C40E4742E8091E902853009F0BF
:1043A00045C08091E902843009F1109213030FB6E1
:1043B000F894A895C09260000FBE7092600083B719
:1043C000817F846083BF83B7816083BF7894889541
:1043D00083B78E7F83BF0FB6F894A8958091600055
:1043E000886180936000109260000FBE8091E802A7
:1043F000882391F20E943B1090E0909308018093F3
:1044000007010E940A110E941911E4E1F3E01192E0
:10441000EE16FF06E1F70E949911E4E1F3E08191C5
:10442000811134C1EE16FF06D1F7B6CF0E94991163
:10443000E0E3F3E0A4E1B3E000E010E0302F2D91E1
:104440009191922721F180E066246394462D4923BF
:10445000D1F08F833887262181E009F480E08987B5
:104460000E94A5148160782F9B878A874F81588589
:1044700069858B850E942C0CF801E05DFC4F8081E2
:104480006826608218C08F5F660C8630F9F60F5F71
:104490001F4F0E30110591F6AC86AD861E860E9428
:1044A000A5148160782F988B8F874C855D856E85EC
:1044B00088890E942C0C86E0E8E2F3E0DE01119688
:1044C00001900D928A95E1F750902A0360902B039A
:1044D00000912C0310912D0310922A0310922B03AC
:1044E00010922C0310922D03511003C0662009F482
:1044F0004FC080912603909127030E9496149C013F
:1045000090912503992309F4D5C02531310508F48C
:104510003FC09F3F19F09F5F90932503552061F0A6
:104520000E94E513151414F09FEF01C091E0899FDC
:10453000802D112480932A03662061F00E94E513E8
:10454000161414F09FEF01C091E0899F802D112473
:1045500080932B0330912A033323D1F020912B0336
:104560002223B1F045EB3403C0011124992319F043
:1045700090932A0302C0B0922A0335EB2303C001B3
:104580001124992319F090932B0302C0B0922B03AE
:10459000011103C0112309F44FC0809123039091AE
:1045A00024030E9496149C0190912203992309F4FC
:1045B00085C02536310508F43FC09F3F19F09F5F45
:1045C00090932203002361F00E94C313101614F08D
:1045D0009FEF01C091E0899F802D112480932C03CF
:1045E000112361F00E94C313111614F09FEF01C054
:1045F00091E0899F802D112480932D0330912C030D
:104600003323D1F020912D032223B1F045EB340365
:10461000C0011124992319F090932C0302C0B09289
:104620002C0335EB2303C0011124992319F0909337
:104630002D0302C0B0922D0380912A0381110BC07B
:1046400080912B03811107C080912C03811103C03D
:1046500080912D0381110E94B1145B826C820D83C5
:104660001E8386E0FE013196A8E2B3E001900D9230
:104670008A95E1F70E94330D90912E03891709F472
:104680008BCE0E94330D80932E0386CE99BC89BCBD
:1046900009B400FEFDCF8091D8008F7D8093D800B3
:1046A0008091E00082608093E0008091E00081FDD5
:1046B000FCCF72CE232B09F02ECF6ACF232B09F02B
:1046C0007ECFBACF1092B9008CE08093B8000895E5
:1046D000EF92FF920F931F93CF93DF93182FEB016D
:1046E0001092BC0084EA8093BC000E94A5147C0157
:1046F0008091BC0087FD0EC0CF3F8FEFD807C1F37C
:104700000E94A5148E199F098C179D0788F38EEFC0
:104710009FEF2EC08091B900887F883041F0809152
:10472000B900887F803119F08FEF9FEF21C010937F
:10473000BB0084E88093BC000E94A5148C0180918A
:10474000BC0087FD0CC0CF3F8FEFD807C1F30E949C
:10475000A514801B910B8C179D0788F3D8CF8091EF
:10476000B900887F883111F08034F1F680E090E064
:10477000DF91CF911F910F91FF90EF9008950F93CC
:104780001F93CF93DF93EB018093BB0084E880936A
:10479000BC000E94A5148C018091BC0087FD0EC056
:1047A000CF3F8FEFD807C1F30E94A514801B910B58
:1047B0008C179D0788F38EEF9FEF0CC02091B900F6
:1047C000287F81E090E0283211F480E090E091951C
:1047D00081959109DF91CF911F910F9108950F93CA
:1047E0001F93CF93DF93EC0184E88093BC000E9479
:1047F000A5148C018091BC0087FD0EC0CF3F8FEFC8
:10480000D807C1F30E94A514801B910B8C179D073C
:1048100088F38EEF9FEF03C08091BB0090E0DF91A3
:10482000CF911F910F91089584E98093BC00089562
:10483000F999FECF92BD81BDF89A992780B5089568
:10484000A6E1B0E044E050E00C945224A8E1B0E0CE
:1048500042E050E00C945224262FF999FECF92BDED
:1048600081BDF89A019700B4021639F01FBA20BD35
:104870000FB6F894FA9AF99A0FBE08950396272F67
:104880000E942D240E942C24252F0E942D24242FA9
:104890000C942D240196272F0E942D240C942C2457
:1048A000DC01CB01FC01F999FECF06C0F2BDE1BDF0
:1048B000F89A319600B40D9241505040B8F70895DF
:1048C0005058BB27AA270E9478240C9450250E9498
:1048D000422538F00E94492520F039F49F3F19F411
:1048E00026F40C943F250EF4E095E7FB0C94392553
:1048F000E92F0E94612558F3BA17620773078407EE
:10490000950720F079F4A6F50C9483250EF4E09534
:104910000B2EBA2FA02D0B01B90190010C01CA0179
:10492000A0011124FF27591B99F0593F50F4503E24
:1049300068F11A16F040A22F232F342F4427585F16
:10494000F3CF469537952795A795F0405395C9F72E
:104950007EF41F16BA0B620B730B840BBAF09150E6
:10496000A1F0FF0FBB1F661F771F881FC2F70EC085
:10497000BA0F621F731F841F48F487957795679558
:10498000B795F7959E3F08F0B0CF9395880F08F044
:104990009927EE0F9795879508950E94692588F0CD
:1049A0009F5798F0B92F9927B751B0F0E1F0660FF3
:1049B000771F881F991F1AF0BA95C9F714C0B13034
:1049C00091F00E948325B1E008950C948325672F10
:1049D000782F8827B85F39F0B93FCCF38695779563
:1049E0006795B395D9F73EF490958095709561954C
:1049F0007F4F8F4F9F4F0895E89409C097FB3EF477
:104A000090958095709561957F4F8F4F9F4F99231B
:104A1000A9F0F92F96E9BB279395F6958795779599
:104A20006795B795F111F8CFFAF4BB0F11F460FF59
:104A30001BC06F5F7F4F8F4F9F4F16C0882311F0B1
:104A400096E911C0772321F09EE8872F762F05C0C5
:104A5000662371F096E8862F70E060E02AF09A9560
:104A6000660F771F881FDAF7880F9695879597F955
:104A7000089597F99F6780E870E060E008959FEFE0
:104A800080EC089500240A941616170618060906E5
:104A9000089500240A9412161306140605060895B4
:104AA000092E0394000C11F4882352F0BB0F40F43C
:104AB000BF2B11F460FF04C06F5F7F4F8F4F9F4F7C
:104AC000089557FD9058440F551F59F05F3F71F0FE
:104AD0004795880F97FB991F61F09F3F79F0879565
:104AE0000895121613061406551FF2CF4695F1DFEE
:104AF00008C0161617061806991FF1CF869571057E
:104B0000610508940895E894BB2766277727CB01B1
:104B100097F908950E949D250C9450250E944225E6
:104B200038F00E94492520F0952311F00C94392586
:104B30000C943F2511240C9484250E94612570F368
:104B4000959FC1F3950F50E0551F629FF001729F32
:104B5000BB27F00DB11D639FAA27F00DB11DAA1F41
:104B6000649F6627B00DA11D661F829F2227B00D8E
:104B7000A11D621F739FB00DA11D621F839FA00D19
:104B8000611D221F749F3327A00D611D231F849F69
:104B9000600D211D822F762F6A2F11249F575040C0
:104BA0009AF0F1F088234AF0EE0FFF1FBB1F661F3B
:104BB000771F881F91505040A9F79E3F510580F004
:104BC0000C9439250C9484255F3FE4F3983ED4F38C
:104BD000869577956795B795F795E7959F5FC1F7A8
:104BE000FE2B880F911D9695879597F90895AA1B1E
:104BF000BB1B51E107C0AA1FBB1FA617B70710F0C8
:104C0000A61BB70B881F991F5A95A9F780959095F9
:104C1000BC01CD01089597FB072E16F4009407D030
:104C200077FD09D00E94F72507FC05D03EF490954A
:104C300081959F4F0895709561957F4F0895052E3A
:104C400097FB1EF400940E94362657FD07D00E9461
:104C5000442607FC03D04EF40C943626509540951C
:104C6000309521953F4F4F4F5F4F08959095809518
:104C7000709561957F4F8F4F9F4F0895EE0FFF1FE7
:104C80000590F491E02D0994A1E21A2EAA1BBB1BFA
:104C9000FD010DC0AA1FBB1FEE1FFF1FA217B30708
:104CA000E407F50720F0A21BB30BE40BF50B661F1E
:104CB000771F881F991F1A9469F7609570958095E2
:104CC00090959B01AC01BD01CF0108950F931F93F7
:104CD000CF93DF938230910510F482E090E0E09171
:104CE0004003F091410320E030E0A0E0B0E03097D5
:104CF00019F1408151810281138148175907C8F089
:104D00008417950769F4109731F012960C93129757
:104D100013961C9327C0009340031093410322C0B5
:104D20002115310519F04217530718F49A01BD01F6
:104D3000EF01DF01F801DBCF21153105F9F0281B68
:104D4000390B2430310580F48A819B81611571050E
:104D500021F0FB019383828304C0909341038093ED
:104D60004003FE01329644C0FE01E20FF31F81931F
:104D7000919322503109398328833AC020913E0310
:104D800030913F03232B41F4209102013091030124
:104D900030933F0320933E032091000130910101A5
:104DA0002115310541F42DB73EB7409104015091D2
:104DB0000501241B350BE0913E03F0913F03E21700
:104DC000F307A0F42E1B3F0B2817390778F0AC012E
:104DD0004E5F5F4F2417350748F04E0F5F1F50930B
:104DE0003F0340933E038193919302C0E0E0F0E0E3
:104DF000CF01DF91CF911F910F910895CF93DF9352
:104E0000009709F481C0FC01329713821282A091AD
:104E10004003B0914103109781F420813181820FCA
:104E2000931F20913E0330913F032817390751F516
:104E3000F0933F03E0933E0367C0ED0120E030E0D4
:104E4000CE17DF0740F44A815B819E014115510571
:104E5000F1F0EA01F5CFD383C28340815181840F01
:104E6000951FC817D90759F488819981840F951F18
:104E70000296918380838A819B819383828321150B
:104E8000310529F4F0934103E09340033DC0E9016B
:104E9000FB83EA8349915991C40FD51FEC17FD0795
:104EA00061F480819181840F951F0296E9019983B5
:104EB0008883828193819B838A83E0E0F0E012966D
:104EC0008D919C911397009719F0FD01DC01F7CFAC
:104ED0008D919C9111979D012E5F3F4F820F931FE3
:104EE00020913E0330913F032817390769F430972A
:104EF00029F4109241031092400302C013821282DF
:104F0000B0933F03A0933E03DF91CF910895AEE0AD
:104F1000B0E0EDE8F7E20C94482A0D891E8986E09E
:104F20008C831A8309838FEF9FE79E838D83AE0165
:104F3000475E5F4F6F89788DCE0101960E94A92749
:104F4000EF81F885E00FF11F10822E96E4E00C94BB
:104F5000642AABE0B0E0EFEAF7E20C943A2A6C0185
:104F60007B018A01FC0117821682838181FFCCC1FB
:104F7000CE0101963C01F6019381F70193FD8591E5
:104F800093FF81917F01882309F4BAC1853239F4F6
:104F900093FD859193FF81917F01853229F4B601BC
:104FA00090E00E94A029E7CF912C212C312CFFE129
:104FB000F315D8F08B3279F038F4803279F08332FF
:104FC000A1F4232D20611DC08D3261F0803369F47E
:104FD000232D216016C0832D8260382EE32DE460DE
:104FE0003E2E2AC0F32DF8601DC037FC2DC020EDE9
:104FF000280F2A3040F08E32B9F436FC81C1232DBF
:105000002064322E19C036FE06C08AE0989E200D1C
:105010001124922E11C0EAE02E9E200D1124222E82
:10502000F32DF0623F2E08C08C3621F4832D80686A
:10503000382E02C0883641F4F70193FD859193FF25
:1050400081917F018111B3CF982F9F7D955493302B
:1050500028F40C5F1F4F9FE399830DC0833631F016
:10506000833771F0833509F059C021C0F801808180
:1050700089830E5F1F4F88248394912C530113C0A2
:105080002801F2E04F0E511CF801A080B18036FEDD
:1050900003C0692D70E002C06FEF7FEFC5010E9471
:1050A00095294C018201F32DFF773F2E16C0280170
:1050B00022E0420E511CF801A080B18036FE03C0F0
:1050C000692D70E002C06FEF7FEFC5010E948A2951
:1050D0004C01F32DF0683F2E820133FC1BC0822D62
:1050E00090E088169906B0F4B60180E290E00E9444
:1050F000A0292A94F4CFF50137FC859137FE8191E0
:105100005F01B60190E00E94A02921102A9421E0BD
:10511000821A91088114910471F7E8C0843611F065
:10512000893641F5F80137FE07C0608171818281BF
:1051300093810C5F1F4F08C060817181072E000CA6
:10514000880B990B0E5F1F4FF32DFF763F2E97FFB5
:1051500009C090958095709561957F4F8F4F9F4FB7
:10516000F0683F2E2AE030E0A3010E94DC29882E5F
:10517000861845C0853731F4232D2F7EB22E2AE0C4
:1051800030E025C0932D997FB92E8F36C1F018F4E9
:10519000883579F0B5C0803719F0883721F0B0C074
:1051A000E92FE061BE2EB4FE0DC0FB2DF460BF2ED2
:1051B00009C034FE0AC0292F2660B22E06C028E09E
:1051C00030E005C020E130E002C020E132E0F8012B
:1051D000B7FE07C060817181828193810C5F1F4F90
:1051E00006C06081718180E090E00E5F1F4FA301D7
:1051F0000E94DC29882E8618FB2DFF773F2E36FE75
:105200000DC0232D2E7FA22E891458F434FE0BC01E
:1052100032FC09C0832D8E7EA82E05C0B82CA32C8D
:1052200003C0B82C01C0B92CA4FE0FC0FE01E80DCC
:10523000F11D8081803321F49A2D997EA92E09C019
:10524000A2FE06C0B394B39404C08A2D867809F0F8
:10525000B394A3FC11C0A0FE06C0B21488F4280CBD
:10526000922C9B180EC0B21460F4B60180E290E05C
:105270000E94A029B394F7CFB21418F42B1802C0DF
:10528000982C212CA4FE10C0B60180E390E00E946F
:10529000A029A2FE17C0A1FC03C088E790E002C0CD
:1052A00088E590E0B6010CC08A2D867859F0A1FE01
:1052B00002C08BE201C080E2A7FC8DE2B60190E063
:1052C0000E94A029891438F4B60180E390E00E947E
:1052D000A0299A94F7CF8A94F301E80DF11D8081FB
:1052E000B60190E00E94A0298110F5CF222009F498
:1052F00042CEB60180E290E00E94A0292A94F6CF27
:10530000F6018681978102C08FEF9FEF2B96E2E135
:105310000C94562AFC010590615070400110D8F79A
:10532000809590958E0F9F1F0895FC0161507040ED
:1053300001900110D8F7809590958E0F9F1F0895CA
:105340000F931F93CF93DF93FB01238121FD03C0B4
:105350008FEF9FEF2CC022FF16C04681578124811A
:1053600035814217530744F4A081B1819D012F5F1D
:105370003F4F318320838C93268137812F5F3F4FAE
:105380003783268314C08B01EC01FB010084F18577
:10539000E02D0995892BE1F6D80116968D919C9107
:1053A0001797019617969C938E931697CE01DF91CF
:1053B000CF911F910F910895FA01AA27283051F13A
:1053C000203181F1E8946F936E7F6E5F7F4F8F4F36
:1053D0009F4FAF4FB1E03ED0B4E03CD0670F781F95
:1053E000891F9A1FA11D680F791F8A1F911DA11D7A
:1053F0006A0F711D811D911DA11D20D009F46894B3
:105400003F912AE0269F11243019305D3193DEF65A
:10541000CF010895462F4770405D4193B3E00FD010
:10542000C9F7F6CF462F4F70405D4A3318F0495DFB
:1054300031FD4052419302D0A9F7EACFB4E0A695DE
:105440009795879577956795BA95C9F70097610500
:10545000710508959B01AC010A2E06945795479556
:1054600037952795BA95C9F7620F731F841F951F4B
:10547000A01D08952F923F924F925F926F927F925C
:105480008F929F92AF92BF92CF92DF92EF92FF9254
:105490000F931F93CF93DF93CDB7DEB7CA1BDB0B00
:1054A0000FB6F894DEBF0FBECDBF09942A883988A5
:1054B00048885F846E847D848C849B84AA84B984AC
:1054C000C884DF80EE80FD800C811B81AA81B981B8
:1054D000CE0FD11D0FB6F894DEBF0FBECDBFED01CC
:0654E0000895F894FFCFCF
:1054E600000042032000012000A812CA12AB12E0FD
:1054F6001FDC1F2530336400000D010D020D030D66
:10550600040D050D000C010C020C030C040C050C1B
:10551600000B010B020B030B040B050B000A010A1F
:10552600020A030A040A050A000901090209030915
:10553600040905090008010802080308040805080B
:10554600000701070207030704070507000601060F
:105556000206030604060506000501050205030505
:1055660004050505000401040204030404040504FB
:1055760000030103020303030403050300020102FF
:1055860002020302040205020001010102010301F5
:1055960004010501000001000200030004000500EB
:1055A600818283E200E900EA00B500B600B700CDCB
:1055B600008301CC008A0192019401210223022476
:1055C600022502260227022A02B300B4006F0070E9
:0255D6000000D3
:00000001FF
