:100000000C9402030C941F030C941F030C941F0305
:100010000C941F030C941F030C941F030C941F03D8
:100020000C941F030C941F030C94AF1D0C94EB1C39
:100030000C9487130C941F030C941F030C941F0340
:100040000C941F030C941F030C941F030C941F03A8
:100050000C941F030C941C130C941F030C941F038B
:100060000C941F030C941F030C941F030C941F0388
:100070000C941F030C941F030C941F030C941F0378
:100080000C941F030C941F030C941F030C941F0368
:100090000C941F030C941F030C941F030C941F0358
:1000A0000C941F030C941F030C941F035D075D0742
:1000B00099079907EB070D08D509460A1A08F808A9
:1000C0000B090B09E209110AEA09ED09F809F2091D
:1000D000FB096D0B700B730B760B790B7C0B7F0B95
:1000E000060F0B0F150F090F0E0F130F110F8816A8
:1000F00088169B169B1691169B169B169B168816A8
:10010000881696169B169B169616061B2D1BC31C4F
:100110002D1BC31C751B981BC31C871C9A1C00003D
:1001200000000000000000000000000000000000CF
:1001300000007E0F00D4FFFFFFC700000078000022
:100140000000000000002A2B280000000000000032
:1001500000000000000000000029000000002C1E2C
:100160003420212224342627252E362D3738271EE9
:100170001F202122232425263333362E37381F040F
:1001800005060708090A0B0C0D0E0F1011121314A7
:1001900015161718191A1B1C1D2F3130232D350465
:1001A00005060708090A0B0C0D0E0F101112131487
:1001B00015161718191A1B1C1D2F3130354C69667E
:1001C0002065727220213D206E696C207B0A090A2D
:1001D0007D0101520029002B00E300E100E0000056
:1001E000001E0014000400640003514D001F001A9B
:1001F0000016001D0002512A002000080007001B05
:100200000001512C002100150009000600E2004AFF
:1002100000220017000A001900000001004C000134
:100220000000000100000001003E00200200003339
:10023000000000AE0023001C000B0005000000AB16
:1002400000240018000D00110002514B0025000C85
:10025000000E00100001512800260012000F003689
:10026000002F002B00270013003300370030004E12
:10027000002A00010034003800E4000000290001D9
:100280000001000100010000003A001E02200222CD
:10029000022E0001003B001F022102230201000187
:1002A000003C002F0226022F00010001003D00301B
:1002B0000227023000010001003E00310235003506
:1002C0000200000100010001000000010000000127
:1002D000000100010000000100000001003F0001DA
:1002E0000050002402000001004000240051001EC4
:1002F00000010001004100250052001F0001000123
:10030000002D0026004F002000270001002E0025B0
:10031000022E0231002E0001004C004500010001B8
:1003200000010000000100010001000100010000C7
:100330000001000100F2000100010001000100F0D5
:1003400000F100010001000100F900FA00F30001D2
:1003500000F40001000100010001000100F50001AE
:100360000001000100010001000000010001000087
:100370005C0000010000000100010001000000011C
:100380000000000100010001000100010000000167
:100390000001000100010001000100010001000155
:1003A000000100AC00AA00B600010001000100AB92
:1003B00000A800010001002E02010001000100015F
:1003C0000001000100AE0001000100000001000179
:1003D00000010001000100000001002C5D0100018E
:1003E0000001000100010001000100010001000105
:1003F00000010001000100010001000100010001F5
:1004000000010001000100010001000100010001E4
:1004100000000001000100010000000100000001D7
:100420000001000100000001000000005C0100016B
:1004300000010001000000010001000100010001B5
:1004400000010001000100010001000100010001A4
:100450000001000100010001000100010001000194
:100460000001000100010001000100010001000184
:10047000000100000005010902A10185020901A196
:10048000000509190129051500250195057501814A
:100490000295017503810105010930093115812596
:1004A0007F95027508810609381581257F950175AC
:1004B000088106050C0A38021581257F950175080B
:1004C0008106C0C005010980A101850319012AB771
:1004D00000150126B700950175108100C0050C09B3
:1004E00001A101850419012AA002150126A0029587
:1004F0000175108100C005010906A10185050507E8
:1005000019E029E715002501950875018102050705
:10051000190029EF1500250195F0750181020508E4
:100520001901290595057501910295017503910140
:10053000C005010906A101050719E029E7150025F5
:10054000019508750181029501750881010507195A
:100550000029FF150026FF00950675088100050893
:100560001901290595057501910295017503910100
:10057000C009023B00020100A0FA090400000103C7
:10058000010100092111010001224000070581033A
:1005900008000A09040100010300000009211101FB
:1005A000000122BC000705820320000A120110018D
:1005B000000000089732744901000102000116038F
:1005C0004500720067006F0044006F007800200053
:1005D00045005A00000028035A0053004100200043
:1005E00054006500630068006E006F006C006F00CF
:1005F0006700790020004C00610062007300000079
:100600000403090411241FBECFEFDAE0DEBFCDBF23
:1006100011E0A0E0B1E0EAEBF8E402C005900D9231
:10062000AC3EB107D9F723E0ACEEB1E001C01D92BA
:10063000A932B207E1F70E94751F0C945B240C9459
:1006400000004F925F926F927F928F929F92AF9233
:10065000BF92CF92DF92EF92FF920F931F93CF93AF
:10066000DF93CDB7DEB72A970FB6F894DEBF0FBE83
:10067000CDBFFC010081D18083819481892B41F021
:1006800044244A94D41006C091E00F3F19F403C0EB
:1006900091E001C090E090FD5BC77F0185E0DE0145
:1006A000169601900D928A95E1F7F70122818E81CD
:1006B0009F81222349F00E94E514182F682F8E8114
:1006C0009F810E945F1503C00E943215182F24E5F8
:1006D000129FF001112436E0D39EE00DF11D11248C
:1006E000E00FF11DEE0FFF1FEB52FE4F059114912D
:1006F000F70182810932FDE51F0709F040C0882318
:1007000009F4DFC09091E00281E0890F8770987F43
:10071000853020F4892B8093E00202C09093E002A0
:100720008091E00287702FEF829FC0011124959580
:100730008795959587959927909389008093880050
:1007400090938B0080938A0090938D0080938C000F
:100750004091E0025091E1026091E2027091E30267
:100760008FE090E00E94EA226091F2027091F30221
:100770008091F4029091F5020E94A70EA2C00C3263
:100780003DE5130709F09DC0882309F49AC09EEB4C
:10079000C92E91E0D92E2AE0622EF601249122235F
:1007A00009F48FC0213009F047C03196849181301F
:1007B00041F4F2E0CF0ED11CF60184910E94E319BE
:1007C0007CC0823041F4F2E0CF0ED11CF60184915E
:1007D0000E941F1972C0833031F4F2E0CF0ED11C99
:1007E000F601849166C0843009F066C0F2E0CF0E55
:1007F000D11CF601249180E090E030E020533109D3
:100800002A30310570F4689EA001699E500D1124B4
:10081000C901840F951FFFEFCF1ADF0AF60124915B
:10082000ECCF009709F449C0EFE9FFE03197F1F709
:1008300000C000000197F5CFE22FF0E0E25CFE4F30
:100840007490822F86958695869590E0FC01E25DF6
:10085000FE4F84902770912C022E02C095948794AD
:100860000A94E2F7F1E08F229924FC01E25EFE4F48
:10087000A490B12C02C0B594A7942A95E2F721E088
:10088000A222BB248114910419F081EE0E941F1949
:10089000A114B10419F086EE0E941F19872D0E9441
:1008A000E319AB2819F086EE0E94B818892829F0C0
:1008B00081EE0E94B81801C06F013FEFC31AD30A3E
:1008C0006CCFF7018281882369F0C801825E9C4564
:1008D000059740F46EE1600F6093DC028CE090E0DD
:1008E0000E94D82217FF95C0F7018281882309F45E
:1008F00090C0E091F802F091F902309729F0019050
:10090000F081E02D099501C080E08695817080938B
:10091000ED019091DC02913029F4882319F089E3EC
:100920000E94E31980919E028093EC0110929E0236
:100930008091DC02813071F048F08230A1F0843087
:10094000C1F486EE0E94E31988E111C082EE0E9494
:100950001F190FC088E193E00E94910E88E193E097
:100960000E947B0E06C082EE0E941F1987E50E943E
:10097000E3198FE39CE90197F1F700C000004801FB
:10098000E89497F88CE0A82EB12CC4010A2C02C080
:10099000969587950A94E2F78F7061F0C82ED12C56
:1009A0008A3020F49DE1C90ED11C07C0E6E0CE1AC2
:1009B000D10803C0B7E2CB2ED12CC6010E94910E04
:1009C000C6010E947B0EF4E0AF1AB1082CEFA2160C
:1009D0002FEFB206D1F68091DC02813039F078F049
:1009E000823069F0843089F488E20DC08CE20E9484
:1009F000E3198091ED01882341F089E304C082EE80
:100A00000E94B81802C00E94E3198091EC01809303
:100A10009E02043F3CE5130741F190F4093D9CE53B
:100A20001907E9F00A3DECE51E0789F1083DFCE5F0
:100A30001F07B1F506E221EE41EE68ED7CE52CC022
:100A4000063F2CE51207E9F0B0F0073F8CE51807E8
:100A500039F507E225EE46EE67EF7CE51DC007E2BB
:100A600025EE45EE69ED7CE517C006E221EE40EE8D
:100A700064EF7CE511C007E225EE44EE65EF7CE50E
:100A80000BC006E221EE42EE66EF7CE505C008E20F
:100A900021E045EE6AED7CE5C7010E9409109CC18A
:100AA000F7018281882309F43FC11092EE010230E0
:100AB000FCE51F0708F422C106312CE5120738F0C7
:100AC00098012B5F3C452930310508F017C10E9481
:100AD0000D149093F7028093F60200313CE5130762
:100AE00009F4C3C008F041C008309CE5190709F4B7
:100AF0009AC0F0F40430FCE51F0709F487C068F4DD
:100B000002303CE5130709F477C003301C4509F0B7
:100B1000E5C08091F602826076C006309CE5190738
:100B200009F46EC008F07BC08091F60288606BC04B
:100B30000C30FCE51F0709F485C068F40A303CE579
:100B4000130709F474C008F079C00E94A3188091BB
:100B5000F602806858C00E309CE5190709F476C08B
:100B600008F07FC08091F6028BC00C3FFCE51F07A8
:100B700009F44FC018F503313CE5130709F47DC0B3
:100B800078F401319CE5190709F473C002311C4562
:100B900009F0A4C00E94A3188091F6028F7733C099
:100BA0000531FCE51F0709F472C008F486C00B3F4D
:100BB0001C4509F093C08091F7023EC001158DE5F8
:100BC000180709F45FC058F40E3FECE51E0709F45E
:100BD00044C008F43FC08091F70282602DC002300B
:100BE0002DE5120709F475C008F45DC003301D45FA
:100BF00009F074C060E06EC08091F602816003C0AD
:100C00008091F60280618093F60268C08091F602BE
:100C100011C08091F70282608093F7025FC08091DB
:100C2000F6028062F0CF8091F6028064ECCF809172
:100C3000F60288608460E7CF8160EECF8091F60293
:100C40008E7FE1CF8091F6028D7FDDCF8091F6021D
:100C5000877FD9CF8091F70218C08091F7028D7FEE
:100C6000DBCF8091F6028F7ECECF8091F6028F7D12
:100C7000CACF8091F6028F7BC6CF8091F602877F24
:100C80008B7FC1CF8091F7028D7F8E7FC5CF809102
:100C9000F60282FB222720F991E0922790FB82F94D
:100CA00090FB83F9B0CF8091F702982F90959170C7
:100CB0008E7F892B90FB81F9AFCF0E94A318809182
:100CC000F60287FB222720F991E0922790FB87F913
:100CD0009ACF61E08EE090E00E94D8226091F60207
:100CE0001091F70284E090E00E94D822612F81E207
:100CF00090E00E94D8220E94A3186EC006319CE5A5
:100D0000190719F580919E028A7A91E009F490E022
:100D10009093EF01882311F065E301C069E28CE054
:100D200092E00E94D8130EC006311C4509F077C02E
:100D30008091EF01882309F409C465E38CE092E017
:100D40000E94B0130E949F1447C001159CE519072B
:100D500039F00F3D1C4509F062C00E941E143CC0D2
:100D60000E94A318FFEF24E33CE0F1502040304004
:100D7000E1F700C00000F89481E08093E00080E299
:100D80008093D8001092C9008FE19EE40197F1F79B
:100D900000C000001DBA109268001CBC10BE1FBA33
:100DA00010927A0010926E0010926F0010927100F3
:100DB000109272001092C9001092BC0014B817B8BB
:100DC0001AB81DB810BA1092BC0015B818B81BB8E4
:100DD0001EB811BA0C94003F80919B02877009F4F1
:100DE000B7C3F7018281882309F4B2C382E02A964F
:100DF0000FB6F894DEBF0FBECDBFDF91CF911F912C
:100E00000F91FF90EF90DF90CF90BF90AF909F90A9
:100E10008F907F906F905F904F900C94BC15F7016E
:100E200000811181882349F0C8010E94E514D82E61
:100E3000682FC8010E945F1504C0C8010E943215C6
:100E4000D82EB8018D2D0E94CD0C082FD92EB82E8A
:100E5000F701C580C294AFE0CA221281111110922D
:100E60009D0280919B028770C1F01123B1F08D2DFE
:100E7000807F803449F090E2900F983070F0803697
:100E800019F4F6EFBF1649F082E00E94BC1580917C
:100E90009B028770AA24A3948111A12C9D2C92946B
:100EA0007FE09722892D90E08C30910508F0EEC20A
:100EB000FC01EA5AFF4F0C9434239D2D9F708D2D19
:100EC000807FC92E19F0C29460EFC6221123B9F0B9
:100ED000CC2009F457C280E2800F883010F0B110A6
:100EE00006C080919E02C82AC0929E0205C08091D1
:100EF0009D02C82AC0929D020E949F1443C2802F67
:100F00000E94B818CC2009F416C3005EC0940830C3
:100F100010F0B11006C080919E02C822C0929E02BD
:100F200005C080919D02C822C0929D020E949F141C
:100F300002C39D2D9F708D2D807F892E803219F0E8
:100F4000829450EF8522BB2029F044244394B414AA
:100F5000F1F028C0112389F080919F02CC2059F034
:100F600055245394C51007C0882A881609F4E8C28E
:100F700080929F02E5C288291AC0CC2029F06624FD
:100F80006394C61409F4D7C20E94991420C0112397
:100F900031F0772473947C1408F4D2C207C0C110D6
:100FA000CAC215C0112331F0C110ECC1882D0E94B6
:100FB000BF16C6C2CC2059F029E3B212F2C13FEFEE
:100FC00087EE93E0315080409040E1F7E8C1882DF2
:100FD0000E94B416B0C28D2D86958695837019F047
:100FE000813071F053C2112331F0802F9D2D937009
:100FF0000E94AB0C53C280E090E00E94AB0C64C234
:10100000112331F0802F9D2D93700E94950C46C2C4
:1010100080E090E00E94950C57C2802F112329F0A8
:101020000E94B4120E945D1339C20E94EA110E940C
:101030005D134AC28D2D837009F069C011112AC257
:10104000902F929596959770990F990F802F8F708A
:10105000482E512C612C712C092E04C0440C551CB7
:10106000661C771C0A94D2F704FF12C04FE050E0D0
:1010700060E070E004C0440F551F661F771F9A950B
:10108000D2F7DB01CA0180959095A095B09503C079
:1010900080E090E0DC016D2D6695669563706230AE
:1010A00019F1C8F42091A0023091A1024091A2024E
:1010B0005091A302613059F084299529A629B729B6
:1010C000BC01CD0162237323842395230AC0422AE5
:1010D000532A642A752ABC01CD0164297529862901
:1010E00097290E94F615D6C184299529A629B729E2
:1010F0004090A0025090A1026090A2027090A302C2
:10110000BC01CD016425752586259725EACF1123DD
:1011100019F08D2D817001C08695882309F4BAC11C
:10112000902F929596959770990F990F802F8F70A9
:10113000482E512C612C712C092E04C0440C551CD6
:10114000661C771C0A94D2F704FF12C04FE050E0EF
:1011500060E070E004C0440F551F661F771F9A952A
:10116000D2F7DB01CA0180959095A095B09503C098
:1011700080E090E0DC016D2D6695669563706230CD
:10118000D9F068F52091F2023091F3024091F40217
:101190005091F502613059F084299529A629B72983
:1011A000BC01CD0162237323842395231EC0422AF0
:1011B000532A642A752A13C084299529A629B72998
:1011C0004090F2025090F3026090F4027090F502A9
:1011D000BC01CD01642575258625972506C0BC0177
:1011E000CD0164297529862997290E948B1552C142
:1011F000ED2DEF70CE2E112339F08E2F0E94D515D4
:10120000802F0E94BF1646C1802F0E94B4168C2DDD
:101210000E9497153FC1802FF2EFBF1609F46EC0F0
:10122000FB1550F040EF442EB41489F031EF532EEB
:10123000B51409F455C059C023EF622EB61409F451
:1012400067C094EF792EB71409F47CC04EC0112307
:1012500011F1C11075C12D2D2F7181E090E0A0E03A
:10126000B0E0AC01BD0104C0440F551F661F771FDD
:101270002A95D2F78091F2029091F302A091F402A4
:10128000B091F5022A013B01482659266A267B26A1
:10129000C301B2014EC0552453945C1408F44BC1F1
:1012A0002D2D2F7181E090E0A0E0B0E0AC01BD01F8
:1012B00004C0440F551F661F771F2A95D2F78091EF
:1012C000F2029091F302A091F402B091F5022A018A
:1012D0003B01482659266A267B26C301B2012FC04E
:1012E000112339F08D2D8F713CC0111148C0C110F0
:1012F0004DC08D2D8F710E9497151DC18D2D8F7141
:10130000112319F00E9497151BC10E94D51513C116
:10131000112391F02D2D2F7181E090E0A0E0B0E03D
:10132000BC01CD0104C0660F771F881F991F2A9545
:10133000D2F70E948B1504C160E070E0CB010E94DF
:101340008B15F9C0112381F00D2D0F71802F0E9494
:10135000D51528E0029FC0011124836080939B0271
:10136000802F0E94D515ECC081E00E94BC1531E0B1
:101370003C1508F0E0C082E00E94BC15DCC0CC2027
:1013800009F4B0CF802F0E941F19DAC0893349F4C5
:101390008FEF97EEE3E081509040E040E1F700C02E
:1013A0000000802F0E94B818C6C08B2D90E0FC0171
:1013B000E05FF109E730F10508F03FC0EE59FF4F5B
:1013C0000C943423112309F47FC09091AA0281E088
:1013D000892705C01093AA025FC081E0812780930E
:1013E000AA025AC0111158C081E08093AA026CC0B1
:1013F000111152C067C0112339F082E08093F001CF
:1014000081E08093AA024AC08091F001823019F4F1
:1014100081E08093F0018091F001833009F054C0A5
:101420004FC0112339F08091A902882371F21092E4
:10143000A90234C0CC2049F247C08091A902CC2037
:10144000C1F0882341F09091AA0281E0892780931E
:10145000AA021092A902802F112319F00E941F19CD
:101460001DC00E94B81886E0F70111928A95E9F72D
:101470002BC0882389F011110FC09091AA0281E03E
:1014800089278093AA021092A9021EC088EF890DB5
:10149000843010F40E94C10C1123B1F08D2D807F97
:1014A000803619F4F6EFBF1679F08091F0018230A2
:1014B00019F483E08093F0018091F001813021F4F0
:1014C0001092F0011092AA02AA20A9F080919B022A
:1014D00080FD11C0F70112828595859585950E9442
:1014E000D515C7010E94210380919B0285958595A2
:1014F00085950E94971585E0F701DE011196019010
:101500000D928A95E1F789819A810E9432159A811C
:1015100024E5829FF001112436E0939FE00DF11D38
:1015200011248981E80FF11DEE0FFF1FEB52FE4FD2
:10153000859194910DC088EF890D843028F6AACF4B
:1015400088EF890D843008F0A9CFA4CF69E2F6CBEB
:101550002A960FB6F894DEBF0FBECDBFDF91CF91B4
:101560001F910F91FF90EF90DF90CF90BF90AF90C1
:101570009F908F907F906F905F904F900895909183
:10158000F60292FF0DC0282F2871283019F4877FAA
:10159000846006C0282F2471243011F48B7F88606A
:1015A00093FF0DC0282F2871283119F4877E84619C
:1015B00006C0282F2471243111F48B7E886120917C
:1015C000F70220FF0DC0382F3871383019F4877FAB
:1015D000816006C0382F3171313011F48E7F886000
:1015E00021FF0DC0282F2871283119F4877E8161D1
:1015F00006C0282F2171213111F48E7E886194FD5F
:10160000877E08959C013A9521153F4138F5DC010C
:10161000AA27B270AC01442754709C01222738706D
:1016200094FF0FC090FF02C080E101C080E0AB2BAF
:1016300009F08062452B09F08064232B69F08068F3
:101640000BC0892F8170AB2B09F08260452B09F00C
:101650008460232B09F08860FB0109940895CF93DF
:10166000E82F873080F58091070190910801892B40
:1016700009F047C0CE2F64E670E080E40E94142297
:101680009093080180930701892BD1F464E670E000
:1016900082E10E946B229093080180930701892BBD
:1016A00079F481E090E001C0880FCA95EAF764E61A
:1016B00070E080950E946B2290930801809307014F
:1016C000CF910C94C02290E0FC013797E730F105F0
:1016D000C0F4E759FF4F0C943423209A289811C086
:1016E000219A29980EC0229A2A980BC0239A2B98E7
:1016F00008C0529A5A9805C0539A5B9802C03E9A05
:101700004698CF910895CF93873040F58091070197
:1017100090910801892B59F564E670E081E40E94FC
:1017200014229093080180930701892B11F0C0E0E7
:1017300011C084E690E00E949B2297FF05C0909321
:10174000080180930701F3CFC82FC09510920801BC
:10175000109207010E94C0228C2F0AC09FB18FB146
:10176000807F869586959370892B809501C080E057
:10177000CF9108950F931F93CF93DF93CDB7DEB72B
:1017800067970FB6F894DEBF0FBECDBF4B8B5C8B57
:101790006D8B7E8B8F8B0E891F890115110531F0A2
:1017A0005F3F31F481E04F3F19F403C081E001C095
:1017B00080E080FD32C0242F30E0A1E0B0E0042EB4
:1017C00001C0AA0F0A94EAF7852F90E0662319F06A
:1017D0007091AA0205C0FC01E250FE4F70817A238D
:1017E0007723A1F046E0489FF001499FF00D1124B6
:1017F000E20FF31FEE0FFF1FED5EFE4F40815181A0
:10180000FC01E250FE4F9081A92B06C0FC01E25082
:10181000FE4FA0958081A823A08386E0FE013D961F
:10182000DF01982F1D929A95E9F74D875E876F87A4
:10183000198B088BDE01179601900D928A95E1F7BE
:10184000CE0107960E94C91681113EC086E0FE01B6
:101850003796DE01119601900D928A95E1F7FF818E
:10186000E8856A857B856115710531F0EF3F31F4BC
:1018700081E0FF3F19F403C081E001C080E080FDFA
:1018800023C02091320230E0C90101968770992768
:101890004091630250E08417950779F1F983EA8358
:1018A0007D836C8396E0929FD001939FB00D1124AD
:1018B000AD5CBD4FFE01319601900D929A95E1F716
:1018C000809332020E94001616E08091630290918C
:1018D00032028917F9F0189FC00111248D5C9D4FC9
:1018E0000E94C9168823B1F08091630290E00196AE
:1018F0008770992780936302E8CF0E94A318109203
:10190000320210926302ECE2F2E086E0DF011D9207
:101910008A95E9F767960FB6F894DEBF0FBECDBF84
:10192000DF91CF911F910F9108952091FC0130918B
:10193000FD012817390771F09093FD018093FC0198
:10194000E091F802F091F902309721F00084F185DE
:10195000E02D099408952091FA013091FB01281798
:10196000390771F09093FB018093FA01E091F8023E
:10197000F091F902309721F00680F781E02D09946B
:101980000895E091F802F091F902309721F001906A
:10199000F081E02D099480E00895CF93DF9324E552
:1019A000829FC0011124FC0146E0749FE00DF11DEF
:1019B0001124E60FF11DEE0FFF1FEB52FE4FC591F4
:1019C000D491CE01C238D10569F1B0F4C133D1054B
:1019D00009F475C048F4C932D10509F469C0CA32A6
:1019E000D10509F473C085C0C533D10509F459C0C8
:1019F000C933D105B9F07DC0C33ED10571F138F4CA
:101A0000C03ED105B1F0C23ED10511F172C0C63E53
:101A1000D105B9F1C73ED105C9F1C43ED10509F0E0
:101A200068C024C02091F60220FD5DC021FD5BC08E
:101A300060C02091F60220FD50C02091F70220FFE7
:101A400057C18091F60284FD51C183EE90E050C1F0
:101A50002091F60222FF4CC1F4CF8091F60282FD64
:101A60003FC08091F70280FD3EC0EBCF2091F7028E
:101A700021FF3EC18091F60284FD38C187EE90E0DF
:101A800037C12091F60223FF33C1F4CF8091F602D3
:101A900083FD2CC08091F70281FFECCF84EE90E0B3
:101AA00027C12091F60225FF23C189E290E020C1E1
:101AB0002091F60225FF1CC185E390E019C1209119
:101AC000F60226FF15C18AE290E012C12091F602CB
:101AD00026FF0EC181E390E00BC189E390E008C1CD
:101AE00082EE90E005C180EE90E002C186EE90E0CB
:101AF000FFC0C11552E5D50708F075C0C11521E535
:101B0000D20728F09C2F8827816F906AF1C0C83EC9
:101B1000D10570F5C03ED10508F0EAC0C83AD1053C
:101B2000B8F4C53AD10550F08C2F855AC82FD0E0B3
:101B3000C554DE4F888190E09064DAC0C130D10591
:101B400009F4D6C008F4D2C0249708F4CFC0D0C09E
:101B5000CF3BD10508F0CAC08C2F885AC82FD0E0DF
:101B6000CC0FDD1FC254DE4F888199819464C0C0C0
:101B7000C11540E2D40760F4C11551E0D50708F063
:101B8000B7C0C03FD10508F4B1C0CE019065B0C068
:101B9000C11580E4D80708F4A9C0C11520E5D20713
:101BA00020F4CE019F70906AA3C0CE01F4E0969518
:101BB0008795FA95E1F7282F23703C2F337081E049
:101BC00090E002C0880F991F3A95E2F79C68922B2B
:101BD0002C2F2F702695269550E2259F90011124D9
:101BE000822B932B85C0C11546E5D40708F03FC072
:101BF000C11555E5D50748F08C2F0E94BF0A8F719B
:101C000090E0982F8827906273C0C11584E5D807AB
:101C100028F09C2F8827846F906A6AC09E012370E9
:101C200033279C2F96959695C115D34580F441E0B6
:101C300050E002C0440F551F2A95E2F780E2989FBA
:101C400090011124CA01822B932B9C6851C041E062
:101C500050E002C0440F551F2A95E2F780E2989F9A
:101C600090011124CA01822B932B9A6841C0C1159F
:101C70005AE5D50778F5C11589E5D80710F18C2FFD
:101C80008F700E94BF0A9E0194E0369527959A9521
:101C9000E1F72F7030E0322F22273069A901482B5D
:101CA0000EC090568115904208F58D2F8F710E94BD
:101CB000BF0A9E01332730628F71A901582BCA01D8
:101CC00017C0C11528E5D20788F09C2F8827806FA0
:101CD000906A0EC0C1154BE5D40740F0CE01C11586
:101CE0005CE5D507F0F69927906602C080E090E0A9
:101CF000DF91CF910895CF93DF93EC010E94B81844
:101D0000CE01805E9109089710F0209719F464EBDA
:101D100076E102C06FE976E1CE01DF91CF910C94BC
:101D2000020BCF93DF93EC01805E9109089710F0CE
:101D3000209719F46FEB76E102C06AEA76E1CE01F2
:101D40000E94020B8C2FDF91CF910C941F19CF9220
:101D5000DF92EF92FF920F931F936C01EE24FF240A
:101D6000C114D104E104F10411F0E0E103C06B01FE
:101D70007C01E0E033272F2D1E2D0D2D01151105BF
:101D80002105310519F0E85F6801790197018601A5
:101D9000F4E03695279517950795FA95D1F7011533
:101DA00011052105310519F0EC5F680179019701F2
:101DB000860152E036952795179507955A95D1F7E4
:101DC000011511052105310519F0EE5F6801790152
:101DD000970186013695279517950795012B022BBC
:101DE000032B09F0EF5F56985E9825982D9826985A
:101DF0002E9827982F980E2F10E0F8013197E73092
:101E0000F105A8F4E059FF4F0C943423259A2D9A3C
:101E10000EC0259A2D9A269A2E9A09C0259A2D9A97
:101E200004C0259A2D9A269A2E9A279A2F9A1F91A6
:101E30000F91FF90EF90DF90CF90089580E290E0B7
:101E400090930801809307018091F10181110EC0E8
:101E50000E940E2281E08093F1012FEF83ED90E349
:101E6000215080409040E1F700C0000064E670E03F
:101E700080E40E9414229093080180930701892B2B
:101E800009F04EC064E670E080E00E946B229093FF
:101E9000080180930701892B09F042C064E670E0D5
:101EA00080E00E946B229093080180930701892BA8
:101EB000B9F564E670E08FE30E946B22909308010D
:101EC00080930701892B61F50E94C02264E670E0CF
:101ED00080E40E9414229093080180930701892BCB
:101EE000F9F464E670E08CE00E946B2290930801A4
:101EF00080930701892BA1F464E670E080E00E94E2
:101F00006B229093080180930701892B49F464E6C2
:101F100070E08FE30E946B22909308018093070189
:101F20000E94C02280910701089556985E982598D6
:101F30002D9826982E9827982F988FEF90E09093C1
:101F400089008093880090938B0080938A009093FF
:101F50008D0080938C00259A2D9A2FEF80E792E0D8
:101F6000215080409040E1F700C00000269A2E9A50
:101F70002FEF80E792E0215080409040E1F700C0D1
:101F80000000279A2F9A2FEF80E792E0215080409F
:101F90009040E1F700C0000025982D982FEF80E7D2
:101FA00092E0215080409040E1F700C00000269868
:101FB0002E982FEF80E792E0215080409040E1F78B
:101FC00000C0000027982F9856985E9825982D9865
:101FD00026982E9827982F98089520982898219829
:101FE000299822982A9823982B9852985A9853986F
:101FF0005B983E98469808958098889A8198899A27
:1020000084988C9A85988D9A86988E9A87988F9ABC
:1020100008950F931F93CF93DF93C42FD22FFC010A
:1020200082818823C9F04093EE010E94511390935E
:10203000F9018093F80180E28C0F883008F057C0D6
:10204000C77081E001C0880FCA95EAF7DF91CF9190
:102050001F910F910C94BF168091EE01481330C070
:102060008091F8019091F9010E944213883C9105FA
:1020700038F510E21D0FCD17B9F080E28C0F8830D3
:1020800040F4C77081E001C0880FCA95EAF70E944A
:10209000B416183028F581E09D2F977001C0880F85
:1020A0009A95EAF70E94BF16802F0E94E319183014
:1020B000F0F4D77081E001C0880FDA95EAF70AC022
:1020C00080E28C0F883098F4C77081E001C0880FDF
:1020D000CA95EAF7DF91CF911F910F910C94B41636
:1020E000802FDF91CF911F910F910C94E319DF9115
:1020F000CF911F910F910895CF92DF92EF92FF92AF
:102100000F931F93CF93DF93809107019091080164
:10211000892B91F08091F2018F5F8093F201811100
:102120000BC00E941E0F90E090930801809307015E
:10213000892B11F40E94950FC4EED2E07E0100E0DD
:1021400010E057E0C52EC10E812F0E942F0B8C2D61
:102150000E942F0B812F0E94830BF701908189171A
:1021600021F08083DD24D39401C0D12C8C2D0E94DA
:10217000830BF7019781891719F0878381E001C0EC
:1021800080E0D82A0D290E94ED0F1F5FFFEFEF1AA4
:10219000FF0A1730B1F60E945113AC016091F401AF
:1021A0007091F5019093F5018093F4019091F30102
:1021B000292F30E0261B370BC901840F951F6BEFC9
:1021C00070E00E940C23F82E8093F3012091F70118
:1021D000222309F443C01092F701E091DA02F09152
:1021E000DB029F01225F3F4F10E04BEFE42EABEF8D
:1021F000B0E040814B3FC9F0642F70E0F41620F04E
:10220000AC01461B570B05C0AD01461B570B480FD1
:10221000591F052E000C660B770B4E3151056105D9
:10222000710510F0E08201C011E03196E217F3076A
:1022300001F71093F701011102C0111111C01092A2
:10224000F601E091DA02F091DB029091F701ABEF39
:10225000B2E0AF01425F5F4F80E007C00111EFCFF6
:102260008091F6018111EBCF15C029913C91321775
:1022700041F030813B3F21F4F0822C9391E001C08A
:1022800081E031961196E417F50779F79093F701FD
:102290008093F601802FDF91CF911F910F91FF90D6
:1022A000EF90DF90CF9008958091AD02089522E0E5
:1022B0002093E9002FEF3091E800215035FD06C052
:1022C00035ED3A95F1F700002111F5CF2091E800A6
:1022D00025FF0BC040E050E066E070E00E94F61978
:1022E0008091E8008E778093E8000895CF93DF9384
:1022F00020910601222339F02091F60227FF03C026
:1023000060E222E002C068E021E02093E9002FEFC4
:102310003091E800215035FD06C035ED3A95F1F7D2
:1023200000002111F5CF2091E80025FF1DC0EC0130
:1023300080910601811105C040E050E068E070E046
:1023400003C070E040E050E0CE010E94F619809199
:10235000E8008E778093E80080E2FE01AEEAB2E00A
:1023600001900D928A95E1F7DF91CF910895CF9377
:10237000DF9300D01F92CDB7DEB79091D00294309A
:1023800019F589837B836A8382E08093E9008FEF6C
:102390009091E800815095FD06C095ED9A95F1F772
:1023A00000008111F5CF8091E80085FF0DC040E06D
:1023B00050E063E070E0CE0101960E94F619809132
:1023C000E8008E778093E8000F900F900F90DF91D8
:1023D000CF910895803F39F48091120387FF6AC03E
:1023E0001092120367C0813F29F4809112031816DE
:1023F000BCF360C090911103823F29F497FF5AC04B
:102400001092110357C0833F19F41916CCF352C030
:1024100090911303893F31F419160CF04BC01092C0
:10242000130348C08A3F19F497FF44C0F8CF8B3F8D
:1024300039F48091140387FF3DC0109214033AC011
:102440008C3F29F4809114031816BCF333C0843FE9
:1024500021F4809110038E7F17C0853F21F4809175
:1024600010038D7F11C0863F21F4809110038B7F74
:102470000BC0873F21F480911003877F05C0883F00
:1024800031F4809110038F7E8093100313C08D3F31
:1024900021F48091A8028E7F0BC08E3F21F48091A1
:1024A000A8028D7F05C08F3F29F48091A8028B7F01
:1024B0008093A80280911103811106C080911203BC
:1024C000811102C010920C0380911303811106C088
:1024D00080911403811102C0109209030895809124
:1024E000A80280FD16C081FD16C082FD18C0809133
:1024F0000903882391F0883290F428E0829FC0017C
:10250000112468E270E00E942023862F672B29F0B7
:1025100007C082E0089584E0089581E0089588E08E
:1025200008958091A80280FD17C081FD17C082FD2B
:1025300019C080910C03882399F08C3398F423E21E
:10254000829FC00111246CE370E00E942023862F3B
:10255000672B49F481E0089588E0089581E10895AA
:1025600085E0089583E20895803F21F40E9491124E
:10257000819504C0813F29F40E9491128093120337
:102580000895823F21F40E949112819504C0833FF7
:1025900029F40E949112809311030895893F19F440
:1025A0000E946F1205C08A3F31F40E946F1281951C
:1025B0008093130308958B3F21F40E946F1281953D
:1025C00004C08C3F29F40E946F1280931403089575
:1025D000843F21F480911003816017C0853F21F46E
:1025E00080911003826011C0863F21F48091100316
:1025F00084600BC0873F21F480911003886005C080
:10260000883F31F480911003806180931003089516
:102610008D3F21F48091A80281600BC08E3F21F490
:102620008091A802826005C08F3F29F48091A802A2
:1026300084608093A802089578941F920F920FB639
:102640000F9211248F939F93AF93BF938091A40215
:102650009091A502A091A602B091A7020196A11D9A
:10266000B11D8093A4029093A502A093A602B093FB
:10267000A702BF91AF919F918F910F900FBE0F90C6
:102680001F9018959C014FB7F8948091A4029091E7
:10269000A502A091A602B091A7024FBF821B930B87
:1026A00008952FB7F8948091A4029091A502A0916B
:1026B000A602B091A7022FBF08950E945113209146
:1026C0001103211104C020911203222321F09093C1
:1026D0000E0380930D0320911303211104C0209158
:1026E0001403222321F090930B0380930A03E091BB
:1026F000F802F091F902309749F082E080930F03DD
:102700000480F581E02D8FE093E0099408951F92F5
:102710000F920FB60F9211248F939F93AF93BF9395
:102720008091FA02811113C08091A4029091A502B8
:10273000A091A602B091A7024196A11DB11D809360
:10274000A4029093A502A093A602B093A702BF9102
:10275000AF919F918F910F900FBE0F901F90189582
:10276000209106012223C9F02091F60227FF15C00F
:10277000262F2695269526952E31C8F4FC01E20FCA
:10278000F11D677081E090E001C0880F6A95EAF75B
:1027900080959281892382830895FC010696228187
:1027A000621301C012823196E817F907C1F7089544
:1027B000209106012223C1F02091F60227FF14C0C8
:1027C000262F2695269526952E3130F5FC01E20F11
:1027D000F11D677081E090E001C0880F6A95EAF70B
:1027E0009281892B82830895FC0132962FEF30E08D
:1027F0004191641789F02F3F19F4411101C0232F33
:102800003F5F3630A9F72F3F39F0FC01E20FF11D91
:1028100027FDFA95628308950895CF9384E090E0B0
:102820000E94C422C82F81E290E00E94C4222C2F73
:1028300030E0A901582BCA01CF9108956CEE7EEFCC
:1028400080E090E00E94F62260E082E090E00E944A
:10285000D82260E083E090E00E94D8221092A0028B
:102860001092A1021092A2021092A30260E084E0F2
:1028700090E00E94D82260E081E290E00E94D8229D
:1028800060E085E090E00E94D82260E086E090E081
:102890000E94D8226FEF87E090E00E94D82240E0AB
:1028A00050E0BA0188E090E00E94EA2260E08DE00A
:1028B00090E00E94D82240E050E0BA0188E190E028
:1028C0000E94EA2260E087E190E00E94D82240E086
:1028D00050E0BA018CE190E00E94EA2260E080E2E0
:1028E00090E00E94D82240E050E0BA0188E190E0F8
:1028F0000E94EA221092E0021092E1021092E2029B
:102900001092E30284E080618093E0024091E00253
:102910005091E1026091E2027091E3028FE090E059
:102920000E94EA2240E050E0BA0183E190E00C947A
:10293000EA2280919F02811110929F020895909146
:102940009E0280919D02892B20919C02982F922BB0
:1029500090930C0280919F028823D9F0892B809359
:102960000C0280910601882331F08091F60287FFE6
:1029700002C08EE101C086E0EEE0F2E090E081501E
:1029800028F021912223D9F39F5FF9CF91110E9462
:102990009914E091F802F091F9023097A9F0809132
:1029A0000601882359F08091F60287FF07C08091C5
:1029B0000C0280930D0285E080930C020280F3816B
:1029C000E02D8CE092E009940895BF92CF92DF92BF
:1029D000EF92FF920F931F93CF93DF938C01C090E0
:1029E000F202D090F302E090F402F090F5028091B0
:1029F000A0029091A102A091A202B091A302C82AC4
:102A0000D92AEA2AFB2ACFE1D0E0D701C6010C2E51
:102A100004C0B695A795979587950A94D2F780FD3F
:102A200004C0219790F7B12C07C0BC2EB8018C2FA1
:102A30000E94CD0C0197A9F38B2DDF91CF911F91AF
:102A40000F91FF90EF90DF90CF90BF900895CF93BC
:102A5000DF93EC010E94E514BE010E94CD0CDF91D2
:102A6000CF910895292F220F920F990F890F682F68
:102A7000669566956695982F977085E0689FB0017A
:102A8000112440E050E080E0FB01E40FF51FEC5919
:102A9000FD4F208130E0092E02C0369527950A941B
:102AA000E2F721703327042E01C0220F0A94EAF7BF
:102AB000822B4F5F5F4F4530510531F70895292F25
:102AC000220F920F990F890FE82FE695E695E6956C
:102AD000877051E001C0550F8A95EAF785E0E89FBD
:102AE000F0011124EC59FD4F20E030E070E040810E
:102AF000CB01022E02C0969587950A94E2F7817069
:102B0000819584278523842781932F5F3F4F25302C
:102B1000310569F708950E94A70E6093F202709341
:102B2000F3028093F4029093F5020C9486180F93AD
:102B30001F9341E050E060E070E004C0440F551F77
:102B4000661F771F8A95D2F74095509560957095CE
:102B50008091F2029091F302A091F402B091F502FB
:102B60008A019B01082319232A233B23C901B801A9
:102B70001F910F910C948B1520919B0280958223BD
:102B800080939B02982F977079F430E0482F082E9D
:102B9000000C550B2417350739F0859585958595DB
:102BA0000E94971510929B0208950F931F9341E086
:102BB00050E060E070E004C0440F551F661F771FAF
:102BC0008A95D2F78091F2029091F302A091F402DB
:102BD000B091F5028A019B01082B192B2A2B3B2B64
:102BE000C901B8011F910F910C948B156093A0023D
:102BF0007093A1028093A2029093A3020C94861872
:102C00008091630290913202891719F08F5F87706B
:102C1000FBCF08950F931F93CF93DF9380913102E1
:102C200082958F7009F05DC080912E02882309F48F
:102C300058C0809163021091320260912C02709111
:102C40002D02C0912F02D091300291E06F3F09F028
:102C500090E0292F06E0811709F443C0209721F066
:102C60007F3F21F030E003C031E001C0322F90E01F
:102C700030FD34C0089FF001099FF00D1124DF01E1
:102C8000AD5CBD4F11963C911197371327C03C9115
:102C9000361324C012963C91129731111FC013961F
:102CA0004D915C9114974C1B5D0B483C5105B0F461
:102CB000809131028F70806180933102E85CFD4F1A
:102CC00080818F70806180838CE292E00E9421037A
:102CD000DF91CF911F910F910C9400160196877090
:102CE000BACFDF91CF911F910F9108950E942715C0
:102CF000292F2F70E92FE295EF704E2F50E0FA0147
:102D00003297EE30F105B8F4E958FF4F0C943423B4
:102D1000803F99F018F4883E70F40FC0843F59F456
:102D20000CC0883E50F0813F31F407C0822F869559
:102D300086958695089580E0089581E0089588231A
:102D400041F0809590919D02892380939D020C947F
:102D50009F140895882339F090919D02892B8093C8
:102D60009D020C949F140895882341F080959091C2
:102D70009E02892380939E020C949F1408958823B9
:102D800039F090919E02892B80939E020C949F149F
:102D900008959F92AF92BF92CF92DF92EF92FF92EF
:102DA0000F931F93CF93DF93CDB7DEB761970FB625
:102DB000F894DEBF0FBECDBF8C0185E0F801DE01C7
:102DC0001D9601900D928A95E1F7F801908181811D
:102DD000E28030912C0260912D0240912F0250919F
:102DE00030024115510531F06F3F31F421E03F3F92
:102DF00019F403C021E001C020E0F22FF1709F2EF2
:102E000020FD23C1F801C380D4802CE2A22E22E051
:102E1000B22EF0902E02F601E41BF50BFF2009F410
:102E2000CEC020913102E83CF10508F099C0422F54
:102E3000407F09F051C0681311C039130FC0FE2C38
:102E4000E1100CC02F70206120933102C5010E9457
:102E5000210380913102F801858345C1CD2831F0ED
:102E60008F3F31F421E09F3F19F403C021E001C0FE
:102E700020E020FD03C021E02E2502C020E030E04C
:102E8000F22FF170FF2E20FF1DC0209163024091B0
:102E9000320256E0241709F404C130E0529FF001D9
:102EA000539FF00D1124ED5CFD4F6181861306C028
:102EB0006081961303C06281E61204C02F5F3F4F0A
:102EC0002770E8CFFE2CEE2009F40DC1809131026D
:102ED00081608093310250C0681307C0391305C068
:102EE000E11003C0F80125838DC09D878E878D85F5
:102EF0009E850E947616882369F1EE2059F1209173
:102F00003102822F82958F7090E0029774F0809149
:102F10002C0290912D0298878F831986DB86CA86B2
:102F20002C87CE0107960E94210386E0F801ACE2CF
:102F3000B2E001900D928A95E1F70E940A160DC049
:102F40006817E1F09D878E878D859E850E94761695
:102F500081111EC0C8010E942103FF24F394C3C045
:102F6000422F407F69F78CE292E00E94210386E0C5
:102F7000F50111928A95E9F7F12CB5C03913E2CF2A
:102F8000E110E0CFF8012583C8010E94210357C05A
:102F9000EE2001F320913102822F82958F7090E014
:102FA00002971CF280912C0290912D029A838983C2
:102FB0001B82DD82CC822E83CE010196B4CFE83C09
:102FC000F105E8F5FE2CEE2029F2681327C039132D
:102FD00025C02091310220FD18C0822F82958F706C
:102FE000482F50E04115510581F0F80125834F30FD
:102FF000510541F08F5F982F9295907F822F8F70AF
:10300000892B8583C8010E94210386E0F801ACE288
:10301000B2E001900D928A95E1F765C09D878E8799
:103020008D859E850E94761681117FCF8091310219
:10303000816080933102C8010E94210354C086E060
:10304000F50111928A95E9F74EC0EE2009F482CF7E
:103050009D878E878D859E850E947616F82E882303
:1030600009F478CF86E0F801ACE2B2E001900D926D
:103070008A95E1F780912C0290912D020E942715EC
:1030800092959F70963051F4863F41F08091AA024C
:1030900091E089278093AA029093A9020E940A16C0
:1030A00022C09D878E878D859E850E942715292F9A
:1030B00022952F70223028F49F7039F0811105C0BD
:1030C0000BC0243028F49F7049F4805E883020F0D3
:1030D000C8010E9421039F2CF92C05C0F80195819D
:1030E000907F99F7F9CF8F2D61960FB6F894DEBFD8
:1030F0000FBECDBFDF91CF911F910F91FF90EF9049
:10310000DF90CF90BF90AF909F90089510929D0256
:1031100010929C020E949F14EFE0F3E086E0DF0132
:103120001D928A95E9F710920C03109209031092F0
:10313000A8020E945D1380E090E00E94AB0C80E04A
:1031400090E00C94950C10929E02809106018823C9
:1031500031F08091F60287FF02C08EE101C086E067
:10316000EEE0F2E0DF011D928A95E9F70C948618F3
:10317000882309F463C0823869F40E94C10C81FF7E
:103180005DC069E38CE092E00E94D8130E949F1416
:1031900069E30EC0833891F40E94C10C80FF4EC0D9
:1031A00063E58CE092E00E94D8130E949F1463E5CF
:1031B0008CE092E00E94B0130C949F14843869F460
:1031C0000E94C10C82FF3AC067E48CE092E00E944A
:1031D000D8130E949F1467E4EBCF9CEF980F913AAD
:1031E00010F4682FE5CF90E2980F983088F487703C
:1031F00021E030E0A90102C0440F551F8A95E2F793
:10320000CA01809590919E02892380939E02D4CF1B
:103210009BE5980F933020F480E090E00C94AB0C89
:1032200098E5980F973120F480E090E00C94950C8D
:10323000803F20F00E94EA110C945D130895CF9313
:10324000882309F4BEC0C82F8238B1F40E94C10C93
:1032500081FDB7C069E38CE092E00E94D8130E9420
:103260009F142FEF81EE94E0215080409040E1F7D1
:1032700000C0000069E317C08338E1F40E94C10C6C
:1032800080FD9FC063E58CE092E00E94D8130E940D
:103290009F142FEF81EE94E0215080409040E1F7A1
:1032A00000C0000063E58CE092E00E94B013CF9173
:1032B0000C949F148438B1F40E94C10C82FD81C02B
:1032C00067E48CE092E00E94D8130E949F142FEFD5
:1032D00081EE94E0215080409040E1F700C0000072
:1032E00067E4E1CF8CEF8C0F813AC0F58091060145
:1032F0008823E1F08091F60287FF18C0EC2FE69555
:10330000E695E695F0E0E45FFD4F8281282F30E0FE
:103310004C2F477081E090E002C0880F991F4A95BA
:10332000E2F782239323892B61F412C0EEE0F2E0EE
:1033300084E192E02191C21721F08E179F07D1F707
:1033400007C06C2F8CE092E00E94B0130E949F1483
:103350006C2F8CE092E00E94D813A9CF80E28C0FF2
:10336000883068F4C77081E090E001C0880FCA958A
:10337000EAF790919E02892B80939E0298CFEBE50D
:10338000EC0FE33040F4F0E0E554FE4F808190E034
:10339000CF910C94AB0CE8E5EC0FE73150F4F0E082
:1033A000EE0FFF1FE254FE4F80819181CF910C946C
:1033B000950CC03F30F08C2F0E94B412CF910C942A
:1033C0005D13CF910895CF93C82F0E941F19C93361
:1033D00049F42FEF87EE93E0215080409040E1F7D1
:1033E00000C000008C2FCF910C94B818EF92FF9280
:1033F0000F931F93CF93DF937C018B010E94901E4C
:10340000811119C0E70101151105A1F08091E800B3
:1034100085FD0AC08091E8008E778093E8000E94C5
:10342000901E882381F307C089918093F100015099
:103430001109E9CF80E0DF91CF911F910F91FF90AB
:10344000EF9008951F93CF93DF93CDB7DEB7AA9780
:103450000FB6F894DEBF0FBECDBFE2EDF2E0809173
:10346000F100819322E0EA3DF207C9F78091D3028F
:10347000833009F460C030F4813071F0823009F497
:103480009AC0B1C08A3009F486C08B3009F46BC091
:10349000893009F0A8C020C08091D202813A09F099
:1034A000A2C08091E800877F8093E8008091D602D7
:1034B0009091D702892B21F460E28EEA92E003C05A
:1034C00060E080E090E070E00E94171F8091E800CB
:1034D0008B778093E80087C08091D202813209F017
:1034E00082C08091D6029091D702029708F07BC0EB
:1034F0008091E800877F8093E8008091E80082FD5A
:1035000005C08091D0028111F8CF6DC02091F300E9
:103510008091F20090E0922B029729F48091F100C3
:103520008B7F813021F48091F1008093AD028091F6
:10353000E8008B7754C08091D202813A09F053C0E1
:103540008091D6029091D702892B09F04CC08091CE
:10355000E800877F8093E8008091E80080FFFCCF3F
:103560008091060137C08091D2028132E1F58091CD
:10357000D6029091D702892BB1F58091E800877F20
:103580008093E8000E94C31E8091D40280930601BC
:103590000E94A31828C08091D202813221F5809127
:1035A000E800877F8093E8000E94C31E8091D502C7
:1035B0008093AC0218C08091D202813AA1F480912C
:1035C000E800877F8093E8008091E80080FFFCCFCF
:1035D0008091AC028093F1008091E8008E77809317
:1035E000E8000E94C31E8091E80083FFCCC1809157
:1035F000D2029091D302492F50E04A30510508F091
:10360000C2C1FA01EB57FF4F0C943423803821F0EC
:10361000823809F0B8C108C08091CE029091CF02E3
:10362000992389F082600FC08091D6028F70873015
:1036300008F0A9C18093E9008091EB0085FB882701
:1036400080F91092E9009091E800977F9093E8004C
:103650008093F1001092F10065C1282F2D7F09F0B1
:1036600092C1882319F0823061F08DC18091D4021B
:10367000813009F088C1933009F080E08093CF0257
:103680002EC08091D40281112AC08091D6028F7001
:103690002FEF280F263008F076C18093E9002091A3
:1036A000EB0020FF1CC0933021F48091EB0080627E
:1036B00014C09091EB0090619093EB0021E030E01A
:1036C000A90102C0440F551F8A95E2F74093EA0012
:1036D0001092EA008091EB0088608093EB001092DA
:1036E000E9008091E800877F20C181114CC11091D1
:1036F000D4021F778091E3008078812B8093E300D0
:103700008091E800877F8093E8000E94C31E80912B
:10371000E80080FFFCCF8091E30080688093E300A5
:10372000111102C082E001C083E08093D0022BC15E
:103730008058823008F027C18091D4029091D50240
:103740008C3D53E0950779F583E08A838AE289838B
:103750004FB7F894DE01139620E03EE051E2E32FEC
:10376000F0E050935700E49120FF03C0E295EF7022
:103770003F5FEF708E2F90E0EA3010F0C79601C0E7
:10378000C0968D939D932F5F243149F74FBF809151
:10379000E800877F8093E8006AE270E0CE0101963E
:1037A0000E94171FAEC04091D6025091D702292F18
:1037B000332723303105A9F068F42130310509F4AD
:1037C000F1C02230310509F0DEC08BE390E0E1E783
:1037D000F5E044C02132310521F12232310571F189
:1037E000D2C0992781309105A1F058F0029709F0D5
:1037F000CAC0EEEBF5E0E4918E2F90E0EEEBF5E041
:103800002AC0E0E0F6E0E4918E2F90E0E0E0F6E000
:1038100022C0E6EDF5E0E4918E2F90E0E6EDF5E0D4
:103820001AC04115510509F4C2C04130510509F0D3
:10383000AAC089E090E0ECE9F5E010C0411551051F
:1038400009F4BAC04130510509F09DC08CEB90E0FD
:10385000E5E7F4E003C0009709F495C02091E80083
:10386000277F2093E8002091D8023091D902821757
:10387000930708F49C0140E02115310589F18091FE
:10388000D002882309F43DC08530D9F18091E80049
:1038900083FD37C08091E80082FD2FC08091E80051
:1038A00080FFEACF4091F3008091F20090E0942BEA
:1038B0002115310559F08830910540F44491409329
:1038C000F1003196215031090196F2CF41E008977D
:1038D00009F040E08091E8008E778093E800CCCF3B
:1038E0004111CDCF0AC08091D002882351F085309C
:1038F00041F08091E80083FD04C08091E80082FFE0
:10390000F2CF8091E8008B778093E8003CC080384C
:10391000D1F58091E800877F8093E8008091D10203
:103920008093F1008091E8008E778093E8000E94F8
:10393000C31E29C0811127C08091D4029091D50265
:103940009927029704F58091E800877F8093E8002B
:103950001091D4021093D1020E94C31E111106C00F
:103960008091E30087FD02C081E001C084E0809384
:10397000D00242E061EC81E00E94E21E42E261EC92
:1039800082E00E94E21E8091E80083FF1AC08091CD
:10399000E800877F8093E8008091EB00806280934D
:1039A000EB000FC082E190E0ECEAF5E057CF89E050
:1039B00090E0E3E8F5E052CF80E490E0E1E3F5E069
:1039C0004DCFAA960FB6F894DEBF0FBECDBFDF91E4
:1039D000CF911F9108951F920F920FB60F9211244D
:1039E0002F933F934F935F936F937F938F939F9307
:1039F000AF93BF93CF93DF93EF93FF93C091E90011
:103A0000CF708091EC00D82FD17080FDD0E810925B
:103A1000E9008091F000877F8093F00078940E9405
:103A2000221A1092E9008091F00088608093F000E3
:103A3000CD2BCF70C093E900FF91EF91DF91CF9133
:103A4000BF91AF919F918F917F916F915F914F91B6
:103A50003F912F910F900FBE0F901F901895E8ED9A
:103A6000F0E080818E7F80831092E2001092DA0075
:103A70001092E100A0EEB0E08C9181608C93808187
:103A80008F77808319BCA7EDB0E08C918E7F8C93EB
:103A900080818F7E80831092AB020895CF92DF9257
:103AA000EF92FF920F931F93CF93DF93C8EDD0E077
:103AB00088818F7E8883E7EDF0E08081816080835C
:103AC00084E082BF81E08093AB0288818E7F88830F
:103AD00002EE10E0F80110821092DA0081EEC82E9A
:103AE000D12CF601108288818F7788838881806845
:103AF000888388818F7D888319BC1092D0021092B0
:103B0000D1021092CF021092CE0290EEE92EF12C4B
:103B1000F70180818B7F808388818160888342E088
:103B200060E080E00E94E21EF60180818E7F80834B
:103B3000F801808181608083808188608083F701C3
:103B400080818E7F8083888180618883DF91CF919F
:103B50001F910F91FF90EF90DF90CF9008951F92EB
:103B60000F920FB60F9211242F933F934F935F93B1
:103B70006F937F938F939F93AF93BF93EF93FF9335
:103B80008091E10082FF09C08091E20082FF05C0C0
:103B90008091E1008B7F8093E1008091DA0080FFCB
:103BA0002AC08091D80080FF26C08091DA008E7FE5
:103BB0008093DA008091D90080FF18C080E189BD30
:103BC00082E189BD09B400FEFDCF81E08093D0027F
:103BD0008091AB0281110FC00E942F1D0E944E1DCB
:103BE0008091E20084608093E20005C019BC1092CD
:103BF000D0021092AB028091E10080FF17C080914B
:103C0000E20080FF13C08091E2008E7F8093E2008B
:103C10008091E20080618093E2008091D800806210
:103C20008093D80019BC85E08093D0028091E10098
:103C300084FF32C08091E20084FF2EC080E189BD04
:103C400082E189BD09B400FEFDCF8091D8008F7D4F
:103C50008093D8008091E1008F7E8093E100809175
:103C6000E2008F7E8093E2008091E2008160809389
:103C7000E2008091D102882311F084E007C0809196
:103C8000E30087FD02C081E001C083E08093D002A1
:103C90000E94A3180E94C10C8091E10083FF27C0FD
:103CA0008091E20083FF23C08091E100877F8093B1
:103CB000E10082E08093D0021092D1028091E10075
:103CC0008E7F8093E1008091E2008E7F8093E200FE
:103CD0008091E20080618093E20042E060E080E059
:103CE0000E94E21E8091F00088608093F000FF91B6
:103CF000EF91BF91AF919F918F917F916F915F9164
:103D00004F913F912F910F900FBE0F901F901895DC
:103D1000BC0184E00C94B711BC0183E00C94B71192
:103D20002091E4003091E50095E64091EC00842F6D
:103D3000817040FF23C08091E80080FD1DC080910C
:103D4000D002882399F0853099F08091EB0085FDB1
:103D500011C04091E4005091E5002417350729F384
:103D6000915011F09A01E1CF84E0089582E0089526
:103D700083E0089581E0089580E008954091E8008F
:103D800042FFDDCF08958091D20287FF11C080915C
:103D9000E80082FD05C08091D0028111F8CF11C0EA
:103DA0008091E8008B770BC08091D002882349F086
:103DB0008091E80080FFF8CF8091E8008E778093B3
:103DC000E8000895982F973068F59093E9009817C8
:103DD00039F07091EC002091ED005091F00003C09B
:103DE000242F762F50E021FD02C09F5FECCF309151
:103DF000EB003E7F3093EB003091ED003D7F309340
:103E0000ED003091EB0031603093EB007093EC00EB
:103E10002093ED005093F0002091EE0027FDE5CFB8
:103E200080E008958F708093E90081E008952091EB
:103E3000D8023091D9022617370748F0611571056D
:103E400039F42091E8002E772093E80001C0B901F1
:103E5000FC0120E06115710579F18091D002882381
:103E6000F1F18530F1F18091E80083FD3CC0809153
:103E7000E80082FD2EC08091E80080FFEBCF20910A
:103E8000F3008091F20090E0922B6115710551F0E2
:103E90008830910538F421912093F1006150710927
:103EA0000196F3CF21E0089709F020E08091E80027
:103EB0008E778093E800CECF2111CFCF0AC08091BA
:103EC000D002882361F0853061F08091E80083FDA5
:103ED0000AC08091E80082FFF2CF80E0089582E07E
:103EE000089583E0089581E00895CF93DF93CDB7DF
:103EF000DEB760970FB6F894DEBF0FBECDBF84B7B4
:103F0000877F84BF0FB6F894A89580916000886180
:103F100080936000109260000FBE90E080E80FB6C2
:103F2000F89480936100909361000FBE85B780681C
:103F300085BF85B7806885BF0E942F1D0E944E1DDA
:103F40008091E20084608093E20078948091D002B6
:103F50008823A1F01091E9001F709091EC00892F47
:103F6000817090FD80E8182B1092E9008091E800A4
:103F700083FD0E94221A1F701093E90082E084BD25
:103F800093E095BD9AEF97BD80936E000E941E0F3F
:103F900090E090930801809307010E94ED0F0E942A
:103FA000FC0FE4EEF2E0ABEFB2E011921D9222E0E2
:103FB000E23FF207D1F78EE090E00E943A2380932F
:103FC000DA029093DB02FC010E962BEF2193E817A7
:103FD000F907E1F780E090E00E94D2228C3E9E4FEC
:103FE00011F00E941E148CE090E00E94C42290E028
:103FF000A0E0B0E08093DC029093DD02A093DE02AB
:10400000B093DF0289EA8093800089E08093810089
:1040100024982C983F988AB18F7C8AB96E98479AD9
:104020008BB180638BB9769A8FE090E00E94CC22AE
:104030006093E0027093E1028093E2029093E302C6
:1040400067704FEF649FB001112475956795759562
:1040500067957727709389006093880070938B0031
:1040600060938A0070938D0060938C000E94950F7E
:1040700080E090E00E94D2228C3E9E4F11F00E9480
:104080001E1482E090E00E94C422809316030E94D6
:104090000D149093F7028093F60283E090E00E9463
:1040A000C422682F70E080E090E00E94F6156091D5
:1040B000F2027091F3028091F4029091F5020E9455
:1040C000A70E89E091E09093F9028093F802BB2457
:1040D000B394AA24AA9489E0E82E83E0F82E90E114
:1040E000992E22E1822E38E1C32ED12C40E4742E89
:1040F0008091D002853009F045C08091D002843093
:1041000009F11092FA020FB6F894A895C0926000D7
:104110000FBE7092600083B7817F846083BF83B7D6
:10412000816083BF7894889583B78E7F83BF0FB6F5
:10413000F894A89580916000886180936000109247
:1041400060000FBE8091CF02882391F20E941E0F63
:1041500090E090930801809307010E94ED0F0E9468
:10416000FC0FEBEFF2E01192EE16FF06E1F70E9472
:104170007C10EBEFF2E08191811134C1EE16FF0665
:10418000D1F7B6CF0E947C10E7E1F3E0ABEFB2E0ED
:1041900000E010E0302F2D919191922721F180E0E5
:1041A00066246394462D4923D1F08F8338872621D6
:1041B00081E009F480E089870E9451138160782FA3
:1041C0009B878A874F81588569858B850E94BA0BAA
:1041D000F801E95EFC4F80816826608218C08F5F1D
:1041E000660C8630F9F60F5F1F4F0E30110591F601
:1041F000AC86AD861E860E9451138160782F988B05
:104200008F874C855D856E8588890E94BA0B86E014
:10421000EFE0F3E0DE01119601900D928A95E1F74F
:104220005090110360901203009113031091140336
:1042300010921103109212031092130310921403A0
:10424000511003C0662009F44FC080910D03909176
:104250000E030E9442139C0190910C03992309F4D0
:10426000D5C02531310508F43FC09F3F19F09F5F4D
:1042700090930C03552061F00E949112151414F0D4
:104280009FEF01C091E0899F802D1124809311033D
:10429000662061F00E949112161414F09FEF01C085
:1042A00091E0899F802D1124809312033091110396
:1042B0003323D1F0209112032223B1F045EB3403D4
:1042C000C0011124992319F09093110302C0B092F8
:1042D000110335EB2303C0011124992319F09093A6
:1042E000120302C0B0921203011103C0112309F49A
:1042F0004FC080910A0390910B030E9442139C01CE
:1043000090910903992309F485C02536310508F4F5
:104310003FC09F3F19F09F5F90930903002361F016
:104320000E946F12101614F09FEF01C091E0899F58
:10433000802D112480931303112361F00E946F12CA
:10434000111614F09FEF01C091E0899F802D112478
:1043500080931403309113033323D1F0209114037D
:104360002223B1F045EB3403C0011124992319F045
:104370009093130302C0B092130335EB2303C001E3
:104380001124992319F09093140302C0B0921403DE
:104390008091110381110BC080911203811107C01C
:1043A00080911303811103C08091140381110E9435
:1043B0005D135B826C820D831E8386E0FE01319665
:1043C000AFE0B3E001900D928A95E1F70E94C10C35
:1043D00090911503891709F48BCE0E94C10C80932C
:1043E000150386CE99BC89BC09B400FEFDCF80912F
:1043F000D8008F7D8093D8008091E0008260809308
:10440000E0008091E00081FDFCCF72CE232B09F00B
:104410002ECF6ACF232B09F07ECFBACF1092B900EE
:104420008CE08093B8000895EF92FF920F931F9352
:10443000CF93DF93182FEB011092BC0084EA809396
:10444000BC000E9451137C018091BC0087FD0EC00E
:10445000CF3F8FEFD807C1F30E9451138E199F09E8
:104460008C179D0788F38EEF9FEF2EC08091B900C7
:10447000887F883041F08091B900887F803119F0C1
:104480008FEF9FEF21C01093BB0084E88093BC00A6
:104490000E9451138C018091BC0087FD0CC0CF3F5E
:1044A0008FEFD807C1F30E945113801B910B8C171B
:1044B0009D0788F3D8CF8091B900887F883111F0AB
:1044C0008034F1F680E090E0DF91CF911F910F9161
:1044D000FF90EF9008950F931F93CF93DF93EB011D
:1044E0008093BB0084E88093BC000E9451138C0130
:1044F0008091BC0087FD0EC0CF3F8FEFD807C1F37E
:104500000E945113801B910B8C179D0788F38EEF2F
:104510009FEF0CC02091B900287F81E090E0283205
:1045200011F480E090E0919581959109DF91CF9110
:104530001F910F9108950F931F93CF93DF93EC0179
:1045400084E88093BC000E9451138C018091BC00D0
:1045500087FD0EC0CF3F8FEFD807C1F30E945113E4
:10456000801B910B8C179D0788F38EEF9FEF03C084
:104570008091BB0090E0DF91CF911F910F91089542
:1045800084E98093BC000895F999FECF92BD81BD66
:10459000F89A992780B50895A6E1B0E044E050E08C
:1045A0000C94FE22A8E1B0E042E050E00C94FE2220
:1045B000262FF999FECF92BD81BDF89A019700B4DC
:1045C000021639F01FBA20BD0FB6F894FA9AF99A7C
:1045D0000FBE08950396272F0E94D9220E94D82249
:1045E000252F0E94D922242F0C94D9220196272FFF
:1045F0000E94D9220C94D822DC01CB01FC01F9994C
:10460000FECF06C0F2BDE1BDF89A319600B40D921E
:1046100041505040B8F70895AA1BBB1B51E107C099
:10462000AA1FBB1FA617B70710F0A61BB70B881F42
:10463000991F5A95A9F780959095BC01CD010895D1
:1046400097FB072E16F4009407D077FD09D00E943F
:104650000C2307FC05D03EF4909581959F4F08955B
:10466000709561957F4F0895EE0FFF1F0590F491AF
:10467000E02D09940F931F93CF93DF938230910520
:1046800010F482E090E0E0912703F091280320E00D
:1046900030E0A0E0B0E0309719F140815181028113
:1046A000138148175907C8F08417950769F41097C4
:1046B00031F012960C93129713961C9327C0009317
:1046C00027031093280322C02115310519F0421742
:1046D000530718F49A01BD01EF01DF01F801DBCFA8
:1046E00021153105F9F0281B390B2430310580F4F0
:1046F0008A819B816115710521F0FB01938382837F
:1047000004C09093280380932703FE01329644C08F
:10471000FE01E20FF31F81939193225031093983F7
:1047200028833AC02091250330912603232B41F49E
:104730002091020130910301309326032093250339
:1047400020910001309101012115310541F42DB76F
:104750003EB74091040150910501241B350BE091B7
:104760002503F0912603E217F307A0F42E1B3F0B5D
:104770002817390778F0AC014E5F5F4F24173507D3
:1047800048F04E0F5F1F50932603409325038193FB
:10479000919302C0E0E0F0E0CF01DF91CF911F9153
:1047A0000F910895CF93DF93009709F481C0FC0126
:1047B000329713821282A0912703B0912803109799
:1047C00081F420813181820F931F20912503309144
:1047D00026032817390751F5F0932603E0932503A4
:1047E00067C0ED0120E030E0CE17DF0740F44A81DA
:1047F0005B819E0141155105F1F0EA01F5CFD383AC
:10480000C28340815181840F951FC817D90759F47D
:1048100088819981840F951F0296918380838A8174
:104820009B81938382832115310529F4F09328031A
:10483000E09327033DC0E901FB83EA834991599145
:10484000C40FD51FEC17FD0761F480819181840F9F
:10485000951F0296E90199838883828193819B83C6
:104860008A83E0E0F0E012968D919C911397009777
:1048700019F0FD01DC01F7CF8D919C9111979D01FD
:104880002E5F3F4F820F931F209125033091260307
:104890002817390769F4309729F4109228031092E9
:1048A000270302C013821282B0932603A09325032C
:0A48B000DF91CF910895F894FFCF37
:1048BA000000290320000120005411761157118CA1
:1048CA001E881E000D010D020D030D040D050D00BD
:1048DA000C010C020C030C040C050C000B010B025E
:1048EA000B030B040B050B000A010A020A030A0454
:1048FA000A050A0009010902090309040905090050
:10490A00080108020803080408050800070107024D
:10491A000703070407050700060106020603060443
:10492A00060506000501050205030504050505003F
:10493A00040104020403040404050400030103023D
:10494A000303030403050300020102020203020433
:10495A00020502000101010201030104010501002F
:10496A000001000200030004000500818283E200C6
:10497A00E900EA00B500B600B700CD008301CC001B
:10498A008A019201940121022302240225022602AD
:0C499A0027022A02B300B4006F00700076
:00000001FF
